:100000000C9428010C9459010C9459010C94590139
:100010000C9459010C9459010C9459010C945901F8
:100020000C9459010C9459010C9459010C945901E8
:100030000C9459010C9459010C9459010C945901D8
:100040000C9459010C94F1060C9459010C9459012B
:100050000C9459010C9459010C9459010C94BD0550
:100060000C9459010C9431060C9407060C94590118
:100070000C9459010C9459010C9459010C94590198
:100080000C94C3060C9459010C9459010C94590119
:100090000C9459010C9459010C9459010C94590178
:1000A0000C9459010C9459010C9495060C94590127
:1000B0000C9459010C9459010C9459010C94670645
:1000C0000C9459010C9459010C9459010C94590148
:1000D0000C9459010C9459010C9459010C94590138
:1000E0000C9459010C948B010C9490010C94140302
:1000F0000C946B020C94CE020C94C9010C943A0738
:100100000C94C1010C94A6010C94B7010C94DD0170
:100110000C94C5010C943E020C94A2010C94AE0107
:100120000C94DC020C94AA010C94D7010C94D3011A
:100130000C9461030C94BB010C94E1010C94CF016D
:100140000C94B1010C947A020000210024002700D5
:100150002A002D00300033000101000004010701D6
:100160000A0100002200250028002B002E0031008B
:10017000340002010000050108010B010505050519
:10018000070508080808020202020A0A080804040F
:10019000040401010101010101010303030303033D
:1001A0000303040707070C0C0C0C0C0C0C0C0202CC
:1001B000020206060606060606060B0B0B0B0B0BC9
:1001C0000B0B010210202008081020401020408056
:1001D000020102010804020101020408102040800B
:1001E0008040201008040201800402018040201099
:1001F00008040201080402010102040810204080E2
:10020000010204081020408000000A0B02090C0DB6
:100210000E080703040100000000000000000000B9
:1002200000000000000000000000000000000000CE
:10023000000000001211100000000000000000008B
:1002400000000000000000000000000000003A076D
:1002500011241FBECFEFD1E2DEBFCDBF00E00CBF47
:1002600012E0A0E0B2E0E2E6F8E100E00BBF02C07D
:1002700007900D92AA31B107D9F723E0AAE1B2E0C5
:1002800001C01D92AD36B207E1F711E0C8E2D1E03E
:1002900000E006C021970109802FFE010E94110A8B
:1002A000C732D10780E00807A9F70E947E070C94A7
:1002B0002F0C0C940000282F30E0F901E85FFD4F6F
:1002C0009491F901EE53FE4F449124583E4FF901A9
:1002D0002491222309F435C0992311F191509231D0
:1002E000F8F4E92FF0E08827E758FE4F8F4F0C9481
:1002F000110AAA01AE018B01A201A6019001B10170
:10030000B701BB01C101C501C901CF01D3019001F2
:10031000D701DD01E101809180008F77809380001B
:10032000E22FF0E0EE0FFF1FEE59FE4FA591B491C2
:100330008FB7F894EC91611148C040954E234C93CF
:100340008FBF0895809180008F7DE8CF80918000DD
:10035000877FE4CF84B58F7784BDE2CF84B58F7D6E
:10036000FBCF8091B0008F778093B000D9CF809180
:10037000B0008F7DF9CF809190008F7780939000AF
:10038000CFCF809190008F7DF9CF80919000877FB3
:10039000F5CF8091A0008F778093A000C1CF80918E
:1003A000A0008F7DF9CF8091A000877FF5CF80914D
:1003B00020018F7780932001B3CF809120018F7D22
:1003C000F9CF80912001877FF5CF4E2BB8CF3FB773
:1003D000F8948091B0029091B102A091B202B091D4
:1003E000B30226B5A89B05C02F3F19F00196A11DA9
:1003F000B11D3FBFBA2FA92F982F8827BC01CD016F
:10040000620F711D811D911D42E0660F771F881FCD
:10041000991F4A95D1F708958F929F92AF92BF92FC
:10042000CF92DF92EF92FF924B015C010E94E701B5
:100430006B017C010E94E7016C197D098E099F09FF
:10044000683E734081059105A8F321E0821A910866
:10045000A108B10888EEC80E83E0D81EE11CF11C8B
:1004600081149104A104B10429F7FF90EF90DF906B
:10047000CF90BF90AF909F908F900895AF92BF9212
:10048000CF92DF92EF92FF920F931F93CF93DF9360
:100490006C017B018B01040F151FEB015E01AE188F
:1004A000BF08C017D10759F06991D601ED91FC91B1
:1004B0000190F081E02DC6011995892B79F7C501CE
:1004C000DF91CF911F910F91FF90EF90DF90CF9030
:1004D000BF90AF900895FC01538D448D252F30E0DF
:1004E000842F90E0821B930B541710F0CF96089541
:1004F00001970895FC01918D828D981761F0A28D6E
:10050000AE0FBF2FB11D5D968C91928D9F5F9F7333
:10051000928F90E008958FEF9FEF08952FB7F89492
:100520008091B4029091B502A091B602B091B70249
:100530002FBF8093C0029093C102A093C202B093D8
:10054000C30288EB92E00E947A0297FF26C02FB781
:10055000F8948091B4029091B502A091B602B09146
:10056000B7022FBF4091C0025091C1026091C202F8
:100570007091C302841B950BA60BB70B4091BC0274
:100580005091BD026091BE027091BF028417950721
:10059000A607B707B0F28FEF9FEF0895FC01918D8A
:1005A000828D981731F0828DE80FF11D858D90E0D6
:1005B00008958FEF9FEF0895FC01918D228D892F73
:1005C00090E0805C9F4F821B91098F73992708955B
:1005D00088EB92E00E94DC0221E0892B09F420E004
:1005E000822F0895FC01A48DA80FB92FB11DA35A25
:1005F000BF4F2C91848D90E001968F739927848F43
:10060000A689B7892C93A089B1898C918370806465
:100610008C93938D848D981306C00288F389E02D06
:1006200080818F7D80830895EF92FF920F931F93B7
:10063000CF93DF93EC0181E0888F9B8D8C8D981395
:100640001AC0E889F989808185FF15C09FB7F894A1
:10065000EE89FF896083E889F989808183708064ED
:1006600080839FBF81E090E0DF91CF911F910F9138
:10067000FF90EF900895F62E0B8D10E00F5F1F4F47
:100680000F731127E02E8C8D8E110CC00FB607FC56
:10069000FACFE889F989808185FFF5CFCE010E94E4
:1006A000F202F1CFEB8DEC0FFD2FF11DE35AFF4F5E
:1006B000F0829FB7F8940B8FEA89FB898081806272
:1006C000CFCFCF93DF93EC01888D8823B9F0AA892F
:1006D000BB89E889F9898C9185FD03C0808186FDFD
:1006E0000DC00FB607FCF7CF8C9185FFF2CF80814C
:1006F00085FFEDCFCE010E94F202E9CFDF91CF91CD
:10070000089580E090E0892B29F00E94E802811191
:100710000E94000080E090E0892B49F080E090E0AA
:10072000892B29F00E94000081110E94000080E0C6
:1007300090E0892B49F080E090E0892B29F00E941D
:10074000000081110E94000080E090E0892B49F0B8
:1007500080E090E0892B29F00E94000081110C9428
:1007600000000895DC01EC91E03390F511968C9136
:10077000119728E830E0281B310987FD3395220FB7
:10078000331F220F331F6217730784F012968C9168
:1007900028E532E0281B310987FD3395220F331FEE
:1007A000220F331F621773070CF49B01225031098B
:1007B000220F331F4FB7F8948E2F90E0FC01EE0FFD
:1007C000FF1FE80FF91FE15EFD4F328321834FBF0A
:1007D0000895CF92DF92EF92FF92CF93DF93EC01D7
:1007E000603282E07807CCF5653B710514F064EB6C
:1007F00070E0898128E830E0281B310987FD3395B6
:10080000220F331F220F331F6901330FEE08FF0839
:100810008A8128E532E0281B310987FD3395220FB4
:10082000331F220F331F032E000C440B550B2C19C2
:100830003D094E095F09DB0177FF02C0B0E0A0E08F
:100840000E94CC0924EB30E040E050E00E94A20975
:10085000C20ED31EE41EF51EB601CE01DF91CF916C
:10086000FF90EF90DF90CF900C94B203CF93DF9383
:10087000DC018C91803308F06EC0CB019927FC011C
:10088000EE53FE4F249184589E4FFC01849188239F
:1008900099F090E0880F991FFC01E85BFE4FC5912D
:1008A000D491FC01EE59FE4F859194918FB7F89445
:1008B000E881E22BE8838FBF8C91282F30E0F9018B
:1008C000EE0FFF1FE20FF31FE15EFD4F962F9F73A8
:1008D0006081607C692B608311961C92119712963F
:1008E0001C9212972CE0622F0E94050A829FB00191
:1008F000112430E020E0AB01420F531FFA01EE0F4C
:10090000FF1FE40FF51FE15EFD4F908196FD16C0BD
:100910002F5F3F4F2C30310571F7813001F5109278
:10092000800082E080938100109285001092840004
:10093000B19A80916F00826080936F00EC918E2F4E
:1009400090E0FC01EE0FFF1FE80FF91FE15EFD4F85
:100950008081806480838C91DF91CF910895823073
:1009600061F4109290008093910010929500109283
:10097000940088BB80937100E1CF833069F41092BA
:10098000A00082E08093A1001092A5001092A40024
:1009900089BB80937200D2CF8111D0CF10922001F9
:1009A00082E08093210110922501109224018ABBDC
:1009B00080937300C3CFAF92BF92CF92DF92EF923A
:1009C000FF920F931F93CF93DF936B017A01EC019A
:1009D000C65EDD4F28813CE0389F8001399F100DB5
:1009E0001124A0901E02B12C27FF1FC0FB01118211
:1009F000108288818F5F888388819801280F311D3C
:100A000087FD3A95F6012A153B051CF488818C3048
:100A1000C4F180819181049680349C4908F473C0AC
:100A2000F60180819181049670C088819801280F19
:100A3000311D87FD3A952A153B05DCF68881A80112
:100A4000480F511D87FD5A95FA01EE0FFF1FE40F65
:100A5000F51FE15EFD4F808186FFCBCF8881F801D5
:100A6000E80FF11D87FDFA95CF01EE0FFF1FE80F8C
:100A7000F91FE15EFD4F808160E08F730E945B0192
:100A8000B8CF808191812881A801420F511D27FD97
:100A90005A959A01FA01EE0FFF1FE20FF31FE15E74
:100AA000FD4F21813281820F931FF7019183808353
:100AB00088819801280F311D87FD3A95F901EE0FC5
:100AC000FF1FE20FF31FE15EFD4F808186FF22C012
:100AD0008881080F111D87FD1A95F801EE0FFF1F81
:100AE000E00FF11FE15EFD4F808161E08F73DF91C8
:100AF000CF911F910F91FF90EF90DF90CF90BF901B
:100B0000AF900C945B0180E49CE9F70191838083B2
:100B10008FEF8883DF91CF911F910F91FF90EF901E
:100B2000DF90CF90BF90AF9008950F931F93CF9316
:100B3000DF93EC0188819981009759F02A813B81EC
:100B40002617370730F081E0DF91CF911F910F9189
:100B500008958B016F5F7F4F0E943E0B009759F005
:100B6000998388831B830A832C813D81232B59F72A
:100B7000FC011082E8CF80E0E7CF1F920F920FB602
:100B80000F9211242F933F938F939F93AF93BF9313
:100B90008091B4029091B502A091B602B091B702D3
:100BA0003091AF0223E0230F2D3758F50196A11D98
:100BB000B11D2093AF028093B4029093B502A0932D
:100BC000B602B093B7028091B0029091B102A091A9
:100BD000B202B091B3020196A11DB11D8093B00283
:100BE0009093B102A093B202B093B302BF91AF91C0
:100BF0009F918F913F912F910F900FBE0F901F905B
:100C0000189526E8230F0296A11DB11DD2CF1F9281
:100C10000F920FB60F9211240BB60F922F933F93A2
:100C20004F935F936F937F938F939F93AF93BF93F4
:100C3000EF93FF9388EB92E00E94F202FF91EF9115
:100C4000BF91AF919F918F917F916F915F914F91E4
:100C50003F912F910F900BBE0F900FBE0F901F90E2
:100C600018951F920F920FB60F9211240BB60F9288
:100C70002F938F939F93EF93FF93E091C802F0918E
:100C8000C9028081E091CE02F091CF0282FD1DC0A9
:100C900090818091D1028F5F8F732091D202821751
:100CA00041F0E091D102F0E0E854FD4F958F809340
:100CB000D102FF91EF919F918F912F910F900BBED9
:100CC0000F900FBE0F901F9018958081F2CF1F924A
:100CD0000F920FB60F9211240BB60F922F933F93E2
:100CE0004F935F936F937F938F939F93AF93BF9334
:100CF000EF93FF9348E251E064E271E090E080E01E
:100D00000E94DB04FF91EF91BF91AF919F918F9172
:100D10007F916F915F914F913F912F910F900BBEFB
:100D20000F900FBE0F901F9018951F920F920FB645
:100D30000F9211240BB60F922F933F934F935F9313
:100D40006F937F938F939F93AF93BF93EF93FF9393
:100D500048EA50E064EA70E083E090E00E94DB043F
:100D6000FF91EF91BF91AF919F918F917F916F9183
:100D70005F914F913F912F910F900BBE0F900FBE3F
:100D80000F901F9018951F920F920FB60F9211247B
:100D90000BB60F922F933F934F935F936F937F9375
:100DA0008F939F93AF93BF93EF93FF9348E950E0E6
:100DB00064E970E082E090E00E94DB04FF91EF9133
:100DC000BF91AF919F918F917F916F915F914F9163
:100DD0003F912F910F900BBE0F900FBE0F901F9061
:100DE00018951F920F920FB60F9211240BB60F9207
:100DF0002F933F934F935F936F937F938F939F9323
:100E0000AF93BF93EF93FF9348E850E064E870E03E
:100E100081E090E00E94DB04FF91EF91BF91AF91E0
:100E20009F918F917F916F915F914F913F912F9102
:100E30000F900BBE0F900FBE0F901F901895FC01E6
:100E400090911E02903398F481E0890F80931E02E6
:100E50009083892F90E0FC01EE0FFF1FE80FF91F30
:100E6000E15EFD4F88EB9BE09283818308958FEFD5
:100E700080830895E8EBF2E01382128288EE93E01B
:100E8000A0E0B0E084839583A683B7838AE092E0F4
:100E90009183808385EC90E09587848784EC90E053
:100EA0009787868780EC90E0918B808B81EC90E037
:100EB000938B828B82EC90E0958B848B86EC90E018
:100EC000978B868B118E128E138E148E84E693E090
:100ED0000E941F0781E693E00E941F078EE593E0C2
:100EE0000E941F078BE593E00E941F0788E593E0AF
:100EF0000E941F0785E593E00C941F07CF93DF93B3
:100F0000CDB7DEB76A970FB6F894DEBF0FBECDBF80
:100F1000789484B5826084BD84B5816084BD85B5D4
:100F2000826085BD85B5816085BD80916E008160E0
:100F300080936E0010928100809181008260809386
:100F40008100809181008160809381008091800088
:100F50008160809380008091B10084608093B100B3
:100F60008091B00081608093B00080919100826098
:100F70008093910080919100816080939100809195
:100F800090008160809390008091A10082608093A6
:100F9000A1008091A10081608093A1008091A000B8
:100FA00081608093A0008091210182608093210163
:100FB00080912101816080932101809120018160D5
:100FC0008093200180917A00846080937A008091E0
:100FD0007A00826080937A0080917A0081608093A9
:100FE0007A0080917A00806880937A001092C10024
:100FF000E091C802F091C90282E08083E091C402CE
:10100000F091C5021082E091C602F091C70280E122
:1010100080831092D002E091CC02F091CD0286E064
:101020008083E091CA02F091CB028081806180834D
:10103000E091CA02F091CB02808188608083E091C8
:10104000CA02F091CB02808180688083E091CA025D
:10105000F091CB0280818F7D80836AE070E088E52B
:1010600093E00E9436046BE070E085E593E00E9417
:1010700036046CED75E088E593E00E94B2036AE502
:1010800070E085E593E00E94E90368E070E084E6A3
:1010900093E00E94360465E070E081E693E00E94F0
:1010A000360467E070E08EE593E00E94360466E067
:1010B00070E08BE593E00E94360464EB70E084E618
:1010C00093E00E94E9036CE370E081E693E00E9404
:1010D000E9036AE570E08EE593E00E94E90370E0C1
:1010E00060E08BE593E00E94E90364EF71E080E04B
:1010F00090E00E940C0288EB92E00E94DC0218163D
:1011000019060CF0CBC01E8A1D8A188E1F8A1A8EF3
:10111000198E70E060E0CE0145960E9495052D89FC
:101120003E8981112EC02115310519F0C9010E9497
:10113000B50A1E8A1D8A1A8E198E188E1F8A0E9461
:101140008E0297FD26C08A30910519F189831A8293
:10115000098D1A8D0F5F1F4FB801CE0145960E9471
:101160009505882361F32D893E89898D9A8DBE016D
:101170006F5F7F4F820F931F0E94280C1A8F098F79
:10118000DECF1A8E198E69E172E0C9010E94280C27
:10119000D6CF68E172E08D899E890E946F099E0119
:1011A0002F5F3F4F790110E000E0009791F00A3087
:1011B000110599F00F5F1F4F0E945109F7018193AC
:1011C00091937F0168E172E090E080E00E946F09F6
:1011D000ECCF0115110509F45BC069817A81613D8D
:1011E000F7E07F0714F060ED77E0683E23E07207D8
:1011F00014F468EE73E088E593E00E94B2036B811B
:101200007C81653B710514F064EB70E077FF02C0F0
:1012100070E060E085E593E00E94E9036E0135E04F
:10122000C30ED11C82E0E82EF12CE016F10654F535
:10123000F601619171916F01653B710514F064EBEA
:1012400070E077FF02C070E060E0C7010297813074
:10125000910579F048F08230910571F0039779F0AB
:10126000FFEFEF1AFF0AE1CF84E693E00E94E90363
:10127000F7CF81E693E0FACF8EE593E0F7CF8BE5E9
:1012800093E0F4CF64E670E080E090E00E940C020E
:101290008D899E89009711F00E94B50A0E948103F2
:1012A0002ACFFC0188279927E89421912032E9F37D
:1012B000293010F02E30C8F32B3241F02D3239F4A2
:1012C000689404C00E949A09820F911D21912053B5
:1012D0002A30C0F31EF4909581959F4F089547E6FC
:1012E00053E00C947309FA01A191B081009719F4AD
:1012F0001097E1F0CD01DC01CD010D90002011F43B
:10130000C00113C0FB012191222319F02015D9F748
:10131000F3CFFB012191201519F41E92119606C0FE
:101320002223C1F70D900020A1F7D001FA01A1936B
:10133000B08308957AE0979F902D879F802D910D1F
:1013400011240895052E97FB1EF400940E94B909FC
:1013500057FD07D00E94D40907FC03D04EF40C942B
:10136000B90950954095309521953F4F4F4F5F4FAC
:10137000089590958095709561957F4F8F4F9F4F01
:1013800008950E94F609A59F900DB49F900DA49F0B
:10139000800D911D11240895B7FF0C94C1090E947E
:1013A000C109821B930B0895A1E21A2EAA1BBB1B35
:1013B000FD010DC0AA1FBB1FEE1FFF1FA217B30721
:1013C000E407F50720F0A21BB30BE40BF50B661F37
:1013D000771F881F991F1A9469F7609570958095FB
:1013E00090959B01AC01BD01CF010895A29FB00172
:1013F000B39FC001A39F700D811D1124911DB29F49
:10140000700D811D1124911D0895991B79E004C070
:10141000991F961708F0961B881F7A95C9F7809533
:101420000895EE0FFF1F881F8BBF0790F691E02DE8
:1014300019940F931F93CF93DF938230910510F48B
:1014400082E090E0E0916B03F0916C0330E020E0EB
:10145000B0E0A0E0309799F42115310509F44AC0B5
:10146000281B390B24303105D8F58A819B81611501
:10147000710589F1FB0193838283FE0111C04081D4
:1014800051810281138148175907E0F04817590725
:1014900099F4109761F012960C93129713961C937F
:1014A0003296CF01DF91CF911F910F910895009354
:1014B0006B0310936C03F4CF2115310551F04217E3
:1014C000530738F0A901DB019A01BD01DF01F801E2
:1014D000C1CFEF01F9CF90936C0380936B03CDCF15
:1014E000FE01E20FF31F819391932250310939835A
:1014F0002883D7CF2091690330916A03232B41F4CD
:10150000209102023091030230936A032093690311
:1015100020910002309101022115310541F42DB7CF
:101520003EB74091040250910502241B350BE09117
:101530006903F0916A03E217F307A0F42E1B3F0B37
:101540002817390778F0AC014E5F5F4F2417350735
:1015500048F04E0F5F1F50936A03409369038193D5
:1015600091939FCFF0E0E0E09CCFCF93DF93009783
:10157000E9F0FC01329713821282A0916B03B091C3
:101580006C03ED0130E020E01097A1F4208131815F
:10159000820F931F2091690330916A03281739073E
:1015A00009F061C0F0936A03E0936903DF91CF9182
:1015B0000895EA01CE17DF07E8F54A815B819E01B5
:1015C00041155105B1F7E901FB83EA83499159912E
:1015D000C40FD51FEC17FD0761F48081918102963D
:1015E000840F951FE90199838883828193819B836E
:1015F0008A83F0E0E0E012968D919C91139700971A
:10160000B9F52D913C911197CD010296820F931F50
:101610002091690330916A032817390739F630970A
:1016200051F510926C0310926B03B0936A03A09370
:101630006903BCCFD383C28340815181840F951F3E
:10164000C817D90761F44E5F5F4F88819981480FB1
:10165000591F518340838A819B8193838283211503
:10166000310509F0B0CFF0936C03E0936B039ECF8C
:10167000FD01DC01C0CF13821282D7CF4F925F925F
:101680006F927F928F929F92AF92BF92CF92DF9292
:10169000EF92FF920F931F93CF93DF938C010097EC
:1016A00099F4CB01DF91CF911F910F91FF90EF90B3
:1016B000DF90CF90BF90AF909F908F907F906F9072
:1016C0005F904F900C94190AFC01E60FF71F9C01E4
:1016D00022503109E217F30708F4AEC0D901CD91C9
:1016E000DC911197C617D70720F1C530D10578F0E6
:1016F000CE0104978617970750F0C61BD70B229789
:10170000C193D1936D937C93CF010E94B50AC80118
:10171000DF91CF911F910F91FF90EF90DF90CF90CD
:10172000BF90AF909F908F907F906F905F904F9001
:1017300008955B01AC1ABD0A4C018C0E9D1EA09150
:101740006B03B0916C03512C412CF12CE12C1097C0
:1017500031F58091690390916A038815990509F024
:101760005CC04616570608F058C080910002909160
:101770000102009741F48DB79EB740910402509149
:101780000502841B950BE817F90708F055C0F09384
:101790006A03E0936903F90171836083B8CF8D9187
:1017A0009C91119712966C90129713967C901397B8
:1017B000A815B90559F56C0142E0C40ED11CCA1434
:1017C000DB0420F1AC014A195B09DA011296159786
:1017D00080F06282738251834083D9016D937C9340
:1017E000E114F10471F0D7011396FC93EE93129774
:1017F0008ECF22968C0F9D1FF90191838083F30178
:10180000EFCFF0936C03E0936B0381CF481659063A
:1018100008F42C017D01D3019ACFCB010E94190A53
:101820007C01009749F0AE01B8010E941F0CC8016D
:101830000E94B50A87016BCF10E000E068CFFB0182
:10184000DC0102C001900D9241505040D8F708953C
:10185000FB01DC0101900D920020E1F70895F8945E
:02186000FFCFB8
:1018620000006D0380000000000014033E026B02C2
:0A1872006103DC027A02CE022000BE
:00000001FF
