:100000000C94A2010C94D3010C94D3010C94D30151
:100010000C94D3010C94D3010C94D3010C94D30110
:100020000C94D3010C94D3010C94D3010C94D30100
:100030000C94D3010C94D3010C94D3010C94D301F0
:100040000C94D3010C9499250C94D3010C94D301F6
:100050000C94D3010C94D3010C94D3010C9465241B
:100060000C94D3010C94D9240C94AF240C94D30198
:100070000C94D3010C94D3010C94D3010C94D301B0
:100080000C946B250C94D3010C94D3010C94D301E4
:100090000C94D3010C94D3010C94D3010C94C72578
:1000A0000C94D3010C94D3010C943D250C94D301F2
:1000B0000C94D3010C94D3010C94D3010C940F2510
:1000C0000C94D3010C94D3010C94D3010C94D30160
:1000D0000C94D3010C94D3010C94D3010C94D30150
:1000E0000C94D3010C948A0A0C947C040C9417038E
:1000F0000C947E020C94F5020C94C6030C94ED0A49
:100100000C94E9030C94D5030C941B030C94EB267C
:100110000C94EA020C9425030C94EE020C940D034B
:100120000C9409030C9413030C94F7030C94FB0236
:100130000C94770A0C942F040C94F2020C94910AFC
:100140000C94E6020C94CF020C9499030C94FF02D9
:100150000C947F020C9405030C94680A0C94210300
:100160000C94BE0A0C94670A0C94D4024661696C24
:10017000656420746F20626F6F74203620564C3592
:10018000334C3058004661696C656420746F20629E
:100190006F6F74203520564C35334C305800466113
:1001A000696C656420746F20626F6F742033205611
:1001B0004C35334C3058004661696C656420746F6F
:1001C00020626F6F74203220564C35334C3058000B
:1001D0004661696C656420746F20626F6F742031B2
:1001E00020564C35334C3058005374617274696E2C
:1001F000672E2E2E00416C6C20696E20726573652F
:1002000074206D6F64652E2E2E2870696E732061C8
:100210007265206C6F77290053687574646F776E10
:100220002070696E7320696E697465642E2E2E00CD
:100230000A0B0C0D0E0F00010203040500000A0B4F
:1002400002090C0D0E080703040100000000000065
:10025000000000000000000000000000000000009E
:10026000000000000000000012111000000000005B
:10027000000000000000000000000000000000007E
:10028000000000002200250028002B002E00310075
:10029000340002010000050108010B0100002100EB
:1002A000240027002A002D00300033000101000047
:1002B000040107010A0105050505070508080808E6
:1002C000020202020A0A08080404040401010101EE
:1002D00001010101030303030303030304070707E9
:1002E0000C0C0C0C0C0C0C0C02020202060606068E
:1002F000060606060B0B0B0B0B0B0B0B010210205B
:10030000200808102040102040800201020108044B
:1003100002010102040810204080804020100804DF
:100320000201800402018040201008040201080438
:10033000020101020408102040800102040810207C
:100340004080EB2611241FBECFEFD1E2DEBFCDBF30
:1003500000E00CBF13E0A0E0B2E0E0EBF2E600E06A
:100360000BBF02C007900D92A838B107D9F72FE054
:10037000A8E8B3E001C01D92A53EB207E1F711E085
:10038000C2EAD1E000E006C021970109802FFE01FA
:100390000E94DC2DC13AD10780E00807A9F70E942E
:1003A0001A280C9456310C940000CF93DF9300D0A0
:1003B0001F92CDB7DEB719821A821B821C828981F7
:1003C0009A81AB81BC818A3F9105A105B10568F492
:1003D000000089819A81AB81BC810196A11DB11D6C
:1003E00089839A83AB83BC83EACF80E00F900F9020
:1003F0000F900F90DF91CF9108954F925F926F927F
:100400007F928F929F92AF92BF92CF92DF92EF92A4
:10041000FF920F931F93CF93F9010FEF1FEF9801F6
:1004200000831183228333834A015B01B3E0B694D6
:10043000A79497948794BA95D1F76A017B0127E036
:10044000C222DD24EE24FF2495018401C0E00630A1
:1004500011052105310508F041C0C1113FC0DC0183
:10046000A00FB11F6C91412C512C320180169106C6
:10047000A206B30649F470E00C2C02C0759567958E
:100480000A94E2F726013701462F50E060FF17C0BB
:10049000B901A801A3E0440F551F661F771FAA9555
:1004A000D1F7440E551E661E771E4082518262822D
:1004B0007382C1E00F5F1F4F2F4F3F4FC8CFBA016C
:1004C000759567954FEF441A540A640A740A48E018
:1004D0004416510461047104B9F6ECCFCF911F9119
:1004E0000F91FF90EF90DF90CF90BF90AF909F90D3
:1004F0008F907F906F905F904F900895089508952A
:1005000090E0FC01E450FD4F24918A549D4FFC0182
:100510008491882399F090E0880F991FFC01E4569C
:10052000FD4FA591B491FC01EE57FD4F859194913B
:100530008FB7F894EC91E22BEC938FBF0895282F9E
:1005400030E0F901E45CFD4F9491F901E450FD4F76
:1005500044912A543D4FF9012491222309F435C0D6
:10056000992311F191509231F8F4E92FF0E08827A6
:10057000E354FD4F8F4F0C94DC2DEE02F202CF02BC
:10058000E602EA02D402F502FB02FF0205030903B8
:100590000D0313031703D4021B03210325038091CA
:1005A00080008F7780938000E22FF0E0EE0FFF1F36
:1005B000EE57FD4FA591B4918FB7F894EC9161116E
:1005C00048C040954E234C938FBF08958091800082
:1005D0008F7DE8CF80918000877FE4CF84B58F77CF
:1005E00084BDE2CF84B58F7DFBCF8091B0008F7743
:1005F0008093B000D9CF8091B0008F7DF9CF8091EA
:1006000090008F7780939000CFCF809190008F7D66
:10061000F9CF80919000877FF5CF8091A0008F77F0
:100620008093A000C1CF8091A0008F7DF9CF8091F1
:10063000A000877FF5CF809120018F7780932001E4
:10064000B3CF809120018F7DF9CF80912001877FEA
:10065000F5CF4E2BB8CF682F80919F050E949F0247
:100660008091B6059091B7058230910538F0880FDA
:10067000991F880F991F05970197F1F7089581E059
:100680000C942B033FB7F8948091E7039091E80313
:10069000A091E903B091EA0326B5A89B05C02F3FBE
:1006A00019F00196A11DB11D3FBFBA2FA92F982F98
:1006B0008827BC01CD01620F711D811D911D42E093
:1006C000660F771F881F991F4A95D1F708958F925B
:1006D0009F92AF92BF92CF92DF92EF92FF924B0127
:1006E0005C010E9442036B017C010E9442036C1971
:1006F0007D098E099F09683E734081059105A8F325
:1007000021E0821A9108A108B10888EEC80E83E0A2
:10071000D81EE11CF11C81149104A104B10429F735
:10072000FF90EF90DF90CF90BF90AF909F908F9011
:100730000895AF92BF92CF92DF92EF92FF920F9304
:100740001F93CF93DF936C017B018B01040F151F67
:10075000EB015E01AE18BF08C017D10759F06991CF
:10076000D601ED91FC910190F081E02DC601199523
:10077000892B79F7C501DF91CF911F910F91FF90E0
:10078000EF90DF90CF90BF90AF900895FC01538D14
:10079000448D252F30E0842F90E0821B930B54175B
:1007A00010F0CF96089501970895FC01918D828DE8
:1007B000981761F0A28DAE0FBF2FB11D5D968C9181
:1007C000928D9F5F9F73928F90E008958FEF9FEFC0
:1007D0000895FC01918D828D981731F0828DE80F7C
:1007E000F11D858D90E008958FEF9FEF0895FC0136
:1007F000918D228D892F90E0805C9F4F821B910903
:100800008F739927089581E694E00E94F70321E011
:10081000892B09F420E0822F0895FC01A48DA80FF4
:10082000B92FB11DA35ABF4F2C91848D90E0019632
:100830008F739927848FA689B7892C93A089B18952
:100840008C91837080648C93938D848D981306C0F3
:100850000288F389E02D80818F7D80830895EF9257
:10086000FF920F931F93CF93DF93EC0181E0888F6A
:100870009B8D8C8D98131AC0E889F989808185FF3A
:1008800015C09FB7F894EE89FF896083E889F989DC
:1008900080818370806480839FBF81E090E0DF91DE
:1008A000CF911F910F91FF90EF900895F62E0B8D31
:1008B00010E00F5F1F4F0F731127E02E8C8D8E11EC
:1008C0000CC00FB607FCFACFE889F989808185FF53
:1008D000F5CFCE010E940D04F1CFEB8DEC0FFD2F73
:1008E000F11DE35AFF4FF0829FB7F8940B8FEA890E
:1008F000FB8980818062CFCFCF93DF93EC01888D1D
:100900008823B9F0AA89BB89E889F9898C9185FD8A
:1009100003C0808186FD0DC00FB607FCF7CF8C9118
:1009200085FFF2CF808185FFEDCFCE010E940D04BF
:10093000E9CFDF91CF91089580E090E0892B29F0F5
:100940000E94030481110E94000080E090E0892B46
:1009500049F080E090E0892B29F00E94000081118D
:100960000E94000080E090E0892B49F080E090E058
:10097000892B29F00E94000081110E94000080E074
:1009800090E0892B49F080E090E0892B29F00E94CB
:10099000000081110C94000008958EBD00000DB47C
:1009A00007FEFDCF8EB50895DC01EC91E03390F5A4
:1009B00011968C91119728E830E0281B310987FDAA
:1009C0003395220F331F220F331F6217730784F0F2
:1009D00012968C9128E532E0281B310987FD33956A
:1009E000220F331F220F331F621773070CF49B0172
:1009F00022503109220F331F4FB7F8948E2F90E009
:100A0000FC01EE0FFF1FE80FF91FE55FFA4F32837D
:100A100021834FBF0895CF92DF92EF92FF928032F1
:100A200022E09207E4F5853B910514F084EB90E019
:100A30004091CB0528E830E0241B310947FD339570
:100A4000220F331F220F331F6901330FEE08FF08F7
:100A50004091CC0528E532E0241B310947FD339550
:100A6000220F331F220F331F032E000C440B550B94
:100A70002C193D094E095F09DC0197FF02C0B0E067
:100A8000A0E00E945F2D24EB30E040E050E00E94A7
:100A9000352DDA01C9018C0D9D1DAE1DBF1DBC0198
:100AA0008AEC95E0FF90EF90DF90CF900C94D40407
:100AB0008130910581F41092800082E08093810062
:100AC0001092850010928400B19A80916F0082602C
:100AD00080936F0008958230910569F41092900020
:100AE00082E080939100109295001092940088BB50
:100AF0008093710008958330910569F41092A000ED
:100B000082E08093A1001092A5001092A40089BBFE
:100B1000809372000895892B61F41092200182E085
:100B20008093210110922501109224018ABB8093A9
:100B300073000895AF92BF92CF92DF92EF92FF922F
:100B40000F931F93CF93DF936B017A01EC01C45392
:100B5000DC4F28813CE0389F8001399F100D112423
:100B6000A0909B05B12C27FF1FC0FB0111821082B2
:100B700088818F5F888388819801280F311D87FDC8
:100B80003A95F6012A153B051CF488818C30C4F196
:100B900080819181049680349C4908F473C0F601E9
:100BA00080819181049670C088819801280F311D41
:100BB00087FD3A952A153B05DCF68881A801480F88
:100BC000511D87FD5A95FA01EE0FFF1FE40FF51F27
:100BD000E55FFA4F808186FFCBCF8881F801E80F6F
:100BE000F11D87FDFA95CF01EE0FFF1FE80FF91FEA
:100BF000E55FFA4F808160E08F730E949F02B8CF5B
:100C0000808191812881A801420F511D27FD5A95AD
:100C10009A01FA01EE0FFF1FE20FF31FE55FFA4F93
:100C200021813281820F931FF70191838083888114
:100C30009801280F311D87FD3A95F901EE0FFF1F2E
:100C4000E20FF31FE55FFA4F808186FF22C08881A3
:100C5000080F111D87FD1A95F801EE0FFF1FE00F19
:100C6000F11FE55FFA4F808161E08F73DF91CF91D3
:100C70001F910F91FF90EF90DF90CF90BF90AF90BA
:100C80000C949F0280E49CE9F701918380838FEFAD
:100C90008883DF91CF911F910F91FF90EF90DF90AC
:100CA000CF90BF90AF9008952091A903260F3327CE
:100CB000331F21323105ECF420913704FC0190E020
:100CC00080E0243069F082E00895A091A903219189
:100CD000AC0147575C4FA40FB52FB11D2C93019663
:100CE000861798F38091A903680F6093A90380E0A9
:100CF000089581E008951092370481E080933604CE
:100D00001092110461E084E10E949F0261E085E19C
:100D10000E949F02E9EBF0E080818E7F80838081DA
:100D20008D7F808388E48093B80085E48093BC0045
:100D300008951092F0031092EF0310923E04109267
:100D400060040E947B068EE792E09093EE0380930E
:100D5000ED038FE792E09093EC038093EB0308950B
:100D6000CF93DF9391E0909388038823B9F0C091EB
:100D7000B800D091BA008091BC008A7B8093BC00FF
:100D800060E084E10E949F0260E085E10E949F0292
:100D90000E947B06D093BA00C093B800DF91CF9138
:100DA00008958F929F92AF92BF92CF92DF92EF926F
:100DB000FF920F931F93CF93DF93D0916004D132B2
:100DC00008F0D7C0182FC0915F040E9442036B0146
:100DD0007C018091370481116BC082E080933704DD
:100DE000109336048FEF8093350410923404D0931F
:100DF0003304AFE3B4E0E3E1F4E080E0D81391C062
:100E00001092120480911204CC0FC82BC0931204CC
:100E100080911104813009F088C0109211040E9461
:100E200042036B017C01809112048093BB0080918E
:100E3000390490913A04A0913B04B0913C04892B71
:100E40008A2B8B2BA1F00E94420300913904109150
:100E50003A0420913B0430913C046C197D098E09C1
:100E60009F09061717072807390708F442C0809121
:100E7000BC0083FDD8CF85EC8093BC000E94420368
:100E80006B017C0180913704823009F450C080915D
:100E900035048F3F09F46FC080913504803209F426
:100EA0006CC080913504803309F469C084E026C0A9
:100EB0008091390490913A04A0913B04B0913C0494
:100EC000892B8A2B8B2B09F484CF0E9442038090BC
:100ED000390490903A04A0903B04B0903C046C1903
:100EE0007D098E099F0986169706A806B90608F09F
:100EF00070CF809138040E94B00685E010923E04C5
:100F00001092600410923D04DF91CF911F910F91D8
:100F1000FF90EF90DF90CF90BF90AF909F908F9019
:100F200008959D9191938F5F69CF85EEA5CF8091B4
:100F3000390490913A04A0913B04B0913C04892B70
:100F40008A2B8B2B09F49ECF0E9442030091390417
:100F500010913A0420913B0430913C046C197D09B6
:100F60008E099F09061717072807390708F08ACF47
:100F7000C0CF81E0C3CF80E0C1CF82E0BFCF83E0AC
:100F8000BDCF1F93CF93DF93EA01122FDC0111969F
:100F90008D919C91DC01ED91FC910280F381E02D1B
:100FA0001995C817D90729F4812F0E94D10691E01D
:100FB000811190E0892FDF91CF911F910895CF93F8
:100FC000DF93EC018B818823A1F0888191E09093DD
:100FD0003D0480935F0410923E041092600481E00F
:100FE0000E94D10691E0811190E0892FDF91CF918D
:100FF00008950E94990681E08B83CE010E94DF074D
:10100000982F8111E2CFF1CF8F929F92AF92BF9232
:10101000CF92DF92EF92FF920F931F93CF93DF93C4
:101020006A014801E70191E090933D0480935F04D9
:1010300010923E0410926004E881F9810190F081E1
:10104000E02DC70119958C0C9D1CC814D90459F0CA
:10105000E881F9810190F081E02DD6016D916D015B
:10106000CE011995F2CF81E00E94D10690E080E098
:10107000DF91CF911F910F91FF90EF90DF90CF9074
:10108000BF90AF909F908F900895EF92FF920F9333
:101090001F93CF93DF931F921F92CDB7DEB7FC0152
:1010A000EF5BFE4F70813496E080F1804A83598374
:1010B00002E010E020E030E0AE014F5F5F4F872F8D
:1010C0000E940408892B51F08CEE0F900F90DF9155
:1010D000CF911F910F91FF90EF90089580E0F5CF91
:1010E000EF92FF920F931F93CF93DF931F92CDB791
:1010F000DEB7FC01EF5BFE4F70813496E080F1803B
:10110000498301E010E020E030E0AE014F5F5F4F27
:10111000872F0E940408892B49F08CEE0F90DF91F5
:10112000CF911F910F91FF90EF90089580E0F6CF3F
:101130003F924F925F926F927F928F929F92AF9267
:10114000BF92CF92DF92EF92FF920F931F93CF93B4
:10115000DF93CDB7DEB72C970FB6F894DEBF0FBE86
:10116000CDBF4B0130E020E0312CAE014F5F5F4F2F
:101170003A01FC01EB5BFE4FFE83ED83AC014F5B5C
:101180005E4F58874F83B297FA87E98740525109DB
:101190005C874B872C015BED451A5EEF550A5C01BD
:1011A000E8EDAE1AEEEFBE0AF401E20FF31F008184
:1011B000002309F47CC031107AC069014FEFC41AD2
:1011C000D40AD401AC0DBD1D6C910F3F09F047C08E
:1011D000690152E0C50ED11CD401AC0DBD1D8C912E
:1011E0006130C1F040F0623011F1633061F1ECEF39
:1011F0003E2E9601D9CF690194E0C90ED11C2381FE
:1012000090E0982F8827820F911DEB85FC859183B4
:101210008083EFCF690144E0C40ED11C238190E0AC
:10122000982F8827820F911DE985FA85F0CF6901F3
:1012300044E0C40ED11C238190E0982F8827820FB0
:10124000911DF201E4CF690144E0C40ED11C238159
:1012500090E0982F8827820F911DF501D8CF053097
:1012600030F62E5F3F4FD401A20FB31FF301C02E03
:10127000D12CCF01861997098C159D051CF48D91F1
:101280008193F7CFC20ED31EED81FE81E080F18005
:1012900010E030E020E0A301EF81F88580810E941A
:1012A0000408892B09F4A5CF7CEE372EA2CF832D1D
:1012B0002C960FB6F894DEBF0FBECDBFDF91CF9155
:1012C0001F910F91FF90EF90DF90CF90BF90AF9064
:1012D0009F908F907F906F905F904F903F90089578
:1012E000EF92FF920F931F93AB01FC01EB5BFE4F5C
:1012F000E080F1808F5B9E4F06E010E020E030E060
:1013000060EBFC0180810E940408892B31F08CEE97
:101310001F910F91FF90EF90089580E0F9CF8F9289
:101320009F92AF92BF92CF92DF92EF92FF920F9374
:101330001F93CF93DF93D82FC62F142F613208F05D
:101340009CC00E9442036B017C0180913704811193
:101350006FC081E080933704109336049FEF909321
:101360003504109234049C0F90933304809312043C
:1013700080911204DD0FD82BD093120480911104B8
:10138000813009F07CC0109211040E9442036B016D
:101390007C01809112048093BB008091390490916C
:1013A0003A04A0913B04B0913C04892B8A2B8B2BEF
:1013B000A1F00E9442030091390410913A04209157
:1013C0003B0430913C046C197D098E099F09061776
:1013D00017072807390708F44CC08091BC0083FD2B
:1013E000D8CF85EC8093BC000E9442036B017C0146
:1013F00080913704813009F444C0809134048C1703
:1014000010F4C0913404E3E1F4E0A1EFB3E080E034
:101410008C1359C08C2FDF91CF911F910F91FF90AA
:10142000EF90DF90CF90BF90AF909F908F900895F6
:101430008091390490913A04A0913B04B0913C040E
:10144000892B8A2B8B2B09F480CF0E94420380903A
:10145000390490903A04A0903B04B0903C046C197D
:101460007D098E099F0986169706A806B90608F019
:101470006CCF809138040E94B006C0E0CBCF85EEDF
:10148000B1CF8091390490913A04A0913B04B0917E
:101490003C04892B8A2B8B2B09F4AACF0E94420390
:1014A0000091390410913A0420913B0430913C049E
:1014B0006C197D098E099F09061717072807390738
:1014C00008F096CFD6CF91919D938F5FA1CF0895CD
:1014D000E091F0038091EF03E81730F4F0E0EF5073
:1014E000FC4F808190E008958FEF9FEF08959091D9
:1014F000F0038091EF032FEF3FEF981748F4E92FA7
:10150000F0E0EF50FC4F208130E09F5F9093F003BC
:10151000C90108958091EF039091F003891B990B05
:101520000895CF92DF92EF92FF920F931F93CF9384
:10153000DF937C01CB018A0120913D04222389F0B5
:10154000EB016B01C40ED51ECC15DD0569F0699168
:10155000D701ED91FC910190F081E02DC701199523
:10156000F3CF642F0E945406C801DF91CF911F91E1
:101570000F91FF90EF90DF90CF900895CF93DF937E
:101580001F92CDB7DEB7698320913D042223F9F085
:1015900020916004203258F021E030E0FC013383D8
:1015A000228390E080E00F90DF91CF9108958091A9
:1015B0003E04E82FF0E0E15CFB4F998190838F5F60
:1015C00080933E048093600481E090E0ECCF61E082
:1015D000CE0101960E945406F7CF90E080E0089576
:1015E00067ED75E087EC95E00E94D40464E670E056
:1015F00080E090E00C94670342E050E06DE273E01D
:1016000081E694E00C9499030F931F93CF93DF939B
:101610008C01D0E0C0E0F801EC0FFD1F649166235F
:1016200041F081E694E00E942F04892B11F021966D
:10163000F2CF0E94FC0A8C0F9D1FDF91CF911F916A
:101640000F910895CF93DF93D0E0C0E0009771F041
:10165000FC0101900020E9F73197AF01481B590BBD
:10166000BC0181E694E00E949903EC010E94FC0A0F
:101670008C0F9D1FDF91CF9108951F93CF93DF9320
:1016800000D01F921F92CDB7DEB7182F653B7105B2
:1016900014F064EB70E077FF02C070E060E022ECD1
:1016A00031E0DB010E94EC2D24EB30E040E050E023
:1016B0000E94352DDA01C9018A569F4FAF4FBF4FA7
:1016C000110F110F1A5F19831A821B828C839D835D
:1016D0008091C1059091C205FC012481358125309E
:1016E000310590F0208131E030933D0420935F0478
:1016F00010923E041092600421E045E050E0BE01EB
:101700006F5F7F4F0E94C1070F900F900F900F9057
:101710000F90DF91CF911F910895CF93DF931F9288
:101720001F92CDB7DEB789836A838091C1059091FE
:10173000C205FC01248135812230310590F02081E1
:1017400031E030933D0420935F0410923E041092E8
:10175000600421E042E050E0BE016F5F7F4F0E94D5
:10176000C1070F900F90DF91CF9108958F929F92B4
:10177000AF92BF92DF92EF92FF920F931F93CF939E
:10178000DF93D82EEA01480181E080933D04D09296
:101790005F0410923E0410926004D701ED91FC9119
:1017A0000190F081E02DC701199581E00E94D106DA
:1017B00041E0602F8D2D0E948F091092F0038093DD
:1017C000EF038C0E9D1EC815D90551F0D701ED9180
:1017D000FC910284F385E02DC70119958993F3CF1D
:1017E00090E080E0DF91CF911F910F91FF90EF90FB
:1017F000DF90BF90AF909F908F9008952F923F926F
:101800004F925F926F927F928F929F92AF92BF9210
:10181000CF92DF92EF92FF920F931F93CF93DF93BC
:10182000CDB7DEB72F970FB6F894DEBF0FBECDBF92
:101830009C878B876D875F874E8739011701280149
:101840002F82388649865A8610E000E0EE24E39421
:10185000F12C0A151B0509F461C09E01295F3F4F59
:10186000B201A1018E859F850E94FD014F8158859F
:1018700069857A854F3F2FEF52076207720709F497
:101880009CC0DB01CA018C549F4FAF4FBF4FE6E0B5
:10189000B695A79597958795EA95D1F7880F991FE3
:1018A000880F991F87509D4F21E0FC018081918115
:1018B000A281B381892B8A2B8B2B09F420E0FD8533
:1018C000F2137BC01A012B0133E0569447943794EE
:1018D00027943A95D1F7DB01CA0187709927AA2787
:1018E000BB2726E0221631044104510468F4F301B9
:1018F000E20DF31D970102C0220F331F8A95E2F714
:10190000C9019081892B80831A012B013FEF231A93
:10191000330A430A530A0F5F1F4F9BCFB12CF401C8
:101920002082318242825382B1102DC0B3018B8557
:101930009C850E947009B82E811125C0EB85FC851D
:10194000EB5BFE4FE080F180EB85FC85EF5BFE4FAB
:1019500006E010E020E030E0AE014F5F5F4F60EB4B
:1019600080810E94B60B892B11F09CEEB92EF301F9
:10197000DE011196C301069631912D91321320C0DC
:10198000E817F907C9F78B2D2F960FB6F894DEBF2D
:101990000FBECDBFDF91CF911F910F91FF90EF90C0
:1019A000DF90CF90BF90AF909F908F907F906F907F
:1019B0005F904F903F902F9008952EECB22EAFCFB6
:1019C0008EECB82EE0CFCF92DF92EF92FF920F9382
:1019D0001F93CF93DF9300D01F92CDB7DEB76A017C
:1019E000FC01EB5BFE4FE080F1808F5B9E4F04E0DB
:1019F00010E020E030E0AE014F5F5F4FFC018081DE
:101A00000E94B60B49815A8154274527542770E01C
:101A100060E0762F652F542F44272B81422B762FA1
:101A2000652F542F44272C81422BF601408351838C
:101A300062837383892B71F480E00F900F900F9075
:101A40000F90DF91CF911F910F91FF90EF90DF905A
:101A5000CF9008958CEEF1CFCF92DF92EF92FF926C
:101A60000F931F93CF93DF931F921F92CDB7DEB7D3
:101A70006A01FC01EB5BFE4FE080F1808F5B9E4FC3
:101A800002E010E020E030E0AE014F5F5F4FFC016C
:101A900080810E94B60B29813A8132272327322781
:101AA000F60131832083892B61F480E00F900F9041
:101AB000DF91CF911F910F91FF90EF90DF90CF902A
:101AC00008958CEEF3CF0F931F93CF93DF931F9264
:101AD0001F92CDB7DEB7FC01E253FF4F20812150AA
:101AE0002330B8F48C01AE014F5F5F4F6EE00E946F
:101AF0002C0D811107C0AE014F5F5F4F6CE0C80134
:101B00000E942C0D0F900F90DF91CF911F910F919C
:101B1000089580E0F7CFEF92FF920F931F93CF933A
:101B2000DF931F921F92CDB7DEB78C017A0163302D
:101B3000710509F449C090F46130710509F1623012
:101B40007105E1F1F80181A992A9A3A9B4A9F7014E
:101B500080839183A283B38380E049C0663071059E
:101B600088F7AE014F5F5F4F64E60E942C0D811134
:101B70003EC0298180E0922F990FB0E0A0E0E7CF2E
:101B8000AE014F5F5F4F64E40E942C0D81112FC0A6
:101B9000998120E0392F330FA90170E060E0232BF9
:101BA000D1F0F7014083518362837383F80145AB21
:101BB00056AB67AB70AF91E096A319C0FC0181AD45
:101BC00092ADA3ADB4ADC3CFFC01FD9680819181F0
:101BD000A281B381BCCFF80145A956A967A970AD10
:101BE000F7014083518362837383F80116A20F903B
:101BF0000F90DF91CF911F910F91FF90EF9008957B
:101C00008F929F92AF92BF92CF92DF92EF92FF920C
:101C10000F931F93CF93DF931F921F92CDB7DEB721
:101C2000962ED42E822EFC01EF5BFE4FC0805C010D
:101C30002BEBA21A2EEFB20AF501E080F18001E051
:101C400010E020E030E0AE014E5F5F4F8C2D0E942F
:101C5000B60B892BA9F42A812D2128292A83F50185
:101C6000E080F180298301E010E020E030E0AE0167
:101C70004F5F5F4F692D8C2D0E940408892B81F0E6
:101C80008CEE0F900F90DF91CF911F910F91FF90ED
:101C9000EF90DF90CF90BF90AF909F908F9008957E
:101CA00080E0EFCFEF92FF920F931F93FC01EB5B6D
:101CB000FE4FE080F1808F5B9E4F01E010E020E05E
:101CC00030E0FC0180810E94B60B892B31F08CEE54
:101CD0001F910F91FF90EF90089580E0F9CF9F92B0
:101CE000AF92BF92CF92DF92EF92FF920F931F932A
:101CF000CF93DF931F92CDB7DEB77C015B016A0102
:101D0000922E198241E06FEF0E947008182F40E078
:101D100060E0C7010E947008182B40E06FEFC70118
:101D20000E947008182B992031F0A5016BECC701B7
:101D30000E94520E182B002341F0AE014F5F5F4FFF
:101D40006EEEC7010E94520E182B41E06FEFC701E3
:101D50000E947008182B41E060E0C7010E947008E3
:101D6000182B40E06FEFC7010E94700899819F7E99
:101D7000F6019083812B0F90DF91CF911F910F91EE
:101D8000FF90EF90DF90CF90BF90AF909F9008951D
:101D9000EF92FF920F931F93CF93DF931F92CDB7D4
:101DA000DEB77C0100E041E06BE0C7010E947008F3
:101DB000182F40E06BE0C7010E947008182BAE019D
:101DC0004F5F5F4F63E1C7010E94520E812B0F5F8F
:101DD0009981977061F0033061F0882321F30F90AF
:101DE000DF91CF911F910F91FF90EF9008950330F5
:101DF000B1F784EFF4CF0F931F93CF93DF931F922C
:101E0000CDB7DEB78A01AE014F5F5F4F613081F021
:101E100060E50E94520E811105C099819F5F990F64
:101E2000F80190830F90DF91CF911F910F9108954A
:101E300060E7EFCFCF92DF92EF92FF921F93CF93A5
:101E4000DF931F92CDB7DEB77C0140E063E80E94CC
:101E50007008182F811117C0D12CC12CAE014F5F13
:101E60005F4F63E8C7010E94520E182F89818111CC
:101E70000AC0111108C08FEFC81AD80A88ECC8161A
:101E8000D10461F719EF41E063E8C7010E947008CF
:101E9000812B0F90DF91CF911F91FF90EF90DF90FA
:101EA000CF900895CF92DF92EF92FF920F931F93FE
:101EB000CF93DF931F92CDB7DEB77C0110E000E037
:101EC0006C018EECC80ED11CF6018081AE014F5F13
:101ED0005F4F8430A9F463E1C7010E94520E9981DB
:101EE000292F2770987111F58823D9F00F90DF9171
:101EF000CF911F910F91FF90EF90DF90CF900895B9
:101F000064E1C7010E94520E8111F0CF998190FDCA
:101F1000EDCF0F5F1F4F083C110531F00E94D50136
:101F2000D3CF2430B1F7E2CF89EFE0CF8AEFDECF15
:101F3000CF93DF93EC01462F416060E00E94700870
:101F4000811111C0CE010E94520F81110CC0CE012F
:101F50000E94C80E811107C040E060E0CE01DF9111
:101F6000CF910C947008DF91CF910895CF92DF92BA
:101F7000EF92FF920F931F93CF93DF931F92CDB7F2
:101F8000DEB78C01FC01F08841E060E80E94700837
:101F900041E06FEFC8010E94700840E060E0C801B6
:101FA0000E947008F801E95DFE4F408161E9C801B7
:101FB0000E94700841E060E0C8010E94700840E0A3
:101FC0006FEFC8010E94700840E060E8C8010E94FD
:101FD0007008F1E0FF16F1F1FF1630F093E0F9160A
:101FE00009F44AC088EF0CC041E060E0C8010E94DB
:101FF000700891E09983C12CD12C7601882389F057
:102000000F90DF91CF911F910F91FF90EF90DF9094
:10201000CF900895AE014F5F5F4F60E0C8010E940E
:10202000520EEFEFCE1ADE0AEE0AFE0A998190FFF9
:102030000AC0811108C0F8ECCF16D104E104F10404
:1020400049F789EFDDCF98ECC916D104E104F1041A
:10205000B9F6F7CF811103C0C8010E94630D42E0B9
:1020600060E0C8010E9470088111CACFF801E15EEA
:10207000FE4F94E09083C4CF811103C0C8010E9439
:10208000630D44E0EDCF8F929F92AF92BF92CF92BB
:10209000DF92EF92FF920F931F93CF93DF9300D0C5
:1020A00000D0CDB7DEB76C014C0188EB881A8EEFFB
:1020B000980AD401ED91FC91119783E0808BF60191
:1020C0001082AD90BC90AE014B5F5F4F68EFC501D1
:1020D0000E942C0D811134C02D813E8162E370E09D
:1020E00080E02115310521F0A2E3B0E00E94892DA6
:1020F000F501EF5BFE4F90813496E080F1806C83B8
:102100007B838A83198204E010E020E030E0AE0196
:102110004F5F5F4F64E0892F0E940408892B99F478
:1021200082E390E0A0E0B0E0F501868B978BA08F72
:10213000B18FD6011C92F401808191810E94B60F6B
:10214000D6018C9303C08CEEF601808381E0F6010A
:102150009081911180E026960FB6F894DEBF0FBEF5
:10216000CDBFDF91CF911F910F91FF90EF90DF9046
:10217000CF90BF90AF909F908F9008952F923F92F5
:102180004F925F926F927F928F929F92AF92BF9287
:10219000CF92DF92EF92FF920F931F93CF93DF9333
:1021A000CDB7DEB7C454D1090FB6F894DEBF0FBE69
:1021B000CDBF6C0125967FAF6EAF2597FC01E35E26
:1021C000FE4F40804CAE40EC61E00E9470088111EF
:1021D00024C0D60150961C92C6010E94B60F8111F0
:1021E0001CC0C6010E94520F811117C083E0F60186
:1021F000E15EFE4F8083B696E080F1800CE010E057
:1022000020E030E0AE01465E5F4F64E134978081AC
:102210000E94B60B892BD9F08CEECC5BDF4F0FB64A
:10222000F894DEBF0FBECDBFDF91CF911F910F910C
:10223000FF90EF90DF90CF90BF90AF909F908F90E6
:102240007F906F905F904F903F902F9008956CA17A
:1022500070E0762F66278DA0680D711D29A0312CA6
:10226000322C2224330C2101712C612C4EAA5FAA3E
:1022700068AE79AE8BA190E0982F8827990F2C013A
:10228000712C612C23964CAE5DAE6EAE7FAE239763
:102290008C8D90E0982F88272D8D4C01820E911CFB
:1022A000F601E75CFE4F208131817B971081283E4B
:1022B00043E03407D1F1629FC001639F900D729F8C
:1022C000900D11248C509E4F68EE73E00E94B42D47
:1022D000F601858D968DA78DB0A1228D222329F13F
:1022E000889EA001899E500D989E500D1124452F67
:1022F00055272416350641F460EE7AE8112309F4D7
:10230000AAC168EB72E214C09101DB010E94892D21
:102310004EA85FA868AC79AC441A550A61087108E8
:10232000A30192010E94672DB901112309F493C101
:102330003B0176946794769467947EAE6DAEF62EEC
:10234000F294FF0CFF0CF0ECFF228A8D1FA61EA654
:1023500090E02C0173E0559447947A95E1F75BAED9
:102360004AAE2AAD2F7028AB222309F478C18AAD7A
:102370008D70853009F476C131E039AB822F8C50F5
:10238000843008F019AA41E06FEFC6010E9470087E
:10239000811107C0AE01425D5F4F66EBC6010E942E
:1023A0002C0D9EA520E0392F330F2901712C612CB3
:1023B0004AAA5BAA6CAA7DAA811105C040E06FEF12
:1023C000C6010E947008F601EE5CFE4F4AA85BA8A9
:1023D0006CA87DA84082518262827382811171C192
:1023E000D6019596BC909597BB2009F44AC15D969D
:1023F0002D913D914D915C9190975A968C918823A7
:1024000009F433C1D4010E94542D9B01AC01205822
:102410003F4F4F4F5F4F232F342F452F55274EA847
:102420005FA868AC79AC240D351D461D571DA8EE7C
:10243000B3E00E94542D70588F4F9F4FBC018827E6
:102440009927F601E65DFE4F672B682B692B09F093
:1024500010C18EEA97E8AFE8B2E080839183A2834F
:10246000B3833EEA432E37E8532E3FE8632E32E033
:10247000732EAE01465D5F4F70E060E0C6010E94C2
:102480008B0D4AA55BA56CA57DA541155105610580
:10249000710531F001E0441555056605770508F032
:1024A00000E0E12CA12C811110C1D6019796AC90CF
:1024B000AA2009F4E8C0AE014A5D5F4F62E070E017
:1024C000C6010E948B0D4EA15FA168A579A541159B
:1024D00051056105710551F011E04AA85BA86CA88F
:1024E0007DA8441555056605770508F010E0E12C38
:1024F00090E0811135C0D6019896EC90EE2009F459
:10250000C4C0412C512C32018114910471F0B101ED
:1025100090E080E0982F872F762F6627940150E077
:1025200040E00E94672D29013A01AE014F5F5F4FE5
:1025300063E070E0C6010E948B0D49815A816B8176
:102540007C81411551056105710531F091E044161A
:1025500055066606770608F090E0882309F496C0D1
:1025600080E0B11001C001E0D60196963C919697AB
:102570009B960C93B8A9B43009F4C8C021E031117E
:1025800020E0F60124A7A11001C011E0D6019D961C
:102590001C93E11001C091E0F60196A799E1960124
:1025A000265B3F4FF901DE01119601900D929A953D
:1025B000E1F71D821E821F8218864DAC5EAC5A86E2
:1025C00049861C861B864EA85FA868AC79AC4D86F0
:1025D0005E866F86788A23964CAC5DAC6EAC7FAC21
:1025E0002397498A5A8A6B8A7C8A9E8A8D8AF88EBA
:1025F000898F89E1FE013196D90101900D928A956A
:10260000E1F7C6010E94C80E811107CE41E06FEFCD
:10261000C6010E947008811100CE25964EAD5FADB7
:10262000259766EBC6010E942C0D8111F6CD40E086
:102630006FEFC6010E9470088111EFCD4CAD61E0D3
:10264000C6010E9470088111E8CDF601E35EFE4FDD
:102650005CAC5082E2CD7EAF6DAFF12C76CE41E026
:1026600049AB91CE51E059AB8ECE20E030E0A901CC
:10267000D6CE1082118212821382412C512C32014B
:10268000F8CE00E012CF10E036CF90E0B9A9B1301B
:10269000F9F088A981508330E8F0E8A9E630F1F03C
:1026A000E930E1F08AAD8D708830B1F01130A1F0E1
:1026B000E43021F19130E9F00130E9F0902F102F52
:1026C0004FCFE12CB12CA12C00E090E010E048CFDE
:1026D0008FEF47CF85E045CF83E043CF84E0B11053
:1026E00043CFD60196963C91969721E09B962C93EA
:1026F00045CF82E0F4CF192F81E0F1CF82E0B11015
:1027000033CF81E0F60183A710E082E021E039CFEA
:102710000F931F93CF93DF931F92CDB7DEB78B013B
:102720001982AE014F5F5F4F61E00E94520E81112E
:1027300016C0998194FB332730F9F801308393FB5D
:10274000332730F9328392FB332730F9318396FBFC
:10275000222720F92383991F9927991F94830F908B
:10276000DF91CF911F910F9108952F923F924F9239
:102770005F926F927F928F929F92AF92BF92CF9211
:10278000DF92EF92FF921F93CF93DF9300D000D0A0
:1027900000D01F921F92CDB7DEB76C011A011B86C5
:1027A0001F821E82623009F06EC0AE01465F5F4F2D
:1027B00060E00E94FB0E182F811108C0AE01455F3A
:1027C0005F4F66E4C6010E94520E182FAA85B0E042
:1027D00020E03FE24AE350E00E94542D2B013C01EF
:1027E00024EF420E21E0521E611C711CCB84D12CBF
:1027F000F12CE12C8FEFC81AD80AE80AF80A98EEF3
:10280000892E93E0992EA12CB12CC301B201A50110
:1028100094010E94672DCA01B901A70196010E9487
:10282000982D6B017C01C301B20120ED37E040E03F
:1028300050E00E94672DC701B601620F731F841F0D
:10284000951FA50194010E94672DF101208331831A
:1028500042835383812F2B960FB6F894DEBF0FBEB1
:10286000CDBFDF91CF911F91FF90EF90DF90CF9080
:10287000BF90AF909F908F907F906F905F904F90A0
:102880003F902F900895633009F043C0AE01465F3A
:102890005F4F60E00E94FB0E182F20E030E0A9019E
:1028A0008111D3CFAE01465F5F4F60E0C6010E9449
:1028B000FB0E182F811108C0AE014A5F5F4F61E522
:1028C000C6010E942C0D182FEE81FF81AA85B0E071
:1028D00020E03FE24AE350E00E94542D2B013C01EE
:1028E00024EF420E21E0521E611C711C6F01DD2499
:1028F000F12CE12C04C0CC0CDD1CEE1CFF1CFA9565
:10290000D2F78FEFC81AD80AE80AF80AEE24FF2493
:1029100076CFBE016F5F7F4F0E9488138C81882322
:1029200051F1AE01465F5F4F60E0C6010E94FB0EB1
:10293000182FF12CE12C81111BC0AE014A5F5F4FB3
:1029400061E5C6010E942C0D182F2E813F81C9011F
:102950009927B0E0A0E004C0880F991FAA1FBB1FF1
:102960003A95D2F70196A11DB11D7C01112329F0E2
:10297000D12CC12C25C0F12CE12CAE01465F5F4F5C
:1029800061E0C6010E94FB0E182F8111F1CFAE014C
:10299000485F5F4F61E7C6010E942C0D182F288504
:1029A0003985C9019927B0E0A0E004C0880F991FBC
:1029B000AA1FBB1F3A95D2F70196A11DB11D6C014C
:1029C000AA85B0E020E03FE24AE350E00E94542DA7
:1029D0002B013C01E4EF4E0EE1E05E1E611C711C18
:1029E00088EE882E83E0982EA12CB12CC301B20171
:1029F000A50194010E94672DD601AE19BF090E945E
:102A0000542D0FCF4F925F926F927F92BF92CF92D1
:102A1000DF92EF92FF920F931F93CF93DF9300D03B
:102A20001F92CDB7DEB78A01AE014F5F5F4F0E94A4
:102A3000B513B82E81112AC069817A818B819C815E
:102A400028EE422E23E0522E612C712CA30192011C
:102A50000E94672D69017A019B01AC01AFEFBFEFC6
:102A60000E94542D6C507E4F8F4F9F4FA3019201B7
:102A70000E94672D7601DD24CC24C20ED31EE41EF5
:102A8000F51EF801C082D182E282F3828B2D0F9075
:102A90000F900F900F90DF91CF911F910F91FF90AA
:102AA000EF90DF90CF90BF907F906F905F904F90AE
:102AB00008955F926F927F928F929F92AF92BF9292
:102AC000CF92DF92EF92FF920F931F93CF93DF93FA
:102AD000CDB7DEB761970FB6F894DEBF0FBECDBF9E
:102AE0007C018B01FC018089FB018083AE014A5F80
:102AF0005F4F68EFC7010E942C0D582E81113AC11B
:102B0000AE014F5F5F4F64E0C7010E94E30C582E97
:102B1000811130C12E813F812115310569F050E0CE
:102B200040E069817A818B819C810E94672DF80148
:102B30002683378340875187F80186819781A08556
:102B4000B185F701868B978BA08FB18FF801128624
:102B5000AE014F5F5F4F60E2C7010E942C0D582EFF
:102B6000811108C189819A81009709F01AC1F70182
:102B7000858D968DA78DB0A1F80185879687A7874B
:102B8000B08BF701128EAE014F5F5F4F68E2C70155
:102B90000E942C0D582E8111EDC089819A819F7061
:102BA0008115F8E09F0708F090514AEF489F900187
:102BB000499F300D1124C901330FAA0BBB0BF8013B
:102BC000818B928BA38BB48B5801F1E2AF0EB11CB9
:102BD000470125E2820E911C380185E1680E711CC7
:102BE000D12CC12CA501B601C7010E948B0D582E16
:102BF0008111C0C0F40181914F01F30181933F0124
:102C0000FFEFCF1ADF0A24E0A20EB11C86E0C8163F
:102C1000D10441F7AE014F5F5F4F61E0C7010E94F1
:102C2000520E582E8111A6C08981F701E35EFE4F36
:102C3000808387FFCAC081E0F80181AFF80181ADD0
:102C4000F701E75BFF4F808380ED97E0A0E0B0E005
:102C50008A879B87AC87BD871E821F82188619864C
:102C600086E39BE0A0E0B0E0F80182839383A48335
:102C7000B583BE016F5F7F4FC7010E948813582E36
:102C8000811178C08981811107C08A81811104C0B6
:102C90008B81882309F43EC0AE01465F5F4F62E03E
:102CA000C7010E94B5138111C1C089818823A9F091
:102CB0008A859B85AC85BD85825B9D4FAF4FBF4F9D
:102CC000F8014281538164817581840F951FA61F8D
:102CD000B71F82839383A483B5838B81882309F4F0
:102CE00077C08A859B85AC85BD858E549D4FAF4F3F
:102CF000BF4F880F991FAA1FBB1FF8014281538144
:102D000064817581840F951FA61FB71F82839383EB
:102D1000A483B5838C81811168C08D81882301F1E2
:102D2000AE01425F5F4F64E0C7010E94B5138E841D
:102D30009F84A888B988F6E28F0EF2E09F1EA11C3E
:102D4000B11CF8014281538164817581480D591D80
:102D50006A1D7B1D4283538364837583811166C022
:102D6000F80182819381A481B581F701828B938BD5
:102D7000A48BB58B852D61960FB6F894DEBF0FBE80
:102D8000CDBFDF91CF911F910F91FF90EF90DF901A
:102D9000CF90BF90AF909F908F907F906F905F90FB
:102DA000089533E0880F991F3A95E1F7B0E0A0E06D
:102DB000F80185879687A787B08BF701858F968F57
:102DC000A78FB0A381E0828FDECEF80111AE36CF9F
:102DD0008A81882309F49ECF8A859B85AC85BD8531
:102DE0008C569D4FAF4FBF4F88CFAE014A5F5F4FAC
:102DF00063E0C7010E94B5138E809F80A884B984C8
:102E0000F4E98F0EF2E09F1EA11CB11CF801428173
:102E1000538164817581480D591D6A1D7B1D428354
:102E2000538364837583882309F477CF582EA2CF08
:102E30008F929F92AF92BF92CF92DF92EF92FF92CA
:102E40000F931F93CF93DF931F92CDB7DEB76B0124
:102E50007C0120E030E040E85FE30E94602E87FDC7
:102E600097C020E030EC4AE555E4C701B6010E9466
:102E7000B82F18160CF493C06091C3057091C40567
:102E80008091C5059091C6050E94062F4B015C01FB
:102E900020E030E040E855E4C701B6010E94BD2FB4
:102EA0009B01AC01C501B4010E94652E20E030E019
:102EB00040E05FE30E94F42D20E030E040E85FE373
:102EC0000E94F32D6B017C0120E030E040E450E4EF
:102ED0000E94602E87FD6BC020E030E04FE753E496
:102EE000C701B6010E94B82F18160CF466C0C701BE
:102EF000B6010E94D72EB62E19820091C1051091FD
:102F0000C205D80114968D919C911597892B09F4CF
:102F10005EC08C9191E090933D0480935F04109289
:102F20003E041092600420E041E050E0BE016F5F7B
:102F30007F4FC8010E94C107882309F448C0F801E7
:102F4000E480F58061E0E114F10409F460E0C62E4C
:102F5000D12C462FD8018C910E948F091092F0033A
:102F60008093EF038C151D0491F590E080E08C15A3
:102F70009D0550F5F80181819281DC01ED91FC9174
:102F80000284F385E02D1995898381E090E0EFCFED
:102F9000C12CD12C30E8E32E3FE3F32E6DCFC12CB2
:102FA00020ECD22E2AE5E22E25E4F22E65CFC12CAC
:102FB000D12C90E4E92EFE2C9ACFC12CD12C8FE796
:102FC000E82E83E4F82E93CFEF2809F4B8CF1981C7
:102FD000612F6F76606180E00E948D0B6B2D8EEF0C
:102FE0000E948D0B612F80E00E948D0B65E070E0E8
:102FF00080E090E00E946703612F606A80E00E9499
:103000008D0B0F90DF91CF911F910F91FF90EF905B
:10301000DF90CF90BF90AF909F908F9008952F92A8
:103020003F924F925F926F927F928F929F92AF9258
:10303000BF92CF92DF92EF92FF920F931F93CF93A5
:10304000DF93CDB7DEB769970FB6F894DEBF0FBE3A
:10305000CDBF00ED17E020E030E00B871C872D8707
:103060003E871F86188A198A1A8A40322EE4520730
:1030700061057105E0F45CEFB52E8B2D69960FB6F6
:10308000F894DEBF0FBECDBFDF91CF911F910F919E
:10309000FF90EF90DF90CF90BF90AF909F908F9078
:1030A0007F906F905F904F903F902F9008954E8B40
:1030B0005F8B688F798F8C01BE016A5F7F4F0E94A2
:1030C0008813B82E8111D9CFCE88DF88E88CF98C8F
:1030D00088EEC81A88E0D80AE108F1088E818111CB
:1030E00006C08F81811103C088858823C1F1AE019C
:1030F000455F5F4F62E0C8010E94B51381110AC1AC
:103100008E81882391F08B859C85AD85BE85825B01
:103110009D4FAF4FBF4F8C159D05AE05BF0508F005
:10312000AACFC81AD90AEA0AFB0A8885882309F4B3
:1031300071C08B859C85AD85BE858E549D4FAF4FEC
:10314000BF4F880F991FAA1FBB1F8C159D05AE0589
:10315000BF0508F090CFC81AD90AEA0AFB0A898588
:103160008823D9F0AE01415F5F4F63E0C8010E9440
:10317000B5134F85588969897A894C565D4F6F4FD1
:103180007F4F4C155D056E057F0508F074CF8111EA
:10319000C1C0C41AD50AE60AF70A8A85882309F449
:1031A0006CCFBE016F5F7F4FC8010E9488138C8176
:1031B0008823E9F1AE014B5E5F4F60E0C8010E94D9
:1031C000FB0EB82E81111CC0AE014D5E5F4F61E554
:1031D000C8010E942C0DB82E8B899C891C013324B8
:1031E000512C412C04C0220C331C441C551C9A95B4
:1031F000D2F79FEF291A390A490A590ABB20C9F0A8
:103200008E899F89A88DB98DF801828B938BA48BB1
:10321000B58B33CF8F81882309F4A1CF8B859C8513
:10322000AD85BE858C569D4FAF4FBF4F8ECF312C95
:10323000212CAE014B5E5F4F61E0C8010E94FB0E86
:10324000B82E8111DDCFA6E2CA1AA2E0DA0AE1089F
:10325000F108AD89B0E020E03FE24AE350E00E948F
:10326000542D4B015C01B4EF8B0EB1E09B1EA11CF1
:10327000B11CA8EEB3E0A70196010E94542D2B01CA
:103280003C01C501B40120ED37E040E050E00E9470
:10329000672D420E531E641E751EC501B40128EE33
:1032A00033E040E050E00E94672DC301B2010E946C
:1032B000672D220E331E21143104E1F04101B12C9F
:1032C000A12CE1E08E1A9108A108B10890E080E0FD
:1032D000B501A4014427452B462B472B31F0B6946A
:1032E000A794979487940196F3CF982F88271C0171
:1032F000280C391CA10161E7C8010E944508B82EBD
:1033000081117ECFF801E153FF4FC082D182E2826A
:10331000F38276CFB82EB1CE7F928F929F92AF92EA
:10332000BF92CF92DF92EF92FF920F931F93CF93B2
:10333000DF931F92CDB7DEB77C015B016A01722E6D
:103340004C0183EE881A8EEF980AF40110811982DD
:1033500041E061E0C7010E94700881114AC060E449
:10336000C7010E94980F811144C0F1E07F121AC07A
:1033700000E021E0AE014F5F5F4FB501C7010E9441
:103380006F0E882389F00F90DF91CF911F910F91DD
:10339000FF90EF90DF90CF90BF90AF909F908F9075
:1033A0007F900895F501108242E061E0C7010E941C
:1033B0007008811124C060E0C7010E94980F81113C
:1033C0001EC0F1E07F1218C001E020E0A601BE019E
:1033D0006F5F7F4FC7010E946F0E8111D4CF412FC5
:1033E00061E0C7010E9470088111CDCFF401108304
:1033F000CACFF5011082C7CFF6011082F0CFF601D7
:10340000F9CF2F923F924F925F926F927F928F925D
:103410009F92AF92BF92CF92DF92EF92FF920F9363
:103420001F93CF93DF93CDB7DEB7AC970FB6F89469
:10343000DEBF0FBECDBF1C017FA36EA359A748A757
:103440001F82188619861A861B861C861D861E8674
:10345000198A1A8AFC01E85DFE4F20813181398F7B
:10346000288FAC014F5E5E4F5B8F4A8FDA011C9252
:103470002C01BEEE4B1ABEEF5B0AF20110823C013A
:10348000FDEE6F1AFEEF7F0AD3011C92FC01EC5E89
:10349000FE4F1082319610823196108241E06FEF1C
:1034A0000E9470088B8B81111DC140E06FE4C10147
:1034B0000E9470088B8B811115C14CE26EE4C10132
:1034C0000E9470088B8B81110DC140E06FEFC1012C
:1034D0000E9470088B8B811105C144EB66EBC10122
:1034E0000E9470088B8B8111FDC040E060E8C10133
:1034F0000E9470088B8B8111F5C020E0AE014E5EFA
:103500005F4FBE016F5E7F4FC1010E948C198B8B94
:103510008111E8C01F82188619861A86F101E95EBA
:10352000FE4FFD8FEC8F9E01295F3F4F4901A3E0C5
:10353000AA2EB12CC12CD12CE12CF12C87012A8D83
:103540003B8DAF0160E0C1010E94FE0B8B8B8111AE
:10355000C9C04F81588569857A854C8B5D8B6E8B90
:103560007F8BBE01615F7F4FC1010E94BE108B8BBC
:103570008111B8C08F859889688D798D6817790712
:1035800008F0D3C0AA8DBB8D1C92F2011082D3012A
:103590001C923296108231961082319610828C895C
:1035A0009D89AE89BF898C549F4FAF4FBF4FE6E0D6
:1035B000B695A79597958795EA95D1F7880F991FA6
:1035C000880F991F87509D4FFC0180819181A281B6
:1035D000B381892B8A2B8B2B91F42C893D894E89C1
:1035E0005F892C3231054105510548F42F5F3F4F6B
:1035F0004F4F5F4F2C8B3D8B4E8B5F8BD0CFAE01EF
:10360000495F5F4F4A0173E0A72EB12CC12CD12C2A
:10361000EC88FD880E891F892A8D3B8D4C8D5D8D30
:1036200061E0C1010E94FE0B811159C16F81788553
:1036300089859A856C8B7D8B8E8B9F8BBE01615F9C
:103640007F4FC1010E94BE10811149C18F859889A9
:10365000A88DB98D11E063E0462E512C612C712CA0
:10366000A817B90720F010E0412C512C3201C12CD1
:10367000D12C7601C39460C0D501C4010196A11D6F
:10368000B11D8C8B9D8BAE8BBF8B86E0EAA5FBA515
:10369000ACA5B02F01900D928A95E1F74E8C5F8C0E
:1036A00068A079A04AA35BA36CA37DA36FC04E8CD6
:1036B0005F8C68A079A0AEA1BFA14D925D926D9282
:1036C0007C921397E8A5F9A51083F101EC5FFE4FFA
:1036D00081E0808332978C918083A8A5B9A58C91D5
:1036E000319680838B89AC960FB6F894DEBF0FBEFF
:1036F000CDBFDF91CF911F910F91FF90EF90DF90A1
:10370000CF90BF90AF909F908F907F906F905F9081
:103710004F903F902F900895BEECBB8BE3CFEEEC23
:10372000EB8BE0CFFEECFB8BDDCF10E0412C512C7E
:103730003201C12CD12C76018F859889288D398D45
:103740008217930708F0B7CF46E0EA8DFB8D9E0104
:103750002F5F3F4FD90101900D924A95E1F7E88D17
:10376000F98D8E1B9F0BAC0170E060E04AA35BA358
:103770006CA37DA353E0452E512C612C712CB1011B
:103780006F5E7E4F7BA76AA72CA7032F9E01255F44
:103790003F4F4C895D896E897F898C8D9D8D0E94FC
:1037A000FD018B849C84AD84BE847FEF87169706D1
:1037B000A706B70609F4B0CFD301C2010196A11D37
:1037C000B11D8E8F9F8FA8A3B9A3D501C4018C54BE
:1037D0009F4FAF4FBF4F36E0B695A795979587950A
:1037E0003A95D1F7880F991F880F991F87509D4FE1
:1037F00011E0FC0180819181A281B381892B8A2B08
:103800008B2B09F410E0812F90E0B0E0A0E08C1544
:103810009D05AE05BF0509F082CFD501C40123E0A7
:10382000B695A795979587952A95D1F7B501A401E7
:10383000477055276627772786309105A105B10582
:1038400008F070CFEA8DFB8DE80FF91F21E030E022
:1038500001C0220F4A95EAF78081822B80836A8D0E
:103860007B8DC1010E947009811139C0BE01615F69
:103870007F4FC1010E94BE10811131C08F85988990
:10388000288D398DAC01421B530B8217930711F41D
:1038900050E040E070E060E0A88DB98DA817B9074E
:1038A00008F0EACE8AA19BA1ACA1BDA1841795071F
:1038B000A607B70708F0FBCEBE016F5F7F4FC101BF
:1038C0000E94700996E0FE013196D101AF5EBE4FB5
:1038D00001900D929A95E1F7882309F4ECCE8B8B39
:1038E00001CF9F92AF92BF92CF92DF92EF92FF9261
:1038F0000F931F93CF93DF93CDB7DEB7A0970FB68B
:10390000F894DEBF0FBECDBF6C012FEDC20ED11CEF
:10391000F601A080F7E0F12CAF1609F4EEC0B62E48
:103920008C0141E060E80E947008F82E41E06FEFE2
:10393000C8010E947008F82A40E060E0C8010E94B7
:103940007008F82A46E06FEFC8010E947008F82A54
:10395000AE01425E5F4F63E8C8010E94520EF82A32
:103960004E8D446063E8C8010E947008F82A47E061
:103970006FEFC8010E947008F82A41E061E8C801B1
:103980000E947008F82A0E94D501F82A41E060E8F8
:10399000C8010E947008F82A21E0B212C1C0A0FC40
:1039A00002C24BE664E9C8010E947008E82EC80113
:1039B0000E941A0F8E29F82AAE01465E5F4F60E919
:1039C000C8010E94E30CF82A8A8D9B8DAC8DBD8DB9
:1039D000992EE89497F897FBEE24E0F844E264E926
:1039E000C8010E947008F82AC8010E941A0FF82A1C
:1039F000AE01465E5F4F60E9C8010E94E30CF82A01
:103A00008A8D9B8D2C8D3D8D3C8B2D8B9E8B8F8B32
:103A100045E264E9C8010E947008F82AC8010E94C2
:103A20001A0FF82AAE01465E5F4F60E9C8010E9496
:103A3000E30CF82A8C8D9D8D988F898F40E061E88A
:103A4000C8010E947008F82A46E06FEFC8010E9482
:103A50007008F82AAE01425E5F4F63E8C8010E9419
:103A6000520EF82A4E8D4B7F63E8C8010E94700801
:103A7000F82A41E06FEFC8010E947008F82A41E07F
:103A800060E0C8010E947008F82A40E06FEFC801AA
:103A90000E947008F82A40E060E8C8010E9470089F
:103AA000F82A59F5F1E0BF1699F0A1FC23C0F801FE
:103AB000E052FF4F8F8D8083319688A18083BE01B5
:103AC0006F5F7F4FC8018E519F4F0E944F3112C0D0
:103AD000A0FC10C0F801EE5FFE4F90823196E082AC
:103AE000DE0154967496035E1E4F8D9181930E17DE
:103AF0001F07D9F7BA28F601B0828F2DA0960FB60E
:103B0000F894DEBF0FBECDBFDF91CF911F910F9113
:103B1000FF90EF90DF90CF90BF90AF909F9008956F
:103B2000A1FC41C142E064E9C8010E947008E82E8E
:103B3000C8010E941A0F8E29F82AAE01415E5F4F1C
:103B400060E9C8010E94520EF82A4BE764E9C801F7
:103B50000E947008F82AC8010E941A0FF82AAE01C4
:103B6000405E5F4F60E9C8010E94520EF82A47E7A5
:103B700064E9C8010E947008F82AC8010E941A0F5F
:103B8000F82AAE01465E5F4F60E9C8010E94E30C6F
:103B9000F82A4A8D5B8D6C8D7D8DDB01CA0129E190
:103BA000B695A795979587952A95D1F78983DB01D7
:103BB000CA0132E1B695A795979587953A95D1F7C1
:103BC0008F778A83DB01CA01EBE0B695A7959795BD
:103BD0008795EA95D1F78F778B83DB01CA01F4E0F3
:103BE000B695A79597958795FA95D1F78F778C839A
:103BF000440F440F440F48774E8F48E764E9C801EB
:103C00000E947008F82AC8010E941A0FF82AAE0113
:103C1000465E5F4F60E9C8010E94E30CF82A8A8D76
:103C20009B8DAC8DBD8DAC01BD012DE17695679569
:103C3000579547952A95D1F72E8D240F2D83AC01EA
:103C4000BD0136E176956795579547953A95D1F739
:103C50004F774E83AC01BD01EFE0769567955795A0
:103C60004795EA95D1F74F774F83292F2F772887EC
:103C7000AC01BD0176956795579547954F77498774
:103C8000982F9295990F990F90749E8F49E764E948
:103C9000C8010E947008F82AC8010E941A0FF82A69
:103CA000AE01465E5F4F60E9C8010E94E30CF82A4E
:103CB0008A8D9B8DAC8DBD8DAC01BD012AE17695C1
:103CC0006795579547952A95D1F72E8D240F2A870A
:103CD000AC01BD0133E176956795579547953A95C7
:103CE000D1F74F774B87AC01BD01ECE07695679536
:103CF00057954795EA95D1F74F774C87AC01BD01B1
:103D0000F5E07695679557954795FA95D1F74F77F2
:103D10004D87982F990F990F9C779E8F4AE764E9FA
:103D2000C8010E947008F82AC8010E941A0FF82AD8
:103D3000AE01465E5F4F60E9C8010E94E30CF82ABD
:103D40008A8D9B8DAC8DBD8DAC01BD012EE176952C
:103D50006795579547952A95D1F72E8D240F2E8775
:103D6000AC01BD0137E176956795579547953A9532
:103D7000D1F74F774F872A2F2F77288BAC01BD01C2
:103D8000E9E07695679557954795EA95D1F74F778E
:103D9000498BF2E0B695A79597958795FA95D1F757
:103DA0008F778A8B1B8AE12C912C48CE2F923F92E1
:103DB0004F925F926F927F928F929F92AF92BF923B
:103DC000CF92DF92EF92FF920F931F93CF93DF93E7
:103DD000CDB7DEB7C954D1090FB6F894DEBF0FBE18
:103DE000CDBF3C01B62E1C0188EB281A8EEF380A95
:103DF000D101ED91FC911197EF5BFE4F89E2808339
:103E0000ED91FC911197EE5BFE4F81E08083ED9187
:103E1000FC911197ED5BFE4F80E991E091838083E7
:103E2000ED91FC91EB5BFE4F8FEF94E091838083EB
:103E30000E9499062301BFEF4B1A5B0A21E04EEF67
:103E400069E8C2010E94000E811105C040E068E8E7
:103E5000C2010E947008AE01455C5F4F60ECC20178
:103E60000E94520EF301E052FF4F108288EE93E061
:103E7000E65AFF4F9183808380E991E032969183E7
:103E8000808385E89BE6A1E0B0E032968083918351
:103E9000A283B38384EA90E7A9E0B0E0E557F10993
:103EA00080839183A283B383F301168E178E10A2B1
:103EB00011A2BE016F5F7F4FC2010E945915082FEA
:103EC00081110BC019821A828AE3FE013196D30157
:103ED000519601900D928A95E1F784E690E0F30106
:103EE000EE5DFE4F9183808384E893E03296918368
:103EF000808384EF91E032969183808380E09AE022
:103F000033969183808381E07096808341E060E8FE
:103F1000C2010E947008182F41E06FEFC2010E9499
:103F20007008182B102B40E060E0C2010E9470085E
:103F3000182BAE01415C5F4F61E9C2010E94520E35
:103F4000182B8FADF301E85DFE4F808341E060E008
:103F5000C2010E947008182B40E06FEFC2010E945E
:103F60007008182B40E060E8C2010E947008912F91
:103F7000982B730110E000E0AA24A3946301F4E0FD
:103F8000CF0ED11C9111ABC10330110509F491C0C2
:103F90007CF401301105D1F00230110509F485C01F
:103FA000D3019696AC92D7019696AC9280E020C051
:103FB0000430110509F480C020E04FEE05301105F2
:103FC00079F760E6C2010E94000E10C0F60142A916
:103FD00053A964A975A9E9E0769567955795479522
:103FE000EA95D1F764E4C2010E9445088823D9F21A
:103FF0000F5F1F4FBFEFEB1AFB0A982F063011051A
:1040000009F0C0CF811169C0F30110A611A622E00A
:104010004EEF60E6C2010E94000E81115EC0D30126
:104020009A961C9220E14FEE60E6C2010E94000EBB
:10403000811153C0F30113A686A1811140C080E015
:1040400090E0A2E1B0E082AB93ABA4ABB5ABD301FF
:1040500097968C91811138C080E090E4A0E0B0E0A8
:10406000F30186AB97ABA0AFB1AF80E090E0A3E2E5
:10407000B0E082AF93AFA4AFB5AFFE9610821182CD
:10408000128213828FEFE052FF4F80834FEF61E087
:10409000C2010E94700891E0F301E05EFE4F908340
:1040A00081111BC07B97108218C0D3019896AC92E7
:1040B0007ACFF301A1A677CF20E04EEF82CF80E048
:1040C00090E0A2E1B0E0BFCF40E250E064E4C20182
:1040D0000E944508882309F4BFCFD3018C934B2D50
:1040E0006AE8F101808191810E947008D3018C936C
:1040F0006AE070E080E090E00E946703F301808155
:10410000811191C1D101ED91FC91EF5BFE4FB08225
:1041100062E0C2010E94711C811135C08301065BFF
:104120001E4FC30186579E4FF301EF51FF4F208171
:104130002111D7C06FE273E00E944F3160E373E05A
:10414000C8010E944F3169E673E0C80180960E9461
:104150004F31A30146555E4F60ECC2010E94520EE2
:10416000811111C0AE014F5F5F4F62ECC2010E942E
:10417000520E91E0F301E555FE4F908331969981FF
:1041800092959F709083D3018C9381110DC0F301A0
:10419000E555FE4F8081813021F431968081813058
:1041A00019F08BEFF3018083D3018C918111CCC086
:1041B000F1014080518025961FAE1EAE25972896AE
:1041C0001FAE289727961FAE279723961CAE1DAECD
:1041D0001EAE1FAE239761E0C2010E94711CF20166
:1041E000ED5FFE4F808129968FAF2997823008F0CE
:1041F0009DC0319790812A969FAF2A97A92EB12C06
:10420000D12CC12C813009F08AC0A1E2AA16B104D8
:10421000C104D10408F08AC041E06FEFC2010E94DE
:10422000700881111AC040E06FE4C2010E9470085A
:10423000811113C04CE26EE4C2010E94700881112A
:104240000CC040E06FEFC2010E947008811105C0F0
:1042500044EB66EBC2010E94700892012F5E3E4F54
:10426000F9011082319610823196108231961082B7
:1042700031961082319610822996FFAD2997E12C54
:10428000F12C8701FF2309F4E9C0D801C7018C5440
:104290009F4FAF4FBF4F46E0B695A795979587952F
:1042A0004A95D1F7880F991F880F991F87509D4F06
:1042B000FC0180819181A281B381892B8A2B8B2B78
:1042C00009F0CCC0FCE2EF16F1040105110509F478
:1042D000C5C08FEFE81AF80A0F4F1F4FD6CF892FAE
:1042E000FCCEF301EE51FF4FF080B3016D517F4FD3
:1042F0000E944F31FF2009F421CFB2E2BF1540F0F8
:10430000E0E26CE373E0FE121BCF68E473E018CFC9
:10431000F6E264E573E0FF1508F412CFF6CFBDE0D6
:10432000AB16B104C104D10408F476CFAE014A5BE8
:104330005F4FBE01615C7F4FC2010E94011A88235A
:1043400009F4A9C0F3018083D3018C9181110DC0C0
:10435000AE014D5B5F4FBE016F5F7F4FF10180810A
:1043600091810E94011AD3018C93F3018081811104
:104370000EC021E0AE01455C5F4FBE01615C7F4F26
:10438000D1018D919C910E948C19F3018083D301FE
:104390008C91811106C0D101ED91FC91108AF3013D
:1043A0001082D3018C9181113AC0D101ED91FC9121
:1043B0001197FF24F394F5A2F30110820D911C9143
:1043C000D801D5964D915D916D917C91D89789E0FA
:1043D00076956795579547958A95D1F764E4C80116
:1043E0000E944508811102C0F801F6A2D3018C9306
:1043F000811115C0D101ED91FC91119781E080A749
:10440000F3011082ED91FC91FD9684ED98E0A0E01F
:10441000B0E080839183A283B383D3011C9281E0B7
:10442000F3019081911180E0C75BDF4F0FB6F894E4
:10443000DEBF0FBECDBFDF91CF911F910F91FF90D7
:10444000EF90DF90CF90BF90AF909F908F907F9034
:104450006F905F904F903F902F900895DE011196DE
:104460004D01A201495E5E4F29966FAD2997C201A9
:104470000E94FE0B811163CF81E0F201EC5FFE4FE1
:10448000808332972A96BFAD2A97B08331962996BA
:104490008FAD29978083F201E85CFE4F808160E058
:1044A00072E0811103C0329760817181C2010E9464
:1044B0009808811147CF44E06AE0C2010E94700869
:1044C000811140CF20E04FEE64E8C2010E94000E4F
:1044D000811138CF84E0F201E253FF4F8083C201A3
:1044E0000E94C80E81112ECF41E06FEFC2010E94E1
:1044F0007008182FAE014D5B5F4F64E8C2010E9447
:104500002C0D182B40E06FEFC2010E947008812B28
:1045100009F018CFF201E853FF4F25968EAD9FADFD
:10452000259724E0880F991F2A95E1F7B0E0A0E0D5
:1045300080839183A283B383BE016F5F7F4FC201EB
:104540000E9459158111FECEAE01495B5F4F69E0B3
:10455000C2010E94520E8111F5CE28968FAD289788
:10456000817028968FAF2897F201E25EFE4F80831C
:104570008AE3FE013196D201509601900D928A9500
:10458000E1F7AE01495B5F4F61E0C2010E94520E4C
:104590008111D8CE8201035E1E4F28968FAD2897D9
:1045A000D8018C931BAEAE01455C5F4F61E0C20148
:1045B0000E94520E8111C6CE8BADF82EE894F4F80D
:1045C00084FF13C04F2D61E0C2010E947008811169
:1045D000B9CEF801F082D20152964D915D916D9164
:1045E0007C915597C2010E940F181BAEAE01455C2D
:1045F0005F4F61E0C2010E94520E8111A3CE8BADCC
:10460000F82EE894F2F882FF13C04F2D61E0C2014A
:104610000E947008811196CEF801F082D201529664
:104620004D915D916D917C915597C2010E940F183B
:1046300083E0F201E15EFE4F8083AE014B5B5F4F92
:1046400060E0C2010E94FB0E81117CCE26968FADE8
:104650002697F201E852FF4F8083AE014B5B5F4F1C
:1046600061E0C2010E94FB0E81116CCE26968FADD7
:104670002697F201ED52FF4F8083AE01455C5F4FFC
:1046800063E0C2010E94021581115CCE8BAD9CAD2E
:10469000ADADBEADF201EC52FF4F80839183A2839A
:1046A000B383AE01455C5F4F64E0C2010E94021516
:1046B000811148CEF201E153FF4F4BAD5CAD6DADC2
:1046C0007EAD40835183628373833CCE0F931F93EF
:1046D0000091A0051091A1052091A2053091A3059C
:1046E00040E052E16AE770E080E004171507260712
:1046F000370740F476956795579547958F5F8630D5
:10470000A1F787E0982F906A9695809581709CBD5F
:104710008DBD80E01F910F910C942B03CF93DF93FD
:10472000D82FC62F0E9466238D2F80620E94CD0451
:104730008093A4058C2F0E94CD04DF91CF910C941F
:104740003F036091AB0561FD0AC062606093AB05F9
:1047500080E00E948E238BE19EE40197F1F708959B
:10476000CF93C82F0E9466238C2F0E94CD04809384
:10477000A4058FEF0E94CD04C82F0E943F038C2F09
:10478000CF910895CF93DF93EC0186E00E94B02390
:10479000877D2297E1F045E550E060E070E04093CE
:1047A000B2055093B3056093B4057093B505C0E0AE
:1047B000C82B6C2F86E00E948E2386E00E94B023D7
:1047C00091E0C81390E0892FDF91CF9108954BE9D4
:1047D00050E060E070E04093B2055093B305609301
:1047E000B4057093B505C0E2E3CFFF920F931F931A
:1047F000CF93DF93C82FF62E072F142F0E94662326
:104800008C2F80620E94CD048093A405CF2DD02FE1
:10481000115020F089910E94CD04FACFDF91CF9101
:104820001F910F91FF900C943F03CF93C82F0E94CC
:1048300066238C2F0E94CD048093A405CF910C9405
:104840003F030E94662380E50E94CD048093A40567
:1048500083E70E94CD040C943F0385ED8093BC0058
:104860008091390490913A04A0913B04B0913C04AA
:104870000796A11DB11D23E0B695A795979587953D
:104880002A95D1F72091BC0024FD03C01092370473
:1048900008954091390450913A0460913B0470911D
:1048A0003C04452B462B472B69F30097A105B10526
:1048B00041F025E32A95F1F700000197A109B1091C
:1048C000E1CF809138040C94B0061F920F920FB67E
:1048D0000F9211242F933F938F939F93AF93BF9386
:1048E0008091E3039091E403A091E503B091E60386
:1048F0003091E20323E0230F2D3758F50196A11DD7
:10490000B11D2093E2038093E3039093E403A0930B
:10491000E503B093E6038091E7039091E803A0914B
:10492000E903B091EA030196A11DB11D8093E7034D
:104930009093E803A093E903B093EA03BF91AF918A
:104940009F918F913F912F910F900FBE0F901F90CD
:10495000189526E8230F0296A11DB11DD2CF1F92F4
:104960000F920FB60F9211240BB60F922F933F9315
:104970004F935F936F937F938F939F93AF93BF9367
:10498000EF93FF9381E694E00E940D04FF91EF9175
:10499000BF91AF919F918F917F916F915F914F9157
:1049A0003F912F910F900BBE0F900FBE0F901F9055
:1049B00018951F920F920FB60F9211240BB60F92FB
:1049C0002F938F939F93EF93FF93E0917104F09156
:1049D00072048081E0917704F091780482FD1DC01B
:1049E000908180917A048F5F8F7320917B0482176E
:1049F00041F0E0917A04F0E0EF59FB4F958F8093FE
:104A00007A04FF91EF919F918F912F910F900BBEA0
:104A10000F900FBE0F901F9018958081F2CF1F92BC
:104A20000F920FB60F9211240BB60F922F933F9354
:104A30004F935F936F937F938F939F93AF93BF93A6
:104A4000EF93FF9348E251E064E271E090E080E090
:104A50000E949A05FF91EF91BF91AF919F918F9125
:104A60007F916F915F914F913F912F910F900BBE6E
:104A70000F900FBE0F901F9018951F920F920FB6B8
:104A80000F9211240BB60F922F933F934F935F9386
:104A90006F937F938F939F93AF93BF93EF93FF9306
:104AA00048EA50E064EA70E083E090E00E949A05F2
:104AB000FF91EF91BF91AF919F918F917F916F91F6
:104AC0005F914F913F912F910F900BBE0F900FBEB2
:104AD0000F901F9018951F920F920FB60F921124EE
:104AE0000BB60F922F933F934F935F936F937F93E8
:104AF0008F939F93AF93BF93EF93FF9348E950E059
:104B000064E970E082E090E00E949A05FF91EF91E5
:104B1000BF91AF919F918F917F916F915F914F91D5
:104B20003F912F910F900BBE0F900FBE0F901F90D3
:104B300018951F920F920FB60F9211240BB60F9279
:104B40002F933F934F935F936F937F938F939F9395
:104B5000AF93BF93EF93FF9348E850E064E870E0B1
:104B600081E090E00E949A05FF91EF91BF91AF9193
:104B70009F918F917F916F915F914F913F912F9175
:104B80000F900BBE0F900FBE0F901F9018951F92A5
:104B90000F920FB60F9211240BB60F922F933F93E3
:104BA0004F935F936F937F938F939F93AF93BF9335
:104BB000EF93FF938091B900887F803609F44DC050
:104BC00008F040C0883209F4A9C028F5803109F402
:104BD0009DC0C8F4882309F4FBC0883009F496C04E
:104BE000FF91EF91BF91AF919F918F917F916F91C5
:104BF0005F914F913F912F910F900BBE0F900FBE81
:104C00000F901F901895883109F488C0803241F7C1
:104C10008093350414C0803409F49DC040F480337F
:104C2000B9F38833E9F68093350485ECB0C080355C
:104C300009F485C0883509F496C0883489F60E9445
:104C40002D24CECF883909F48CC038F5883729F067
:104C500050F4883611F0803719F683E080933704DA
:104C60001092CB0357C0883809F47BC0803919F003
:104C7000803809F0B5CF8091CB03803208F071C045
:104C8000E091CB0381E08E0F8093CB038091BB003A
:104C9000F0E0E555FC4F80833DC0803B39F0E0F407
:104CA000803A09F479C0883A09F09ACF84E0809379
:104CB00037041092AA031092A903E091ED03F0913A
:104CC000EE0319958091A90381110FC081E08093B3
:104CD000A9031092890309C0803C09F4A6CF883C3F
:104CE00009F4A3CF883B09F07BCFE091AA0381E0D0
:104CF0008E0F8093AA03F0E0E757FC4F80818093EA
:104D0000BB009091AA038091A90329C0809112044D
:104D10008093BB0085EC8093BC0062CF90913404FB
:104D200080913304981758F5E091340481E08E0F98
:104D300080933404F0E0ED5EFB4F8081E9CFE09199
:104D4000340481E08E0F809334048091BB00F0E046
:104D5000ED5EFB4F8083909134048091330498176B
:104D6000C8F285E8D8CFE091340481E08E0F8093BB
:104D700034048091BB00F0E0ED5EFB4F80838091B6
:104D8000360481115CCF81E08093110484EA809322
:104D9000BC001092370424CF85EC8093BC001092A5
:104DA00037048091CB03803230F4E091CB03F0E004
:104DB000E555FC4F10826091CB0370E0E091EB036E
:104DC000F091EC038BEA93E019951092CB0308CF96
:104DD0001092350434CF109264041092630488EE6C
:104DE00093E0A0E0B0E08093650490936604A09304
:104DF0006704B09368042DE033E03093620420939D
:104E0000610425EC30E030936E0420936D0424ECB3
:104E100030E03093700420936F0420EC30E0309346
:104E200072042093710421EC30E0309374042093D9
:104E3000730422EC30E0309376042093750426EC62
:104E400030E0309378042093770410927A04109223
:104E50007B0410927C0410927D0410920205109243
:104E600001058093030590930405A0930505B09375
:104E700006058FE193E0909300058093FF048EEA8E
:104E800091E0E3E3FEE0DF019C011D922150304000
:104E9000E1F724E33EE030937C0F20937B0FE5E8BD
:104EA000FCE0DF019C011D9221503040E1F726E833
:104EB0003CE03093CE0D2093CD0DE7EDFAE0DF011D
:104EC0009C011D9221503040E1F728ED3AE03093EB
:104ED000200C20931F0CE9E2F9E0DF019C011D92F8
:104EE00021503040E1F72AE239E03093720A2093F2
:104EF000710AEBE7F7E0DF019C011D922150304081
:104F0000E1F72CE737E03093C4082093C308EDECB9
:104F1000F5E0DF019C011D9221503040E1F78EEC5D
:104F200095E0909316078093150780919B05803339
:104F300008F078C091E0980F90939B058093CA0584
:104F400090E0FC01EE0FFF1FE80FF91FE55FFA4F3D
:104F500088EB9BE09283818380919B05803308F0EE
:104F600065C091E0980F90939B058093C70590E0F2
:104F7000FC01EE0FFF1FE80FF91FE55FFA4F88EB0A
:104F80009BE09283818380E48093BE058FEF94E061
:104F90009093C0058093BF051092C2051092C10581
:104FA0008CE390E09093BD058093BC058AE590E08A
:104FB0009093BB058093BA0580E380939E0581E3BF
:104FC00080939F0580E896E9A8E9B0E08093A0056A
:104FD0009093A105A093A205B093A30580E28093CE
:104FE000A5051092AC051092AD0585E08093AF0544
:104FF00081E08093B0051092B10585E090E0A0E0DB
:10500000B0E08093B6059093B705A093B805B09330
:10501000B9058EEF94E090939D0580939C051092C6
:10502000A60508958FEF8093CA0596CF8FEF8093E2
:10503000C705A9CFCF93DF9300D000D01F921F9256
:10504000CDB7DEB7789484B5826084BD84B58160C5
:1050500084BD85B5826085BD85B5816085BD809143
:105060006E00816080936E001092810080918100BB
:1050700082608093810080918100816080938100B3
:10508000809180008160809380008091B100846075
:105090008093B1008091B00081608093B0008091D6
:1050A0009100826080939100809191008160809353
:1050B0009100809190008160809390008091A10088
:1050C00082608093A1008091A10081608093A10003
:1050D0008091A00081608093A00080912101826076
:1050E0008093210180912101816080932101809131
:1050F000200181608093200180917A0084608093F8
:105100007A0080917A00826080937A0080917A00A0
:10511000816080937A0080917A00806880937A0021
:105120001092C100E0917104F091720482E08083DA
:10513000E0916D04F0916E041082E0916F04F091A3
:10514000700480E1808310927904E0917504F091FD
:10515000760486E08083E0917304F091740480818A
:1051600080618083E0917304F09174048081886091
:105170008083E0917304F09174048081806880835F
:10518000E0917304F091740480818F7D808385E2C7
:105190000E94800288E20E94800286E20E948002D1
:1051A00087E20E94800284E20E94800288E192E00D
:1051B0000E94040B60E085E20E949F0260E088E2AA
:1051C0000E949F0260E086E20E949F0260E087E208
:1051D0000E949F0260E084E20E949F0285EF91E0BE
:1051E0000E94040B89EE91E00E94040B60E085E2CE
:1051F0000E949F0260E088E20E949F0260E086E2D7
:105200000E949F0260E089E20E949F0260E087E2C4
:105210000E949F0260E084E20E949F026AE070E0C8
:1052200080E090E00E94670361E085E20E949F02B7
:1052300061E088E20E949F0261E086E20E949F0294
:1052400061E089E20E949F0261E087E20E949F0282
:1052500061E084E20E949F026AE070E080E090E0FA
:105260000E94670361E085E20E949F0260E088E29D
:105270000E949F0260E086E20E949F0260E089E255
:105280000E949F0260E087E20E949F0260E084E249
:105290000E949F0262E583E39EE00E94D61E811178
:1052A00004C080ED91E00E94040B6AE070E080E0B1
:1052B00090E00E94670361E088E20E949F026AE03A
:1052C00070E080E090E00E94670361E485E89CE084
:1052D0000E94D61E811104C087EB91E00E94040B4E
:1052E00061E086E20E949F026AE070E080E090E068
:1052F0000E94670362E487ED9AE00E94D61E811146
:1053000004C08EE991E00E94040B61E089E20E94F2
:105310009F026AE070E080E090E00E94670361E035
:1053200087E20E949F026AE070E080E090E00E94C5
:10533000670367E28DEC95E00E94D61E811104C0E0
:1053400085E891E00E94040B61E084E20E949F02E4
:105350006AE070E080E090E00E94670364E28BE71F
:1053600097E00E94D61E811104C08CE691E00E9455
:10537000040B83E39EE00E94431085E89CE00E94BA
:10538000431087ED9AE00E9443108DEC95E00E9457
:1053900043108BE797E00E9443108091CA05803349
:1053A00008F042C083E00E9480028091CA05282F45
:1053B00030E0F901EE0FFF1FE20FF31FE55FFA4F38
:1053C0009081907C936090831092CB051092CC05D5
:1053D0002CE0622F0E94A82D90E0829FB001112442
:1053E00030E020E0AB01420F531FFA01EE0FFF1F28
:1053F000E40FF51FE55FFA4F408146FD07C02F5FC0
:105400003F4F2C30310571F70E945805E091CA05D5
:105410008E2F90E0FC01EE0FFF1FE80FF91FE55FF4
:10542000FA4F8081806480838091C705803308F0C3
:1054300042C082E00E9480028091C705282F30E0A0
:10544000F901EE0FFF1FE20FF31FE55FFA4F9081A6
:10545000907C926090831092C8051092C9052CE050
:10546000622F0E94A82D90E0829FB001112430E0AD
:1054700020E0AB01420F531FFA01EE0FFF1FE40FB4
:10548000F51FE55FFA4F408146FD07C02F5F3F4F94
:105490002C30310571F70E945805E091C7058E2F19
:1054A00090E0FC01EE0FFF1FE80FF91FE55FFA4FD8
:1054B00080818064808367ED75E087EC95E00E94D1
:1054C000D4048AE590E00E940B0568E873E180E06F
:1054D00090E00E9467038091C1059091C2050097FA
:1054E00011F00E94C63086E090E00E942A308C01C4
:1054F0008091BF059091C0052091BE05F8012083E1
:1055000092838183138280E290E095838483109359
:10551000C2050093C1050E94990681E0F8018383CA
:10552000C8010E94DF078823E1F060E880E00E9464
:105530008D0B6AE070E080E090E00E94670380E4F9
:1055400098E7ADE7B1E08093C3059093C405A093BD
:10555000C505B093C60560E070E08AE794E40E9458
:10556000181760E070E088E492E40E94181764EB7A
:1055700070E083E00E943D0B6CE370E080E00E94ED
:105580003D0B6AE570E081E00E943D0B70E060E059
:1055900082E00E943D0B1FB7F8948091D0038111E7
:1055A00024C0EBEEF2E08491E1E3F3E09491E82F84
:1055B000F0E0EE0FFF1FE456FD4FA591B491EC9182
:1055C000E92321F461E085E30E949F0285E30E94C4
:1055D00080028CB580618CBD8CB580648CBD84E309
:1055E0000E94800283E30E9480028091D0038F5F3B
:1055F0008093D0031FBF80919E058F3F09F47AC02E
:1056000090919F059F3F09F475C0891731F00E9462
:10561000800280919F050E94800280919E0590915A
:105620009F05891719F060E00E949F0281E00E94A7
:105630002B0365E070E080E090E00E9467036FE577
:1056400084E00E948E2390E080E00E94C2238DE1DE
:105650000E94B023182F0E9421248DE10E94B023C4
:1056600091E0181390E09093AC05882341F0181353
:1056700002C00E94212460E08DE10E948E231092DE
:10568000AE0560E08CE10E948E231092B0056FE3BE
:1056900081E00E948E2363E082E00E948E2380E2FC
:1056A0008093A50511E16091A505812F0E948E23AD
:1056B0001F5F1731C1F763E083E00E948E2385E00E
:1056C0008093AF056CE40E948E2360E787E00E9420
:1056D0008E2382EE0E94152481EE0E9415246CE038
:1056E00080E00E948E2380E00E94B0238093AB056F
:1056F0000E94A12361E385E00E948E2382E090E076
:105700000E94C22386E00E94B023887F682F6560D4
:1057100086E00E948E2389E8898387E68A8385E470
:105720008B8383E28C8381E08D831E821F821886A7
:10573000E1E3F2E084914091AF05BE016F5F7F4FDE
:105740000E94F52382E00E94B023E7E3F2E0E491B7
:1057500061E070E001C0660FEA95EAF7682B82E02D
:105760000E948E230E94A1236091AB05616060932B
:10577000AB0580E00E948E2360E787E00E948E23C5
:1057800080919E0590919F05891719F061E00E9414
:105790009F028091AD05882309F448C04091AF0570
:1057A00066EA75E08AE00E94F523CC24CA9433E0CF
:1057B000D32EE12CF12C4BE0442E42E0542E612CF0
:1057C000712C54E1852E912C87E10E94B02380FD3D
:1057D00042C08FEF0E9415248091A40590E095951A
:1057E000879587708093E1038091B005811157C040
:1057F0008091A505A82E8D3010F09CE0A92EB82E22
:10580000BA180E94662381E60E94CD048093A40505
:1058100001ED13E0AA942FEFA21609F444C08FEF14
:105820000E94CD04F80181938F01F4CF82E00E94A1
:10583000B023E6E3F2E0E49121E030E001C0220F82
:10584000EA95EAF72095622F682382E00E948E2372
:105850001092AD05AACF2FB7F8948091E3039091F1
:10586000E403A091E503B091E6032FBF4091DD036F
:105870005091DE036091DF037091E003841B950B70
:10588000A60BB70B893E9340A105B10508F440C0B3
:1058900080E893E00E94220B0E94F00A39C0B12CEC
:1058A0008CE0A82EAECFBA94FFEFBF1621F08FEF99
:1058B0000E94CD04F8CF0E943F0360E487E00E947D
:1058C0008E23A091D703B091D8030091D5031091F6
:1058D000D603075F11402091DB033091DC032130B8
:1058E000310561F1C4F4232B11F12FB7F8948091A5
:1058F000E3039091E403A091E503B091E6032FBF89
:105900008093DD039093DE03A093DF03B093E00365
:105910000E949C0459CF2230310509F448C023303D
:10592000310519F786E793E00E94220BDECF81E76D
:1059300093E00E94220B0E94F00AD7CF2AE530E0C4
:105940000E94EC2DA70196010E94352DDA01C901B4
:105950008D96A11DB11D0E940B0510161106A4F411
:1059600024E130E0D8010E94EC2DA30192010E94B5
:10597000352DCA01B9016E5D794F8F4F9F4F87EC6E
:1059800095E00E94D404B1CF01151105A1F22EE1DA
:1059900030E0D8010E94EC2DA30192010E94352D28
:1059A000CA01B901665A7A4F8F4F9F4FE8CFA09036
:1059B000D103B090D2032090D3033090D403CD0113
:1059C0008B509240B4010E94C82D8091BC059091EB
:1059D000BD05680F791F653B710514F064EB70E03D
:1059E00077FF02C070E060E07093BD056093BC0576
:1059F00080E00E943D0BC801B4010E94C82D809137
:105A0000BA059091BB05680F791F653B710514F0CD
:105A100064EB70E077FF02C070E060E07093BB055C
:105A20006093BA0581E00E943D0B24EB30E0D10188
:105A30000E94EC2DA70196010E94352DB90183E04B
:105A40000E943D0B9501ACE4BFEF0E94E42DA7013D
:105A500096010E94352DCA01B9016C547F4F8F4FBA
:105A60009F4F82E00E943D0B40CF052E97FB1EF416
:105A700000940E944C2D57FD07D00E94672D07FC13
:105A800003D04EF40C944C2D5095409530952195B3
:105A90003F4F4F4F5F4F089590958095709561955A
:105AA0007F4F8F4F9F4F08950E94892DA59F900D86
:105AB000B49F900DA49F800D911D11240895B7FFF0
:105AC0000C94542D0E94542D821B930B0895A1E237
:105AD0001A2EAA1BBB1BFD010DC0AA1FBB1FEE1F68
