:100000000C949C010C94CD010C94CD010C94CD0169
:100010000C94CD010C94CD010C94CD010C94CD0128
:100020000C94CD010C94CD010C94CD010C94CD0118
:100030000C94CD010C94CD010C94CD010C94CD0108
:100040000C94CD010C9431230C94CD010C94CD0172
:100050000C94CD010C94CD010C94CD010C94FD2198
:100060000C94CD010C9471220C9447220C94CD0178
:100070000C94CD010C94CD010C94CD010C94CD01C8
:100080000C9403230C94CD010C94CD010C94CD0160
:100090000C94CD010C94CD010C94CD010C945F23F4
:1000A0000C94CD010C94CD010C94D5220C94CD016F
:1000B0000C94CD010C94CD010C94CD010C94A7228D
:1000C0000C94CD010C94CD010C94CD010C94CD0178
:1000D0000C94CD010C94CD010C94CD010C94CD0168
:1000E0000C94CD010C94F9020C94C9020C940D03EC
:1000F0000C948A060C9479020C94B8030C94DA03DD
:100100000C9407030C94EC020C9411030C9415034B
:100110000C9489060C945F040C9478020C94CC0324
:100120000C947C030C94EF020C9412040C94FF02C8
:100130000C94CE020C9481090C94B3060C94030326
:100140000C94E0060C94AC060C94E4020C94E002CF
:100150000C9499060C9483240C94F5020C94E802F8
:100160000C94A9030C941B030C941F034661696C47
:10017000656420746F20626F6F74203620564C3592
:10018000334C3058004661696C656420746F20629E
:100190006F6F74203520564C35334C305800466113
:1001A000696C656420746F20626F6F742033205611
:1001B0004C35334C3058004661696C656420746F6F
:1001C00020626F6F74203220564C35334C3058000B
:1001D0004661696C656420746F20626F6F742031B2
:1001E00020564C35334C3058005374617274696E2C
:1001F000672E2E2E00416C6C20696E20726573652F
:1002000074206D6F64652E2E2E2870696E732061C8
:100210007265206C6F77290053687574646F776E10
:100220002070696E7320696E697465642E2E2E00CD
:1002300000000A0B02090C0D0E0807030401000060
:1002400000000000000000000000000000000000AE
:10025000000000000000000000000000121110006B
:10026000000000000000000000000000000000008E
:1002700000000000000000002200250028002B00E4
:100280002E003100340002010000050108010B01BD
:1002900000002100240027002A002D003000330038
:1002A00001010000040107010A0105050505070514
:1002B00008080808020202020A0A080804040404E2
:1002C000010101010101010103030303030303030E
:1002D000040707070C0C0C0C0C0C0C0C020202029D
:1002E00006060606060606060B0B0B0B0B0B0B0B86
:1002F0000102102020080810204010204080020138
:10030000020108040201010204081020408080401C
:10031000201008040201800402018040201008041B
:1003200002010804020101020408102040800102B9
:10033000040810204080832411241FBECFEFD1E297
:10034000DEBFCDBF00E00CBF13E0A0E0B2E0EAE604
:10035000F1E500E00BBF02C007900D92AC36B1078B
:10036000D9F72FE0ACE6B3E001C01D92A938B2077F
:10037000E1F711E0CCE9D1E000E006C021970109E6
:10038000802FFE010E94A428CB39D10780E0080706
:10039000A9F70E9462250C94B3280C940000CF9317
:1003A000DF9300D01F92CDB7DEB719821A821B826D
:1003B0001C8289819A81AB81BC818A3F9105A1050C
:1003C000B10568F4000089819A81AB81BC810196F6
:1003D000A11DB11D89839A83AB83BC83EACF80E0E2
:1003E0000F900F900F900F90DF91CF9108954F9243
:1003F0005F926F927F928F929F92AF92BF92CF92B5
:10040000DF92EF92FF920F931F93CF93F9010FEFBB
:100410001FEF980100831183228333834A015B011C
:10042000B3E0B694A79497948794BA95D1F76A01EC
:100430007B0127E0C222DD24EE24FF249501840104
:10044000C0E0063011052105310508F041C0C11199
:100450003FC0DC01A00FB11F6C91412C512C320127
:1004600080169106A206B30649F470E00C2C02C077
:10047000759567950A94E2F726013701462F50E0FB
:1004800060FF17C0B901A801A3E0440F551F661F04
:10049000771FAA95D1F7440E551E661E771E40821F
:1004A000518262827382C1E00F5F1F4F2F4F3F4F17
:1004B000C8CFBA01759567954FEF441A540A640A7C
:1004C000740A48E04416510461047104B9F6ECCF93
:1004D000CF911F910F91FF90EF90DF90CF90BF9041
:1004E000AF909F908F907F906F905F904F90089506
:1004F0000895089590E0FC01E051FD4F2491865548
:100500009D4FFC018491882399F090E0880F991FFA
:10051000FC01E057FD4FA591B491FC01EA58FD4F55
:10052000859194918FB7F894EC91E22BEC938FBF67
:100530000895282F30E0F901E05DFD4F9491F90115
:10054000E051FD4F449126553D4FF901249122235E
:1005500009F435C0992311F191509231F8F4E92F43
:10056000F0E08827E954FD4F8F4F0C94A428E8024F
:10057000EC02C902E002E402CE02EF02F502F90247
:10058000FF02030307030D031103CE0215031B0330
:100590001F03809180008F7780938000E22FF0E02E
:1005A000EE0FFF1FEA58FD4FA591B4918FB7F89455
:1005B000EC91611148C040954E234C938FBF089534
:1005C000809180008F7DE8CF80918000877FE4CF8D
:1005D00084B58F7784BDE2CF84B58F7DFBCF8091CA
:1005E000B0008F778093B000D9CF8091B0008F7D1D
:1005F000F9CF809190008F7780939000CFCF80913A
:1006000090008F7DF9CF80919000877FF5CF80910A
:10061000A0008F778093A000C1CF8091A0008F7D34
:10062000F9CF8091A000877FF5CF809120018F774F
:1006300080932001B3CF809120018F7DF9CF8091ED
:100640002001877FF5CF4E2BB8CF3FB7F89480912C
:10065000290490912A04A0912B04B0912C0426B572
:10066000A89B05C02F3F19F00196A11DB11D3FBFEA
:10067000BA2FA92F982F8827BC01CD01620F711DB9
:10068000811D911D42E0660F771F881F991F4A95B3
:10069000D1F708958F929F92AF92BF92CF92DF923F
:1006A000EF92FF924B015C010E9425036B017C01DC
:1006B0000E9425036C197D098E099F09683E7340CD
:1006C00081059105A8F321E0821A9108A108B108DB
:1006D00088EEC80E83E0D81EE11CF11C8114910441
:1006E000A104B10429F7FF90EF90DF90CF90BF9065
:1006F000AF909F908F900895AF92BF92CF92DF926C
:10070000EF92FF920F931F93CF93DF936C017B01C6
:100710008B01040F151FEB015E01AE18BF08C01757
:10072000D10759F06991D601ED91FC910190F081CA
:10073000E02DC6011995892B79F7C501DF91CF917D
:100740001F910F91FF90EF90DF90CF90BF90AF90EF
:100750000895FC01538D448D252F30E0842F90E0C7
:10076000821B930B541710F0CF96089501970895AC
:10077000FC01918D828D981761F0A28DAE0FBF2F75
:10078000B11D5D968C91928D9F5F9F73928F90E0CB
:1007900008958FEF9FEF0895FC01918D828D98173A
:1007A00031F0828DE80FF11D858D90E008958FEF77
:1007B0009FEF0895FC01918D228D892F90E0805C40
:1007C0009F4F821B91098F739927089585E394E0C9
:1007D0000E94DA0321E0892B09F420E0822F08959A
:1007E000FC01A48DA80FB92FB11DA35ABF4F2C91A6
:1007F000848D90E001968F739927848FA689B7899D
:100800002C93A089B1898C91837080648C93938D93
:10081000848D981306C00288F389E02D80818F7D36
:1008200080830895EF92FF920F931F93CF93DF93EE
:10083000EC0181E0888F9B8D8C8D98131AC0E8891C
:10084000F989808185FF15C09FB7F894EE89FF89EB
:100850006083E889F98980818370806480839FBF89
:1008600081E090E0DF91CF911F910F91FF90EF9089
:100870000895F62E0B8D10E00F5F1F4F0F73112799
:10088000E02E8C8D8E110CC00FB607FCFACFE889D4
:10089000F989808185FFF5CFCE010E94F003F1CF69
:1008A000EB8DEC0FFD2FF11DE35AFF4FF0829FB748
:1008B000F8940B8FEA89FB8980818062CFCFCF9338
:1008C000DF93EC01888D8823B9F0AA89BB89E88978
:1008D000F9898C9185FD03C0808186FD0DC00FB61E
:1008E00007FCF7CF8C9185FFF2CF808185FFEDCF9C
:1008F000CE010E94F003E9CFDF91CF91089580E00F
:1009000090E0892B29F00E94E60381110E940000EB
:1009100080E090E0892B49F080E090E0892B29F07D
:100920000E94000081110E94000080E090E0892B6D
:1009300049F080E090E0892B29F00E9400008111AD
:100940000E94000080E090E0892B49F080E090E078
:10095000892B29F00E94000081110C940000089559
:10096000DC01EC91E03390F511968C91119728E819
:1009700030E0281B310987FD3395220F331F220FEA
:10098000331F6217730784F012968C9128E532E0CA
:10099000281B310987FD3395220F331F220F331F88
:1009A000621773070CF49B0122503109220F331F89
:1009B0004FB7F8948E2F90E0FC01EE0FFF1FE80F69
:1009C000F91FE252FB4F328321834FBF0895CF922C
:1009D000DF92EF92FF92E2E7F5E0218138E8C32E43
:1009E000D12CC21AD10827FDD394CC0CDD1CCC0C21
:1009F000DD1C0D2C000CEE08FF08428128E532E0DA
:100A0000241B310947FD3395220F331F220F331F5B
:100A1000032E000C440B550B2C193D094E095F09A0
:100A2000DC010E943B2824EB30E040E050E00E94D3
:100A30001128CA01B9016C0D7D1D8E1D9F1D82E715
:100A400095E0FF90EF90DF90CF900C94B004813050
:100A5000910581F41092800082E0809381001092D1
:100A6000850010928400B19A80916F00826080931B
:100A70006F0008958230910569F41092900082E031
:100A800080939100109295001092940088BB8093FF
:100A9000710008958330910569F41092A00082E0FE
:100AA0008093A1001092A5001092A40089BB8093AE
:100AB00072000895892B61F41092200182E08093E6
:100AC000210110922501109224018ABB80937300AA
:100AD0000895AF92BF92CF92DF92EF92FF920F9361
:100AE0001F93CF93DF936B017A01EC01C053DC4F6E
:100AF00028813CE0389F8001399F100D1124A0907F
:100B00006E05B12C27FF1FC0FB0111821082888166
:100B10008F5F888388819801280F311D87FD3A9562
:100B2000F6012A153B051CF488818C30C4F18081C4
:100B30009181049680349C4908F473C0F601808149
:100B40009181049670C088819801280F311D87FD1E
:100B50003A952A153B05DCF68881A801480F511DFE
:100B600087FD5A95FA01EE0FFF1FE40FF51FE252C1
:100B7000FB4F808186FFCBCF8881F801E80FF11D04
:100B800087FDFA95CF01EE0FFF1FE80FF91FE25224
:100B9000FB4F808160E08F730E949902B8CF808103
:100BA00091812881A801420F511D27FD5A959A0174
:100BB000FA01EE0FFF1FE20FF31FE252FB4F2181FC
:100BC0003281820F931FF70191838083888198017E
:100BD000280F311D87FD3A95F901EE0FFF1FE20F37
:100BE000F31FE252FB4F808186FF22C08881080FED
:100BF000111D87FD1A95F801EE0FFF1FE00FF11F81
:100C0000E252FB4F808161E08F73DF91CF911F91A2
:100C10000F91FF90EF90DF90CF90BF90AF900C942A
:100C2000990280E49CE9F701918380838FEF8883A8
:100C3000DF91CF911F910F91FF90EF90DF90CF90B8
:100C4000BF90AF9008952091AD03260F3327331F37
:100C500021323105ECF42091FC03FC0190E080E0AE
:100C6000243069F082E00895A091AD032191AC0198
:100C700043575C4FA40FB52FB11D2C9301968617D7
:100C800098F38091AD03680F6093AD0380E0089501
:100C900081E008951092FC0381E08093FB031092A1
:100CA000F60361E084E10E94990261E085E10E941F
:100CB0009902E9EBF0E080818E7F808380818D7FD7
:100CC000808388E48093B80085E48093BC00089515
:100CD000CF93DF9391E090938C038823B9F0C09178
:100CE000B800D091BA008091BC008A7B8093BC0090
:100CF00060E084E10E94990260E085E10E9499022F
:100D00000E944A06D093BA00C093B800DF91CF91F9
:100D100008950895E091340480913304E81730F485
:100D2000F0E0EE5FFB4F808190E008958FEF9FEF42
:100D3000089590913404809133042FEF3FEF98177A
:100D400048F4E92FF0E0EE5FFB4F208130E09F5F39
:100D500090933404C9010895809133049091340430
:100D6000891B990B0895CF92DF92EF92FF920F9318
:100D70001F93CF93DF937C01CB018A012091D50390
:100D8000222389F0EB016B01C40ED51ECC15DD05C5
:100D900069F06991D701ED91FC910190F081E02D0E
:100DA000C7011995F3CF642F0E942306C801DF9174
:100DB000CF911F910F91FF90EF90DF90CF9008950A
:100DC000CF93DF931F92CDB7DEB769832091D50310
:100DD0002223F9F020913104203258F021E030E054
:100DE000FC013383228390E080E00F90DF91CF916C
:100DF000089580913204E82FF0E0E459FC4F998186
:100E000090838F5F809332048093310481E090E07F
:100E1000ECCF61E0CE0101960E942306F7CFCF927E
:100E2000DF92EF92FF920F931F93CF93DF93D091B6
:100E3000310481E0D13208F09CC0C091D4030E94FB
:100E400025036B017C018091FC0381116CC082E061
:100E50008093FC0381E08093FB038FEF8093FA0380
:100E60001092F903D093F803ACE6B3E0E6EDF3E0BB
:100E700080E0D8138DC01092F7038091F703CC0F58
:100E8000C82BC093F7038091F603813009F084C02A
:100E90001092F6030E9425036B017C018091F703F9
:100EA0008093BB008091FE039091FF03A09100040A
:100EB000B0910104892B8A2B8B2BA1F00E94250372
:100EC0000091FE031091FF03209100043091010472
:100ED0006C197D098E099F0906171707280739071E
:100EE00008F442C08091BC0083FDD8CF85EC80938C
:100EF000BC000E9425036B017C018091FC038230C1
:100F000009F44CC08091FA038F3F09F469C08091C5
:100F1000FA03803209F466C08091FA03803309F441
:100F200063C084E026C08091FE039091FF03A091EE
:100F30000004B0910104892B8A2B8B2B09F483CFF9
:100F40000E9425030091FE031091FF0320910004ED
:100F5000309101046C197D098E099F090617170746
:100F60002807390708F06FCF8091FD030E946806BB
:100F700085E010923204109231041092D503DF9173
:100F8000CF911F910F91FF90EF90DF90CF90089538
:100F90009D9191938F5F6DCF85EEA9CF8091FE03D8
:100FA0009091FF03A0910004B0910104892B8A2B3A
:100FB0008B2B09F4A2CF0E9425030091FE03109110
:100FC000FF0320910004309101046C197D098E0902
:100FD0009F09061717072807390708F08ECFC4CFD7
:100FE00080E0C7CF82E0C5CF83E0C3CF8F929F92CE
:100FF000AF92BF92CF92DF92EF92FF920F931F9327
:10100000CF93DF936A014801E70191E09093D50304
:101010008093D4031092320410923104E881F98154
:101020000190F081E02DC70119958C0C9D1CC8140E
:10103000D90459F0E881F9810190F081E02DD601C1
:101040006D916D01CE011995F2CFCE010E940F076F
:1010500090E080E0DF91CF911F910F91FF90EF9092
:10106000DF90CF90BF90AF909F908F900895EF92B8
:10107000FF920F931F93CF93DF931F921F92CDB7D1
:10108000DEB7FC01EF5BFE4F70813496E080F180AB
:101090004A83598302E010E020E030E0AE014F5F68
:1010A0005F4F872F0E94F607892B51F08CEE0F902F
:1010B0000F90DF91CF911F910F91FF90EF900895C6
:1010C00080E0F5CFEF92FF920F931F93CF93DF93C2
:1010D0001F92CDB7DEB7FC01EF5BFE4F70813496F7
:1010E000E080F180498301E010E020E030E0AE01D3
:1010F0004F5F5F4F872F0E94F607892B49F08CEED8
:101100000F90DF91CF911F910F91FF90EF90089575
:1011100080E0F6CF3F924F925F926F927F928F92D4
:101120009F92AF92BF92CF92DF92EF92FF920F9376
:101130001F93CF93DF93CDB7DEB72C970FB6F894FC
:10114000DEBF0FBECDBF4B0130E020E0312CAE0141
:101150004F5F5F4F3A01FC01EB5BFE4FFE83ED8377
:10116000AC014F5B5E4F58874F83B297FA87E98790
:10117000405251095C874B872C015BED451A5EEFAD
:10118000550A5C01E8EDAE1AEEEFBE0AF401E20F7B
:10119000F31F0081002309F47CC031107AC069017B
:1011A0004FEFC41AD40AD401AC0DBD1D6C910F3F92
:1011B00009F047C0690152E0C50ED11CD401AC0D45
:1011C000BD1D8C916130C1F040F0623011F163308F
:1011D00061F1ECEF3E2E9601D9CF690194E0C90E82
:1011E000D11C238190E0982F8827820F911DEB85D9
:1011F000FC8591838083EFCF690144E0C40ED11C4C
:10120000238190E0982F8827820F911DE985FA8528
:10121000F0CF690144E0C40ED11C238190E0982FE7
:101220008827820F911DF201E4CF690144E0C40ECA
:10123000D11C238190E0982F8827820F911DF50102
:10124000D8CF053030F62E5F3F4FD401A20FB31F29
:10125000F301C02ED12CCF01861997098C159D055D
:101260001CF48D918193F7CFC20ED31EED81FE81C8
:10127000E080F18010E030E020E0A301EF81F8850C
:1012800080810E94F607892B09F4A5CF7CEE372ECA
:10129000A2CF832D2C960FB6F894DEBF0FBECDBF24
:1012A000DF91CF911F910F91FF90EF90DF90CF9042
:1012B000BF90AF909F908F907F906F905F904F9076
:1012C0003F900895EF92FF920F931F93AB01FC01A3
:1012D000EB5BFE4FE080F1808F5B9E4F06E010E0FD
:1012E00020E030E060EBFC0180810E94F607892B52
:1012F00031F08CEE1F910F91FF90EF90089580E0F8
:10130000F9CF90E080E008950F931F93CF93DF9380
:101310008C01D0E0C0E0F801EC0FFD1F6491662362
:1013200041F085E394E00E941204892B11F021968C
:10133000F2CF42E050E067E273E085E394E00E9480
:101340007C038C0F9D1FDF91CF911F910F9108950A
:101350004F925F926F927F928F929F92AF92BF92C5
:10136000CF92DF92EF92FF920F931F93CF93DF9371
:10137000D82F6A01480181E08093D503D093D4032C
:101380001092320410923104D701ED91FC9101903A
:10139000F081E02DC7011995C7010E940F070E9437
:1013A00025032B013C018091FC03811166C0C82DEF
:1013B00081E08093FC038093FB039FEF9093FA03FB
:1013C0001092F903980D9093F8038093F70380919E
:1013D000F703DD0FD82BD093F7038091F60381300C
:1013E00009F086C01092F6030E9425032B013C01F0
:1013F0008091F7038093BB008091FE039091FF03DF
:10140000A0910004B0910104892B8A2B8B2BA1F0B1
:101410000E9425030091FE031091FF032091000418
:101420003091010464197509860997090617170791
:101430002807390708F442C08091BC0083FDD8CF4B
:1014400085EC8093BC000E9425032B013C01809118
:10145000FC03813009F44EC08091F9038C1710F41D
:10146000C091F903E6EDF3E0A2E0B4E080E08C1770
:1014700051F191919D938F5FFACF8091FE039091EE
:10148000FF03A0910004B0910104892B8A2B8B2BC0
:1014900009F489CF0E9425030091FE031091FF03F8
:1014A0002091000430910104641975098609970997
:1014B000061717072807390708F075CF8091FD0335
:1014C0000E946806C0E010923404C09333048C0C70
:1014D0009D1CC814D90481F1D701ED91FC910284BF
:1014E000F385E02DC7011995F60181936F01F1CFC6
:1014F00085EEA7CF8091FE039091FF03A091000499
:10150000B0910104892B8A2B8B2B09F4A0CF0E9468
:1015100025030091FE031091FF03209100043091F8
:101520000104641975098609970906171707280722
:10153000390708F08CCFC2CF90E080E0DF91CF91E7
:101540001F910F91FF90EF90DF90CF90BF90AF90E1
:101550009F908F907F906F905F904F9008952F9203
:101560003F924F925F926F927F928F929F92AF9233
:10157000BF92CF92DF92EF92FF920F931F93CF9380
:10158000DF93CDB7DEB72F970FB6F894DEBF0FBE4F
:10159000CDBF9C878B876D875F874E873901170189
:1015A00028012F82388649865A8610E000E0EE2412
:1015B000E394F12C0A151B0509F461C09E01295F13
:1015C0003F4FB201A1018E859F850E94F7014F8197
:1015D000588569857A854F3F2FEF5207620772075A
:1015E00009F49CC0DB01CA018C549F4FAF4FBF4F21
:1015F000E6E0B695A79597958795EA95D1F7880F78
:10160000991F880F991F8D509D4F21E0FC0180810B
:101610009181A281B381892B8A2B8B2B09F420E045
:10162000FD85F2137BC01A012B0133E056944794D9
:10163000379427943A95D1F7DB01CA01877099272F
:10164000AA27BB2726E0221631044104510468F47E
:10165000F301E20DF31D970102C0220F331F8A959B
:10166000E2F7C9019081892B80831A012B013FEF9A
:10167000231A330A430A530A0F5F1F4F9BCFB12C23
:10168000F4012082318242825382B1102DC0B30115
:101690008B859C850E946209B82E811125C0EB853F
:1016A000FC85EB5BFE4FE080F180EB85FC85EF5B1A
:1016B000FE4F06E010E020E030E0AE014F5F5F4FEC
:1016C00060EB80810E94A809892B11F09CEEB92E55
:1016D000F301DE011196C301069631912D9132136B
:1016E00020C0E817F907C9F78B2D2F960FB6F8948D
:1016F000DEBF0FBECDBFDF91CF911F910F91FF9045
:10170000EF90DF90CF90BF90AF909F908F907F90A1
:101710006F905F904F903F902F9008952EECB22ED7
:10172000AFCF8EECB82EE0CFCF92DF92EF92FF9248
:101730000F931F93CF93DF9300D01F92CDB7DEB7E7
:101740006A01FC01EB5BFE4FE080F1808F5B9E4FF6
:1017500004E010E020E030E0AE014F5F5F4FFC019D
:1017600080810E94A80949815A815427452754271E
:1017700070E060E0762F652F542F44272B81422B99
:10178000762F652F542F44272C81422BF60140835E
:10179000518362837383892B71F480E00F900F90E3
:1017A0000F900F90DF91CF911F910F91FF90EF90CD
:1017B000DF90CF9008958CEEF1CFCF92DF92EF9231
:1017C000FF920F931F93CF93DF931F921F92CDB77A
:1017D000DEB76A01FC01EB5BFE4FE080F1808F5BBE
:1017E0009E4F02E010E020E030E0AE014F5F5F4F1F
:1017F000FC0180810E94A80929813A813227232790
:101800003227F60131832083892B61F480E00F9029
:101810000F90DF91CF911F910F91FF90EF90DF908C
:10182000CF9008958CEEF3CF0F931F93CF93DF9358
:101830001F921F92CDB7DEB7FC01E253FF4F20810C
:1018400021502330B8F48C01AE014F5F5F4F6EE042
:101850000E94DD0B811107C0AE014F5F5F4F6CE04E
:10186000C8010E94DD0B0F900F90DF91CF911F9167
:101870000F91089580E0F7CFEF92FF920F931F939F
:10188000CF93DF931F921F92CDB7DEB78C017A0101
:101890006330710509F449C090F46130710509F1B4
:1018A00062307105E1F1F80181A992A9A3A9B4A957
:1018B000F70180839183A283B38380E049C06630BF
:1018C000710588F7AE014F5F5F4F64E60E94DD0B44
:1018D00081113EC0298180E0922F990FB0E0A0E0F5
:1018E000E7CFAE014F5F5F4F64E40E94DD0B8111D3
:1018F0002FC0998120E0392F330FA90170E060E0FB
:10190000232BD1F0F7014083518362837383F80165
:1019100045AB56AB67AB70AF91E096A319C0FC0125
:1019200081AD92ADA3ADB4ADC3CFFC01FD96808176
:101930009181A281B381BCCFF80145A956A967A9BD
:1019400070ADF7014083518362837383F80116A25F
:101950000F900F90DF91CF911F910F91FF90EF901B
:1019600008958F929F92AF92BF92CF92DF92EF92A3
:10197000FF920F931F93CF93DF931F921F92CDB7C8
:10198000DEB7962ED42E822EFC01EF5BFE4FC08078
:101990005C012BEBA21A2EEFB20AF501E080F18078
:1019A00001E010E020E030E0AE014E5F5F4F8C2D93
:1019B0000E94A809892BA9F42A812D2128292A838C
:1019C000F501E080F180298301E010E020E030E0C3
:1019D000AE014F5F5F4F692D8C2D0E94F607892B5A
:1019E00081F08CEE0F900F90DF91CF911F910F91AE
:1019F000FF90EF90DF90CF90BF90AF909F908F902F
:101A0000089580E0EFCFEF92FF920F931F93FC01B8
:101A1000EB5BFE4FE080F1808F5B9E4F01E010E0BA
:101A200020E030E0FC0180810E94A809892B31F080
:101A30008CEE1F910F91FF90EF90089580E0F9CF09
:101A40009F92AF92BF92CF92DF92EF92FF920F934D
:101A50001F93CF93DF931F92CDB7DEB77C015B015D
:101A60006A01922E198241E06FEF0E946208182FDE
:101A700040E060E0C7010E946208182B40E06FEF71
:101A8000C7010E946208182B992031F0A5016BEC68
:101A9000C7010E94030D182B002341F0AE014F5FD8
:101AA0005F4F6EEEC7010E94030D182B41E06FEFF0
:101AB000C7010E946208182B41E060E0C7010E9444
:101AC0006208182B40E06FEFC7010E9462089981FD
:101AD0009F7EF6019083812B0F90DF91CF911F9114
:101AE0000F91FF90EF90DF90CF90BF90AF909F90BD
:101AF0000895EF92FF920F931F93CF93DF931F925E
:101B0000CDB7DEB77C0100E041E06BE0C7010E9489
:101B10006208182F40E06BE0C7010E946208182B92
:101B2000AE014F5F5F4F63E1C7010E94030D812B40
:101B30000F5F9981977061F0033061F0882321F382
:101B40000F90DF91CF911F910F91FF90EF9008952B
:101B50000330B1F784EFF4CF0F931F93CF93DF934C
:101B60001F92CDB7DEB78A01AE014F5F5F4F613084
:101B700081F060E50E94030D811105C099819F5F8E
:101B8000990FF80190830F90DF91CF911F910F91E2
:101B9000089560E7EFCFCF92DF92EF92FF921F930D
:101BA000CF93DF931F92CDB7DEB77C0140E063E8AF
:101BB0000E946208182F811117C0D12CC12CAE01D0
:101BC0004F5F5F4F63E8C7010E94030D182F8981A3
:101BD00081110AC0111108C08FEFC81AD80A88EC09
:101BE000C816D10461F719EF41E063E8C7010E940C
:101BF0006208812B0F90DF91CF911F91FF90EF90A2
:101C0000DF90CF900895CF92DF92EF92FF920F93E3
:101C10001F93CF93DF931F92CDB7DEB77C0110E007
:101C200000E06C018EECC80ED11CF6018081AE0183
:101C30004F5F5F4F8430A9F463E1C7010E94030D39
:101C40009981292F2770987111F58823D9F00F9069
:101C5000DF91CF911F910F91FF90EF90DF90CF9088
:101C6000089564E1C7010E94030D8111F0CF9981AD
:101C700090FDEDCF0F5F1F4F083C110531F00E9422
:101C8000CF01D3CF2430B1F7E2CF89EFE0CF8AEF95
:101C9000DECFCF93DF93EC01462F416060E00E94DE
:101CA0006208811111C0CE010E94030E81110CC087
:101CB000CE010E94790D811107C040E060E0CE01A5
:101CC000DF91CF910C946208DF91CF910895CF926C
:101CD000DF92EF92FF920F931F93CF93DF931F92A8
:101CE000CDB7DEB78C01FC01F08841E060E80E94CE
:101CF000620841E06FEFC8010E94620840E060E0C6
:101D0000C8010E946208F801E95DFE4F408161E967
:101D1000C8010E94620841E060E0C8010E946208B8
:101D200040E06FEFC8010E94620840E060E8C8012F
:101D30000E946208F1E0FF16F1F1FF1630F093E027
:101D4000F91609F44AC088EF0CC041E060E0C80110
:101D50000E94620891E09983C12CD12C76018823DE
:101D600089F00F90DF91CF911F910F91FF90EF902D
:101D7000DF90CF900895AE014F5F5F4F60E0C801E4
:101D80000E94030DEFEFCE1ADE0AEE0AFE0A9981D9
:101D900090FF0AC0811108C0F8ECCF16D104E1040D
:101DA000F10449F789EFDDCF98ECC916D104E104BD
:101DB000F104B9F6F7CF811103C0C8010E94140CD9
:101DC00042E060E0C8010E9462088111CACFF801B8
:101DD000E15EFE4F94E09083C4CF811103C0C8013F
:101DE0000E94140C44E0EDCF8F929F92AF92BF926D
:101DF000CF92DF92EF92FF920F931F93CF93DF93D7
:101E000000D000D0CDB7DEB76C014C0188EB881A4A
:101E10008EEF980AD401ED91FC91119783E0808BAD
:101E2000F6011082AD90BC90AE014B5F5F4F68EF42
:101E3000C5010E94DD0B811134C02D813E8162E31A
:101E400070E080E02115310521F0A2E3B0E00E94AE
:101E50006528F501EF5BFE4F90813496E080F180BC
:101E60006C837B838A83198204E010E020E030E0F9
:101E7000AE014F5F5F4F64E0892F0E94F607892B08
:101E800099F482E390E0A0E0B0E0F501868B978BB7
:101E9000A08FB18FD6011C92F401808191810E94A4
:101EA000670ED6018C9303C08CEEF601808381E02F
:101EB000F6019081911180E026960FB6F894DEBF6E
:101EC0000FBECDBFDF91CF911F910F91FF90EF908B
:101ED000DF90CF90BF90AF909F908F9008952F92FA
:101EE0003F924F925F926F927F928F929F92AF92AA
:101EF000BF92CF92DF92EF92FF920F931F93CF93F7
:101F0000DF93CDB7DEB7EC970FB6F894DEBF0FBE08
:101F1000CDBF6C015B01DC0150961C920E94670EE4
:101F200081111CC0C6010E94030E811117C083E0FD
:101F3000F601E15EFE4F8083B696E080F1800CE012
:101F400010E020E030E0AE01465E5F4F64E1349780
:101F500080810E94A809892BD1F08CEEEC960FB6F7
:101F6000F894DEBF0FBECDBFDF91CF911F910F91CF
:101F7000FF90EF90DF90CF90BF90AF909F908F90A9
:101F80007F906F905F904F903F902F900895F50154
:101F9000168AD50110821182128213826CA170E020
:101FA000762F66272DA1620F711D1482158216826D
:101FB0001782E9A1F0E0FE2FEE27FF0F2F01712C11
:101FC000612C1C964D925D926D927C921F978BA115
:101FD00090E0982F8827990F8C0130E020E05096F0
:101FE0000D931D932D933C9353970C8D10E0102F60
:101FF00000272D8D7801E20EF11CFCAEEBAE55965C
:10200000FC92EE9254979A8CD601A75CBE4F2D910C
:102010003C9111975B978C90283E03E03007E9F1E3
:10202000629FC001639F900D729F900D11248C5090
:102030009E4F68EE73E00E949028D6015D96ED9069
:10204000FD900D911C9190975A962C91222329F185
:102050002BAD3CAD2E9DA0012F9D500D3E9D500DF2
:102060001124452F5527E417F50741F460EE7AE86F
:10207000882009F4E3C068EB72E212C09F01DB0123
:102080000E94652883017F01E41AF50A01091109FC
:10209000A80197010E944328B901882009F4CEC005
:1020A000CB019695879596958795D50119969C9322
:1020B0008E9318976295660F660F607C57966C93A7
:1020C0001FA61EA6892D90E07C0173E0F594E7948D
:1020D0007A95E1F7FAAEE9AE09AD0F70902E09F4EA
:1020E000B2C089AD8D7011E018AB853029F084EF56
:1020F000800F843008F018AA41E06FEFC6010E94FB
:102100006208811107C0AE01425D5F4F66EBC601F8
:102110000E94DD0B9EA520E0392F330F790110E0DE
:1021200000E0E9AAFAAA0BAB1CAB811105C040E0A4
:102130006FEFC6010E946208F601EE5CFE4FE9A84F
:10214000FAA80BA91CA9E082F182028313838111F2
:1021500078C1D60195968C909597882009F47FC018
:10216000F501E484F584068517855A968C9120E064
:1021700030E0A901882399F0A489B589F601258D5D
:10218000368D478D50A10E9430289B01AC0120580C
:102190003F4F4F4F5F4F232F342F452F55272E0D85
:1021A0003F1D401F511FA8EEB3E00E943028705819
:1021B0008F4F9F4FBC0188279927F601E65DFE4FA0
:1021C000672B682B692B09F041C08EEA97E8AFE8CE
:1021D000B2E080839183A283B3831EEAE12E17E8E5
:1021E000F12E0FE812E0EDAAFEAA0FAB18AFD50151
:1021F0001B961C921E921A97AE01465D5F4F70E0CF
:1022000060E0C6010E943C0C4AA55BA56CA57DA5BB
:10221000411551056105710559F0FF24F3940DA98D
:102220001EA92FA938AD401751076207730708F0A0
:10223000F12C8823A9F0312C212C07C1F5017187DD
:102240006087178A3DCF01E008AB56CF108211821C
:10225000128213821DAA1EAA1FAA18AEC8CFF12C83
:10226000D60197963C90332009F4C5C0AE014A5D73
:102270005F4F62E070E0C6010E943C0C4EA15FA17E
:1022800068A579A5411551056105710559F0EE2440
:10229000E39409A91AA92BA93CA940175107620781
:1022A000730708F0E12C212C90E0811132C0D60197
:1022B00098962C90222009F4A4C00BAD1CAD0115FA
:1022C000110509F49AC0962D852D742D6627980165
:1022D00050E040E00E94432829013A01AE014F5FDF
:1022E0005F4F63E070E0C6010E943C0C49815A8157
:1022F0006B817C81411551056105710531F091E0DB
:10230000441655066606770608F090E0882309F41F
:1023100079C0D5011B961C921E921A9780E08110FD
:1023200002C0FF24F394F60136A1F3A6F4E09F1651
:1023300009F4A8C021E0311120E0D6019C962C932D
:10234000311002C0EE24E394F601E5A6211001C08D
:1023500091E0D6019E969C93F501808F9601265BB5
:102360003F4F99E1F901DE01119601900D929A9586
:10237000E1F7D5011896ED91FC91199757969C912C
:1023800057971A966D917C911B971C96ED90FD9036
:102390000D911C911F9750964D905D906D907C9083
:1023A000539754964D915C91559714968D909D90AE
:1023B000AD90BC9017978D829E82AF82B886FA87C7
:1023C000E9877C876B87ED86FE860F87188B498AA5
:1023D0005A8A6B8A7C8A5E8B4D8B988F898F89E1B4
:1023E000FE013196D90101900D928A95E1F7C6015F
:1023F0000E94790DB3CDE12C5ACF412C512C3201E2
:102400006DCF90E018A98FEF113009F488CF890DB6
:102410008330F0F026E09216F9F039E09316E1F0FF
:1024200089AD8D708830B1F041E0E41699F054E048
:102430009516F9F09130C1F0F416C1F09F2DEF2CF4
:1024400068CF312C812C212CF12C90E0E12C61CF34
:1024500085E065CF83E063CF84E0811064CFF6012F
:1024600036A121E023A766CF82E0F7CFE92E81E0F5
:10247000F4CF82E0811057CF81E0D6019B968C93F8
:10248000E12C82E021E059CFAF92BF92DF92EF9230
:10249000FF920F931F93CF93DF93CDB7DEB769976A
:1024A0000FB6F894DEBF0FBECDBF8C015B017C017F
:1024B00083EEE81A8EEFF80AF701D08040EC61E075
:1024C000C8010E946208811126C0BE016F5F7F4F64
:1024D000C8010E946F0F81111EC041E06FEFC8015B
:1024E0000E946208811117C0A50166EBC8010E9415
:1024F000DD0B811110C040E06FEFC8010E9462083F
:10250000811109C04D2D61E0C8010E94620881114E
:1025100002C0F701D08269960FB6F894DEBF0FBEF5
:10252000CDBFDF91CF911F910F91FF90EF90DF9082
:10253000BF90AF9008950F931F93CF93DF93CDB7C4
:10254000DEB769970FB6F894DEBF0FBECDBF8C0122
:10255000FC01E85BFE4FBE016F5F7F4F8081918180
:102560000E946F0FF8018083E355FE4F998D908391
:1025700081110DC089859A8569960FB6F894DEBFE2
:102580000FBECDBFDF91CF911F910F9108958FEFB7
:102590009FEFF2CF0F931F93CF93DF931F92CDB78F
:1025A000DEB78B011982AE014F5F5F4F61E00E9481
:1025B000030D811116C0998194FB332730F9F8017E
:1025C000308393FB332730F9328392FB332730F982
:1025D000318396FB222720F92383991F9927991F7E
:1025E00094830F90DF91CF911F910F9108952F92B7
:1025F0003F924F925F926F927F928F929F92AF9293
:10260000BF92CF92DF92EF92FF921F93CF93DF930F
:1026100000D000D000D01F921F92CDB7DEB76C0162
:102620001A011B861F821E82623009F06EC0AE0145
:10263000465F5F4F60E00E94AC0D182F811108C00B
:10264000AE01455F5F4F66E4C6010E94030D182F7F
:10265000AA85B0E020E03FE24AE350E00E94302843
:102660002B013C0124EF420E21E0521E611C711C23
:10267000CB84D12CF12CE12C8FEFC81AD80AE80AB0
:10268000F80A98EE892E93E0992EA12CB12CC30163
:10269000B201A50194010E944328CA01B901A70112
:1026A00096010E9474286B017C01C301B20120EDE8
:1026B00037E040E050E00E944328C701B601620FB6
:1026C000731F841F951FA50194010E944328F101E7
:1026D0002083318342835383812F2B960FB6F89446
:1026E000DEBF0FBECDBFDF91CF911F91FF90EF9066
:1026F000DF90CF90BF90AF909F908F907F906F9022
:102700005F904F903F902F900895633009F043C041
:10271000AE01465F5F4F60E00E94AC0D182F20E0D5
:1027200030E0A9018111D3CFAE01465F5F4F60E079
:10273000C6010E94AC0D182F811108C0AE014A5F7E
:102740005F4F61E5C6010E94DD0B182FEE81FF810E
:10275000AA85B0E020E03FE24AE350E00E94302842
:102760002B013C0124EF420E21E0521E611C711C22
:102770006F01DD24F12CE12C04C0CC0CDD1CEE1C1F
:10278000FF1CFA95D2F78FEFC81AD80AE80AF80AA0
:10279000EE24FF2476CFBE016F5F7F4F0E94CA12E6
:1027A0008C81882351F1AE01465F5F4F60E0C60126
:1027B0000E94AC0D182FF12CE12C81111BC0AE0131
:1027C0004A5F5F4F61E5C6010E94DD0B182F2E8125
:1027D0003F81C9019927B0E0A0E004C0880F991F8C
:1027E000AA1FBB1F3A95D2F70196A11DB11D7C010E
:1027F000112329F0D12CC12C25C0F12CE12CAE01E4
:10280000465F5F4F61E0C6010E94AC0D182F811139
:10281000F1CFAE01485F5F4F61E7C6010E94DD0B5B
:10282000182F28853985C9019927B0E0A0E004C098
:10283000880F991FAA1FBB1F3A95D2F70196A11DB9
:10284000B11D6C01AA85B0E020E03FE24AE350E010
:102850000E9430282B013C01E4EF4E0EE1E05E1EA9
:10286000611C711C88EE882E83E0982EA12CB12C5F
:10287000C301B201A50194010E944328D601AE19FB
:10288000BF090E9430280FCF4F925F926F927F92C4
:10289000BF92CF92DF92EF92FF920F931F93CF934D
:1028A000DF9300D01F92CDB7DEB78A01AE014F5F34
:1028B0005F4F0E94F712B82E81112AC069817A8178
:1028C0008B819C8128EE422E23E0522E612C712CAC
:1028D000A30192010E94432869017A019B01AC0186
:1028E000AFEFBFEF0E9430286C507E4F8F4F9F4F4D
:1028F000A30192010E9443287601DD24CC24C20E5C
:10290000D31EE41EF51EF801C082D182E282F3825A
:102910008B2D0F900F900F900F90DF91CF911F9103
:102920000F91FF90EF90DF90CF90BF907F906F90CE
:102930005F904F9008955F926F927F928F929F92D7
:10294000AF92BF92CF92DF92EF92FF920F931F93BD
:10295000CF93DF93CDB7DEB761970FB6F894DEBFA4
:102960000FBECDBF7C018B01FC018089FB01808300
:10297000AE014A5F5F4F68EFC7010E94DD0B582E22
:1029800081113AC1AE014F5F5F4F64E0C7010E9401
:10299000940B582E811130C12E813F8121153105B4
:1029A00069F050E040E069817A818B819C810E94CE
:1029B0004328F8012683378340875187F8018681B1
:1029C0009781A085B185F701868B978BA08FB18FFA
:1029D000F8011286AE014F5F5F4F60E2C7010E94AF
:1029E000DD0B582E811108C189819A81009709F069
:1029F0001AC1F701858D968DA78DB0A1F801858745
:102A00009687A787B08BF701128EAE014F5F5F4F9D
:102A100068E2C7010E94DD0B582E8111EDC089814B
:102A20009A819F708115F8E09F0708F090514AEF56
:102A3000489F9001499F300D1124C901330FAA0B03
:102A4000BB0BF801818B928BA38BB48B5801F1E205
:102A5000AF0EB11C470125E2820E911C380185E1C1
:102A6000680E711CD12CC12CA501B601C7010E94B2
:102A70003C0C582E8111C0C0F40181914F01F3012B
:102A800081933F01FFEFCF1ADF0A24E0A20EB11CB1
:102A900086E0C816D10441F7AE014F5F5F4F61E099
:102AA000C7010E94030D582E8111A6C08981F7012C
:102AB000E35EFE4F808387FFCAC081E0F80181AFEB
:102AC000F80181ADF701E75BFF4F808380ED97E070
:102AD000A0E0B0E08A879B87AC87BD871E821F82FB
:102AE0001886198686E39BE0A0E0B0E0F8018283B7
:102AF0009383A483B583BE016F5F7F4FC7010E949C
:102B0000CA12582E811178C08981811107C08A812B
:102B1000811104C08B81882309F43EC0AE01465F59
:102B20005F4F62E0C7010E94F7128111C1C0898125
:102B30008823A9F08A859B85AC85BD85825B9D4FE6
:102B4000AF4FBF4FF8014281538164817581840F7B
:102B5000951FA61FB71F82839383A483B5838B81A0
:102B6000882309F477C08A859B85AC85BD858E5402
:102B70009D4FAF4FBF4F880F991FAA1FBB1FF80172
:102B80004281538164817581840F951FA61FB71FF1
:102B900082839383A483B5838C81811168C08D81E6
:102BA000882301F1AE01425F5F4F64E0C7010E94DC
:102BB000F7128E849F84A888B988F6E28F0EF2E01F
:102BC0009F1EA11CB11CF801428153816481758153
:102BD000480D591D6A1D7B1D428353836483758391
:102BE000811166C0F80182819381A481B581F701CA
:102BF000828B938BA48BB58B852D61960FB6F89441
:102C0000DEBF0FBECDBFDF91CF911F910F91FF901F
:102C1000EF90DF90CF90BF90AF909F908F907F907C
:102C20006F905F90089533E0880F991F3A95E1F710
:102C3000B0E0A0E0F80185879687A787B08BF70101
:102C4000858F968FA78FB0A381E0828FDECEF801AB
:102C500011AE36CF8A81882309F49ECF8A859B8561
:102C6000AC85BD858C569D4FAF4FBF4F88CFAE0111
:102C70004A5F5F4F63E0C7010E94F7128E809F801A
:102C8000A884B984F4E98F0EF2E09F1EA11CB11C48
:102C9000F8014281538164817581480D591D6A1D77
:102CA0007B1D4283538364837583882309F477CF24
:102CB000582EA2CF2F923F924F925F926F927F92A7
:102CC0008F929F92AF92BF92CF92DF92EF92FF923C
:102CD0000F931F93CF93DF93CDB7DEB769970FB6EE
:102CE000F894DEBF0FBECDBF00ED17E020E030E06E
:102CF0000B871C872D873E871F86188A198A1A8A98
:102D000040322EE4520761057105E0F45CEFB52E08
:102D10008B2D69960FB6F894DEBF0FBECDBFDF9145
:102D2000CF911F910F91FF90EF90DF90CF90BF90C8
:102D3000AF909F908F907F906F905F904F903F905B
:102D40002F9008954E8B5F8B688F798F8C01BE0119
:102D50006A5F7F4F0E94CA12B82E8111D9CFCE88E8
:102D6000DF88E88CF98C88EEC81A88E0D80AE10878
:102D7000F1088E81811106C08F81811103C0888581
:102D80008823C1F1AE01455F5F4F62E0C8010E9438
:102D9000F71281110AC18E81882391F08B859C8561
:102DA000AD85BE85825B9D4FAF4FBF4F8C159D0596
:102DB000AE05BF0508F0AACFC81AD90AEA0AFB0A6D
:102DC0008885882309F471C08B859C85AD85BE8577
:102DD0008E549D4FAF4FBF4F880F991FAA1FBB1F27
:102DE0008C159D05AE05BF0508F090CFC81AD90A0D
:102DF000EA0AFB0A89858823D9F0AE01415F5F4F5B
:102E000063E0C8010E94F7124F85588969897A8961
:102E10004C565D4F6F4F7F4F4C155D056E057F051E
:102E200008F074CF8111C1C0C41AD50AE60AF70AA6
:102E30008A85882309F46CCFBE016F5F7F4FC8017C
:102E40000E94CA128C818823E9F1AE014B5E5F4F6C
:102E500060E0C8010E94AC0DB82E81111CC0AE010B
:102E60004D5E5F4F61E5C8010E94DD0BB82E8B8976
:102E70009C891C013324512C412C04C0220C331C8E
:102E8000441C551C9A95D2F79FEF291A390A490A12
:102E9000590ABB20C9F08E899F89A88DB98DF80188
:102EA000828B938BA48BB58B33CF8F81882309F4CE
:102EB000A1CF8B859C85AD85BE858C569D4FAF4F30
:102EC000BF4F8ECF312C212CAE014B5E5F4F61E0A6
:102ED000C8010E94AC0DB82E8111DDCFA6E2CA1A3E
:102EE000A2E0DA0AE108F108AD89B0E020E03FE2B3
:102EF0004AE350E00E9430284B015C01B4EF8B0E96
:102F0000B1E09B1EA11CB11CA8EEB3E0A701960185
:102F10000E9430282B013C01C501B40120ED37E0AF
:102F200040E050E00E944328420E531E641E751E6E
:102F3000C501B40128EE33E040E050E00E94432890
:102F4000C301B2010E944328220E331E2114310412
:102F5000E1F04101B12CA12CE1E08E1A9108A10809
:102F6000B10890E080E0B501A4014427452B462B31
:102F7000472B31F0B694A794979487940196F3CF9A
:102F8000982F88271C01280C391CA10161E7C80172
:102F90000E943708B82E81117ECFF801E153FF4F10
:102FA000C082D182E282F38276CFB82EB1CE7F92F8
:102FB0008F929F92AF92BF92CF92DF92EF92FF9249
:102FC0000F931F93CF93DF931F92CDB7DEB77C0192
:102FD0005B016A01722E4C0183EE881A8EEF980A0B
:102FE000F4011081198241E061E0C7010E9462088A
:102FF00081114AC060E4C7010E94490E811144C09A
:10300000F1E07F121AC000E021E0AE014F5F5F4F98
:10301000B501C7010E94200D882389F00F90DF9130
:10302000CF911F910F91FF90EF90DF90CF90BF90C5
:10303000AF909F908F907F900895F501108242E0AD
:1030400061E0C7010E946208811124C060E0C701ED
:103050000E94490E81111EC0F1E07F1218C001E0EC
:1030600020E0A601BE016F5F7F4FC7010E94200DC7
:103070008111D4CF412F61E0C7010E946208811104
:10308000CDCFF4011083CACFF5011082C7CFF6016E
:103090001082F0CFF601F9CF2F923F924F925F92BC
:1030A0006F927F928F929F92AF92BF92CF92DF9258
:1030B000EF92FF920F931F93CF93DF93CDB7DEB7BD
:1030C000AC970FB6F894DEBF0FBECDBF1C017FA337
:1030D0006EA359A748A71F82188619861A861B86D1
:1030E0001C861D861E86198A1A8AFC01E85DFE4F21
:1030F00020813181398F288FAC014F5E5E4F5B8F0D
:103100004A8FDA011C922C01BEEE4B1ABEEF5B0A0D
:10311000F20110823C01FDEE6F1AFEEF7F0AD3012F
:103120001C92FC01EC5EFE4F1082319610823196AB
:10313000108241E06FEF0E9462088B8B81111DC1EC
:1031400040E06FE4C1010E9462088B8B811115C1C0
:103150004CE26EE4C1010E9462088B8B81110DC1AB
:1031600040E06FEFC1010E9462088B8B811105C1A5
:1031700044EB66EBC1010E9462088B8B8111FDC09C
:1031800040E060E8C1010E9462088B8B8111F5C0AC
:1031900020E0AE014E5E5F4FBE016F5E7F4FC1010A
:1031A0000E94D7178B8B8111E8C01F821886198661
:1031B0001A86F101E95EFE4FFD8FEC8F9E01295FBB
:1031C0003F4F4901A3E0AA2EB12CC12CD12CE12CF8
:1031D000F12C87012A8D3B8DAF0160E0C1010E9477
:1031E000AF0A8B8B8111C9C04F81588569857A855B
:1031F0004C8B5D8B6E8B7F8BBE01615F7F4FC101FE
:103200000E9444128B8B8111B8C08F859889688D7C
:10321000798D6817790708F0D3C0AA8DBB8D1C92F1
:10322000F2011082D3011C923296108231961082E4
:10323000319610828C899D89AE89BF898C549F4FAD
:10324000AF4FBF4FE6E0B695A79597958795EA955E
:10325000D1F7880F991F880F991F8D509D4FFC0142
:1032600080819181A281B381892B8A2B8B2B91F450
:103270002C893D894E895F892C32310541055105E4
:1032800048F42F5F3F4F4F4F5F4F2C8B3D8B4E8B42
:103290005F8BD0CFAE01495F5F4F4A0173E0A72E2D
:1032A000B12CC12CD12CEC88FD880E891F892A8D68
:1032B0003B8D4C8D5D8D61E0C1010E94AF0A811193
:1032C00059C16F81788589859A856C8B7D8B8E8BB2
:1032D0009F8BBE01615F7F4FC1010E94441281112B
:1032E00049C18F859889A88DB98D11E063E0462E7C
:1032F000512C612C712CA817B90720F010E0412C3B
:10330000512C3201C12CD12C7601C39460C0D5015F
:10331000C4010196A11DB11D8C8B9D8BAE8BBF8B03
:1033200086E0EAA5FBA5ACA5B02F01900D928A9589
:10333000E1F74E8C5F8C68A079A04AA35BA36CA3D5
:103340007DA36FC04E8C5F8C68A079A0AEA1BFA199
:103350004D925D926D927C921397E8A5F9A510832A
:10336000F101EC5FFE4F81E0808332978C91808386
:10337000A8A5B9A58C91319680838B89AC960FB6A0
:10338000F894DEBF0FBECDBFDF91CF911F910F919B
:10339000FF90EF90DF90CF90BF90AF909F908F9075
:1033A0007F906F905F904F903F902F900895BEEC6C
:1033B000BB8BE3CFEEECEB8BE0CFFEECFB8BDDCFFA
:1033C00010E0412C512C3201C12CD12C76018F857B
:1033D0009889288D398D8217930708F0B7CF46E07A
:1033E000EA8DFB8D9E012F5F3F4FD90101900D9219
:1033F0004A95E1F7E88DF98D8E1B9F0BAC0170E0CB
:1034000060E04AA35BA36CA37DA353E0452E512C3F
:10341000612C712CB1016F5E7E4F7BA76AA72CA730
:10342000032F9E01255F3F4F4C895D896E897F89FF
:103430008C8D9D8D0E94F7018B849C84AD84BE840D
:103440007FEF87169706A706B70609F4B0CFD3011A
:10345000C2010196A11DB11D8E8F9F8FA8A3B9A394
:10346000D501C4018C549F4FAF4FBF4F36E0B69586
:10347000A795979587953A95D1F7880F991F880F4B
:10348000991F8D509D4F11E0FC0180819181A28197
:10349000B381892B8A2B8B2B09F410E0812F90E0CC
:1034A000B0E0A0E08C159D05AE05BF0509F082CF08
:1034B000D501C40123E0B695A795979587952A95E0
:1034C000D1F7B501A40147705527662777278630C5
:1034D0009105A105B10508F070CFEA8DFB8DE80FCD
:1034E000F91F21E030E001C0220F4A95EAF7808100
:1034F000822B80836A8D7B8DC1010E9462098111BC
:1035000039C0BE01615F7F4FC1010E944412811129
:1035100031C08F859889288D398DAC01421B530BA2
:103520008217930711F450E040E070E060E0A88D4E
:10353000B98DA817B90708F0EACE8AA19BA1ACA162
:10354000BDA184179507A607B70708F0FBCEBE01FB
:103550006F5F7F4FC1010E94620996E0FE013196C4
:10356000D101AF5EBE4F01900D929A95E1F788238D
:1035700009F4ECCE8B8B01CF9F92AF92BF92CF928A
:10358000DF92EF92FF920F931F93CF93DF93CDB70C
:10359000DEB7A0970FB6F894DEBF0FBECDBF6C01AB
:1035A0002FEDC20ED11CF601A080F7E0F12CAF1672
:1035B00009F4EEC0B62E8C0141E060E80E9462087A
:1035C000F82E41E06FEFC8010E946208F82A40E03F
:1035D00060E0C8010E946208F82A46E06FEFC80167
:1035E0000E946208F82AAE01425E5F4F63E8C8019C
:1035F0000E94030DF82A4E8D446063E8C8010E94C2
:103600006208F82A47E06FEFC8010E946208F82AB2
:1036100041E061E8C8010E946208F82A0E94CF01D7
:10362000F82A41E060E8C8010E946208F82A21E017
:10363000B212C1C0A0FC02C24BE664E9C8010E94FC
:103640006208E82EC8010E94CB0D8E29F82AAE012F
:10365000465E5F4F60E9C8010E94940BF82A8A8D8C
:103660009B8DAC8DBD8D992EE89497F897FBEE2439
:10367000E0F844E264E9C8010E946208F82AC8013F
:103680000E94CB0DF82AAE01465E5F4F60E9C8018B
:103690000E94940BF82A8A8D9B8D2C8D3D8D3C8B3E
:1036A0002D8B9E8B8F8B45E264E9C8010E946208D6
:1036B000F82AC8010E94CB0DF82AAE01465E5F4F82
:1036C00060E9C8010E94940BF82A8C8D9D8D988F1B
:1036D000898F40E061E8C8010E946208F82A46E04C
:1036E0006FEFC8010E946208F82AAE01425E5F4F88
:1036F00063E8C8010E94030DF82A4E8D4B7F63E8F2
:10370000C8010E946208F82A41E06FEFC8010E94D8
:103710006208F82A41E060E0C8010E946208F82AC5
:1037200040E06FEFC8010E946208F82A40E060E8BC
:10373000C8010E946208F82A59F5F1E0BF1699F015
:10374000A1FC23C0F801E052FF4F8F8D808331969A
:1037500088A18083BE016F5F7F4FC8018E519F4F4C
:103760000E94AC2812C0A0FC10C0F801EE5FFE4F12
:1037700090823196E082DE0154967496035E1E4F6D
:103780008D9181930E171F07D9F7BA28F601B082E1
:103790008F2DA0960FB6F894DEBF0FBECDBFDF9180
:1037A000CF911F910F91FF90EF90DF90CF90BF903E
:1037B000AF909F900895A1FC41C142E064E9C80127
:1037C0000E946208E82EC8010E94CB0D8E29F82ABB
:1037D000AE01415E5F4F60E9C8010E94030DF82A07
:1037E0004BE764E9C8010E946208F82AC8010E94F8
:1037F000CB0DF82AAE01405E5F4F60E9C8010E9420
:10380000030DF82A47E764E9C8010E946208F82A14
:10381000C8010E94CB0DF82AAE01465E5F4F60E9F9
:10382000C8010E94940BF82A4A8D5B8D6C8D7D8DAA
:10383000DB01CA0129E1B695A795979587952A9549
:10384000D1F78983DB01CA0132E1B695A795979537
:1038500087953A95D1F78F778A83DB01CA01EBE030
:10386000B695A79597958795EA95D1F78F778B832E
:10387000DB01CA01F4E0B695A79597958795FA956F
:10388000D1F78F778C83440F440F440F48774E8FC6
:1038900048E764E9C8010E946208F82AC8010E944A
:1038A000CB0DF82AAE01465E5F4F60E9C8010E9469
:1038B000940BF82A8A8D9B8DAC8DBD8DAC01BD011A
:1038C0002DE176956795579547952A95D1F72E8DD9
:1038D000240F2D83AC01BD0136E176956795579590
:1038E00047953A95D1F74F774E83AC01BD01EFE094
:1038F0007695679557954795EA95D1F74F774F831A
:10390000292F2F772887AC01BD01769567955795AC
:1039100047954F774987982F9295990F990F9074F3
:103920009E8F49E764E9C8010E946208F82AC8012D
:103930000E94CB0DF82AAE01465E5F4F60E9C801D8
:103940000E94940BF82A8A8D9B8DAC8DBD8DAC01A5
:10395000BD012AE176956795579547952A95D1F748
:103960002E8D240F2A87AC01BD0133E17695679532
:10397000579547953A95D1F74F774B87AC01BD01E5
:10398000ECE07695679557954795EA95D1F74F778F
:103990004C87AC01BD01F5E0769567955795479545
:1039A000FA95D1F74F774D87982F990F990F9C77FC
:1039B0009E8F4AE764E9C8010E946208F82AC8019C
:1039C0000E94CB0DF82AAE01465E5F4F60E9C80148
:1039D0000E94940BF82A8A8D9B8DAC8DBD8DAC0115
:1039E000BD012EE176956795579547952A95D1F7B4
:1039F0002E8D240F2E87AC01BD0137E1769567959A
:103A0000579547953A95D1F74F774F872A2F2F77BC
:103A1000288BAC01BD01E9E07695679557954795F0
:103A2000EA95D1F74F77498BF2E0B695A795979530
:103A30008795FA95D1F78F778A8B1B8AE12C912C89
:103A400048CE2F923F924F925F926F927F928F92C9
:103A50009F92AF92BF92CF92DF92EF92FF920F931D
:103A60001F93CF93DF93CDB7DEB7C954D1090FB6FB
:103A7000F894DEBF0FBECDBF3C01B62E1C0188EB13
:103A8000281A8EEF380AD101ED91FC911197EF5B66
:103A9000FE4F89E28083ED91FC911197EE5BFE4F22
:103AA00081E08083ED91FC911197ED5BFE4F80E901
:103AB00091E091838083ED91FC91EB5BFE4F82ED71
:103AC00094E0918380831092340410923304109216
:103AD0003204109231040E944A0688E792E09093E3
:103AE000300480932F0489E792E090932E04809312
:103AF0002D042301BFEF4B1A5B0A21E04EEF69E86A
:103B0000C2010E94B10C811105C040E068E8C20109
:103B10000E946208AE01455C5F4F60ECC2010E94EA
:103B2000030DF301E052FF4F108288EE93E0E65A56
:103B3000FF4F9183808380E991E032969183808367
:103B400085E89BE6A1E0B0E0329680839183A28372
:103B5000B38384EA90E7A9E0B0E0E557F1098083F8
:103B60009183A283B383F301168E178E10A211A244
:103B7000BE016F5F7F4FC2010E949B14082F81110D
:103B80000BC019821A828AE3FE013196D301519645
:103B900001900D928A95E1F784E690E0F301EE5DE5
:103BA000FE4F9183808384E893E0329691838083F3
:103BB00084EF91E032969183808380E09AE033969F
:103BC0009183808381E07096808341E060E8C20148
:103BD0000E946208182F41E06FEFC2010E94620844
:103BE000182B102B40E060E0C2010E946208182BE5
:103BF000AE01415C5F4F61E9C2010E94030D182BC9
:103C00008FADF301E85DFE4F808341E060E0C201CB
:103C10000E946208182B40E06FEFC2010E94620808
:103C2000182B40E060E8C2010E946208912F982B97
:103C3000730110E000E0AA24A3946301F4E0CF0E26
:103C4000D11C9111ABC10330110509F491C07CF472
:103C500001301105D1F00230110509F485C0D301FE
:103C60009696AC92D7019696AC9280E020C0043034
:103C7000110509F480C020E04FEE0530110579F7F9
:103C800060E6C2010E94B10C10C0F60142A953A91E
:103C900064A975A9E9E07695679557954795EA95E2
:103CA000D1F764E4C2010E9437088823D9F20F5F7C
:103CB0001F4FBFEFEB1AFB0A982F0630110509F0D2
:103CC000C0CF811169C0F30110A611A622E04EEF0A
:103CD00060E6C2010E94B10C81115EC0D3019A96C8
:103CE0001C9220E14FEE60E6C2010E94B10C8111EE
:103CF00053C0F30113A686A1811140C080E090E07B
:103D0000A2E1B0E082AB93ABA4ABB5ABD301979685
:103D10008C91811138C080E090E4A0E0B0E0F30124
:103D200086AB97ABA0AFB1AF80E090E0A3E2B0E08C
:103D300082AF93AFA4AFB5AFFE961082118212820C
:103D400013828FEFE052FF4F80834FEF61E0C2019B
:103D50000E94620891E0F301E05EFE4F90838111C2
:103D60001BC07B97108218C0D3019896AC927ACF73
:103D7000F301A1A677CF20E04EEF82CF80E090E064
:103D8000A2E1B0E0BFCF40E250E064E4C2010E9493
:103D90003708882309F4BFCFD3018C934B2D6AE8F1
:103DA000F101808191810E946208D3018C936AE0C5
:103DB00070E080E090E00E944A03F301808181116D
:103DC00091C1D101ED91FC91EF5BFE4FB08262E0B9
:103DD000C2010E94BC1A811135C08301065B1E4FCF
:103DE000C30186579E4FF301EF51FF4F20812111F0
:103DF000D7C069E273E00E94AC286AE273E0C801B0
:103E00000E94AC2863E673E0C80180960E94AC284B
:103E1000A30146555E4F60ECC2010E94030D811163
:103E200011C0AE014F5F5F4F62ECC2010E94030DF3
:103E300091E0F301E555FE4F90833196998192957B
:103E40009F709083D3018C9381110DC0F301E555D0
:103E5000FE4F8081813021F431968081813019F0CC
:103E60008BEFF3018083D3018C918111CCC0F101E0
:103E70004080518025961FAE1EAE259728961FAE16
:103E8000289727961FAE279723961CAE1DAE1EAE11
:103E90001FAE239761E0C2010E94BC1AF201ED5FE0
:103EA000FE4F808129968FAF2997823008F09DC000
:103EB000319790812A969FAF2A97A92EB12CD12CA9
:103EC000C12C813009F08AC0A1E2AA16B104C10454
:103ED000D10408F08AC041E06FEFC2010E9462087D
:103EE00081111AC040E06FE4C2010E946208811192
:103EF00013C04CE26EE4C2010E94620881110CC042
:103F000040E06FEFC2010E946208811105C044EBDE
:103F100066EBC2010E94620892012F5E3E4FF901DA
:103F2000108231961082319610823196108231962D
:103F30001082319610822996FFAD2997E12CF12C41
:103F40008701FF2309F4E9C0D801C7018C549F4FB2
:103F5000AF4FBF4F46E0B695A795979587954A9581
:103F6000D1F7880F991F880F991F8D509D4FFC0125
:103F700080819181A281B381892B8A2B8B2B09F0BF
:103F8000CCC0FCE2EF16F1040105110509F4C5C02F
:103F90008FEFE81AF80A0F4F1F4FD6CF892FFCCEAC
:103FA000F301EE51FF4FF080B3016D517F4F0E943E
:103FB000AC28FF2009F421CFB2E2BF1540F0E0E2C7
:103FC00066E373E0FE121BCF62E473E018CFF6E203
:103FD0006EE473E0FF1508F412CFF6CFBDE0AB1628
:103FE000B104C104D10408F476CFAE014A5B5F4F3F
:103FF000BE01615C7F4FC2010E944C18882309F406
:10400000A9C0F3018083D3018C9181110DC0AE0151
:104010004D5B5F4FBE016F5F7F4FF10180819181EA
:104020000E944C18D3018C93F301808181110EC042
:1040300021E0AE01455C5F4FBE01615C7F4FD10165
:104040008D919C910E94D717F3018083D3018C91AD
:10405000811106C0D101ED91FC91108AF30110820B
:10406000D3018C9181113AC0D101ED91FC9111974E
:10407000FF24F394F5A2F30110820D911C91D80155
:10408000D5964D915D916D917C91D89789E076950B
:104090006795579547958A95D1F764E4C8010E94C2
:1040A0003708811102C0F801F6A2D3018C93811167
:1040B00015C0D101ED91FC91119781E080A7F3012A
:1040C0001082ED91FC91FD9684ED98E0A0E0B0E0C7
:1040D00080839183A283B383D3011C9281E0F30197
:1040E0009081911180E0C75BDF4F0FB6F894DEBF7F
:1040F0000FBECDBFDF91CF911F910F91FF90EF9039
:10410000DF90CF90BF90AF909F908F907F906F90F7
:104110005F904F903F902F900895DE0111964D01D2
:10412000A201495E5E4F29966FAD2997C2010E9498
:10413000AF0A811163CF81E0F201EC5FFE4F808313
:1041400032972A96BFAD2A97B083319629968FADC4
:1041500029978083F201E85CFE4F808160E072E085
:10416000811103C0329760817181C2010E948A0867
:10417000811147CF44E06AE0C2010E9462088111C8
:1041800040CF20E04FEE64E8C2010E94B10C8111E3
:1041900038CF84E0F201E253FF4F8083C2010E94D6
:1041A000790D81112ECF41E06FEFC2010E946208AC
:1041B000182FAE014D5B5F4F64E8C2010E94DD0B1A
:1041C000182B40E06FEFC2010E946208812B09F0BA
:1041D00018CFF201E853FF4F25968EAD9FAD25977E
:1041E00024E0880F991F2A95E1F7B0E0A0E08083D2
:1041F0009183A283B383BE016F5F7F4FC2010E9490
:104200009B148111FECEAE01495B5F4F69E0C20194
:104210000E94030D8111F5CE28968FAD28978170ED
:1042200028968FAF2897F201E25EFE4F80838AE3E3
:10423000FE013196D201509601900D928A95E1F7D8
:10424000AE01495B5F4F61E0C2010E94030D811125
:10425000D8CE8201035E1E4F28968FAD2897D801D5
:104260008C931BAEAE01455C5F4F61E0C2010E94C2
:10427000030D8111C6CE8BADF82EE894F4F884FFBF
:1042800013C04F2D61E0C2010E9462088111B9CEB6
:10429000F801F082D20152964D915D916D917C9121
:1042A0005597C2010E945A161BAEAE01455C5F4F86
:1042B00061E0C2010E94030D8111A3CE8BADF82EE7
:1042C000E894F2F882FF13C04F2D61E0C2010E9412
:1042D0006208811196CEF801F082D20152964D917A
:1042E0005D916D917C915597C2010E945A1683E0B1
:1042F000F201E15EFE4F8083AE014B5B5F4F60E0F9
:10430000C2010E94AC0D81117CCE26968FAD2697FE
:10431000F201E852FF4F8083AE014B5B5F4F61E0DB
:10432000C2010E94AC0D81116CCE26968FAD2697EE
:10433000F201ED52FF4F8083AE01455C5F4F63E0B9
:10434000C2010E94441481115CCE8BAD9CADADAD19
:10435000BEADF201EC52FF4F80839183A283B38301
:10436000AE01455C5F4F64E0C2010E9444148111BC
:1043700048CEF201E153FF4F4BAD5CAD6DAD7EAD6C
:1043800040835183628373833CCE85ED8093BC0070
:104390008091FE039091FF03A0910004B09101046D
:1043A0000796A11DB11D23E0B695A7959795879512
:1043B0002A95D1F72091BC0024FD03C01092FC0384
:1043C00008954091FE035091FF03609100047091A5
:1043D0000104452B462B472B69F30097A105B10536
:1043E00041F025E32A95F1F700000197A109B109F1
:1043F000E1CF8091FD030C9468061F920F920FB6D7
:104400000F9211242F933F938F939F93AF93BF935A
:104410008091250490912604A0912704B09128044E
:104420003091240423E0230F2D3758F50196A11D68
:10443000B11D209324048093250490932604A09317
:104440002704B09328048091290490912A04A09114
:104450002B04B0912C040196A11DB11D8093290459
:1044600090932A04A0932B04B0932C04BF91AF9196
:104470009F918F913F912F910F900FBE0F901F90A2
:10448000189526E8230F0296A11DB11DD2CF1F92C9
:104490000F920FB60F9211240BB60F922F933F93EA
:1044A0004F935F936F937F938F939F93AF93BF933C
:1044B000EF93FF9385E394E00E94F003FF91EF9167
:1044C000BF91AF919F918F917F916F915F914F912C
:1044D0003F912F910F900BBE0F900FBE0F901F902A
:1044E00018951F920F920FB60F9211240BB60F92D0
:1044F0002F938F939F93EF93FF93E0914504F09157
:1045000046048081E0914B04F0914C0482FD1DC073
:10451000908180914E048F5F8F7320914F0482179A
:1045200041F0E0914E04F0E0EB5CFB4F958F8093FF
:104530004E04FF91EF919F918F912F910F900BBEA1
:104540000F900FBE0F901F9018958081F2CF1F9291
:104550000F920FB60F9211240BB60F922F933F9329
:104560004F935F936F937F938F939F93AF93BF937B
:10457000EF93FF9348E251E064E271E090E080E065
:104580000E946905FF91EF91BF91AF919F918F912B
:104590007F916F915F914F913F912F910F900BBE43
:1045A0000F900FBE0F901F9018951F920F920FB68D
:1045B0000F9211240BB60F922F933F934F935F935B
:1045C0006F937F938F939F93AF93BF93EF93FF93DB
:1045D00048EA50E064EA70E083E090E00E946905F8
:1045E000FF91EF91BF91AF919F918F917F916F91CB
:1045F0005F914F913F912F910F900BBE0F900FBE87
:104600000F901F9018951F920F920FB60F921124C2
:104610000BB60F922F933F934F935F936F937F93BC
:104620008F939F93AF93BF93EF93FF9348E950E02D
:1046300064E970E082E090E00E946905FF91EF91EB
:10464000BF91AF919F918F917F916F915F914F91AA
:104650003F912F910F900BBE0F900FBE0F901F90A8
:1046600018951F920F920FB60F9211240BB60F924E
:104670002F933F934F935F936F937F938F939F936A
:10468000AF93BF93EF93FF9348E850E064E870E086
:1046900081E090E00E946905FF91EF91BF91AF9199
:1046A0009F918F917F916F915F914F913F912F914A
:1046B0000F900BBE0F900FBE0F901F9018951F927A
:1046C0000F920FB60F9211240BB60F922F933F93B8
:1046D0004F935F936F937F938F939F93AF93BF930A
:1046E000EF93FF938091B900887F803609F44DC025
:1046F00008F040C0883209F4A9C028F5803109F4D7
:104700009DC0C8F4882309F4FBC0883009F496C022
:10471000FF91EF91BF91AF919F918F917F916F9199
:104720005F914F913F912F910F900BBE0F900FBE55
:104730000F901F901895883109F488C0803241F796
:104740008093FA0314C0803409F49DC040F4803390
:10475000B9F38833E9F68093FA0385ECB0C080356D
:1047600009F485C0883509F496C0883489F60E941A
:10477000C521CECF883909F48CC038F5883729F0A7
:1047800050F4883611F0803719F683E08093FC03EB
:104790001092CF0357C0883809F47BC0803919F0D4
:1047A000803809F0B5CF8091CF03803208F071C016
:1047B000E091CF0381E08E0F8093CF038091BB0007
:1047C000F0E0E155FC4F80833DC0803B39F0E0F4E0
:1047D000803A09F479C0883A09F09ACF84E080934E
:1047E000FC031092AE031092AD03E0912F04F09100
:1047F000300419958091AD0381110FC081E0809341
:10480000AD0310928D0309C0803C09F4A6CF883C0B
:1048100009F4A3CF883B09F07BCFE091AE0381E0A0
:104820008E0F8093AE03F0E0E357FC4F80818093BE
:10483000BB009091AE038091AD0329C08091F70336
:104840008093BB0085EC8093BC0062CF9091F9030C
:104850008091F803981758F5E091F90381E08E0FE5
:104860008093F903F0E0EA52FC4F8081E9CFE091B8
:10487000F90381E08E0F8093F9038091BB00F0E093
:10488000EA52FC4F80839091F9038091F8039817C6
:10489000C8F285E8D8CFE091F90381E08E0F8093CC
:1048A000F9038091BB00F0E0EA52FC4F80838091D5
:1048B000FB0381115CCF81E08093F60384EA80934F
:1048C000BC001092FC0324CF85EC8093BC001092B6
:1048D000FC038091CF03803230F4E091CF03F0E00D
:1048E000E155FC4F10826091CF0370E0E0912D0400
:1048F000F0912E048FEA93E019951092CF0308CF20
:104900001092FA0334CF109238041092370488EED4
:1049100093E0A0E0B0E08093390490933A04A09330
:104920003B04B0933C0427E033E0309336042093FB
:10493000350425EC30E0309342042093410424EC0C
:1049400030E0309344042093430420EC30E0309373
:1049500046042093450421EC30E030934804209332
:10496000470422EC30E030934A042093490426ECBB
:1049700030E030934C0420934B0410924E0410927C
:104980004F0410925004109251041092D5041092CA
:10499000D4048093D6049093D704A093D804B09302
:1049A000D90489E193E09093D3048093D2048EEAF2
:1049B00091E0EBEDFDE0DF019C011D9221503040C4
:1049C000E1F72CED3DE03093240F2093230FEDE22F
:1049D000FCE0DF019C011D9221503040E1F72EE206
:1049E0003CE03093760D2093750DEFE7FAE0DF01A0
:1049F0009C011D9221503040E1F720E83AE03093CD
:104A0000C80B2093C70BE1EDF8E0DF019C011D927C
:104A100021503040E1F722ED38E030931A0A20931C
:104A2000190AE3E2F7E0DF019C011D9221503040BA
:104A3000E1F724E237E030936C0820936B08E5E758
:104A4000F5E0DF019C011D9221503040E1F786E73F
:104A500095E09093BE068093BD0680916E058033ED
:104A600048F591E0980F90936E058093720590E061
:104A7000FC01EE0FFF1FE80FF91FE252FB4F88EB1E
:104A80009BE09283818380916E058033B8F491E03E
:104A9000980F90936E0580936F0590E0FC01EE0FE8
:104AA000FF1FE80FF91FE252FB4F88EB9BE0928358
:104AB000818308958FEF80937205E5CF8FEF809308
:104AC0006F050895789484B5826084BD84B5816053
:104AD00084BD85B5826085BD85B5816085BD8091C9
:104AE0006E00816080936E00109281008091810041
:104AF0008260809381008091810081608093810039
:104B0000809180008160809380008091B1008460FA
:104B10008093B1008091B00081608093B00080915B
:104B200091008260809391008091910081608093D8
:104B30009100809190008160809390008091A1000D
:104B400082608093A1008091A10081608093A10088
:104B50008091A00081608093A000809121018260FB
:104B600080932101809121018160809321018091B6
:104B7000200181608093200180917A00846080937D
:104B80007A0080917A00826080937A0080917A0026
:104B9000816080937A0080917A00806880937A00A7
:104BA0001092C100E0914504F091460482E08083B8
:104BB000E0914104F09142041082E0914304F091AD
:104BC000440480E1808310924D04E0914904F09107
:104BD0004A0486E08083E0914704F0914804808194
:104BE00080618083E0914704F0914804808188606F
:104BF0008083E0914704F09148048081806880833D
:104C0000E0914704F091480480818F7D808382E3A6
:104C10000E947A0285E30E947A0283E30E947A026C
:104C200084E30E947A0281E30E947A0288E192E0A2
:104C30000E94840960E082E30E94990260E085E3BB
:104C40000E94990260E083E30E94990260E084E39D
:104C50000E94990260E081E30E94990285EF91E051
:104C60000E94840989EE91E00E94840960E082E359
:104C70000E94990260E085E30E94990260E083E36C
:104C80000E94990260E089E20E94990260E084E358
:104C90000E94990260E081E30E9499026AE070E05C
:104CA00080E090E00E944A0361E082E30E94990262
:104CB00061E085E30E94990261E083E30E9499022A
:104CC00061E089E20E94990261E084E30E94990216
:104CD00061E081E30E9499026AE070E080E090E088
:104CE0000E944A0361E082E30E94990260E085E34A
:104CF0000E94990260E083E30E94990260E089E2E9
:104D00000E94990260E084E30E94990260E081E3DE
:104D10000E94990262E58BED9DE00E94211D8111A8
:104D200004C080ED91E00E9484096AE070E080E0B8
:104D300090E00E944A0361E085E30E9499026AE0E4
:104D400070E080E090E00E944A0361E48DE29CE024
:104D50000E94211D811104C087EB91E00E9484090B
:104D600061E083E30E9499026AE070E080E090E0F5
:104D70000E944A0362E48FE79AE00E94211D81119C
:104D800004C08EE991E00E94840961E089E20E94FA
:104D900099026AE070E080E090E00E944A0361E0DE
:104DA00084E30E9499026AE070E080E090E00E9453
:104DB0004A0364E385E795E00E94211D811104C048
:104DC00085E891E00E94840961E081E30E949902F4
:104DD0006AE070E080E090E00E944A0361E383E2D1
:104DE00097E00E94211D811104C08CE691E00E9491
:104DF00084098BED9DE00E94F40E8DE29CE00E9400
:104E0000F40E8FE79AE00E94F40E85E795E00E9489
:104E1000F40E83E297E00E94F40E809172058033D5
:104E200008F042C083E00E947A0280917205282F28
:104E300030E0F901EE0FFF1FE20FF31FE252FB4FCC
:104E40009081907C9360908310927305109274050A
:104E50002CE0622F0E94842890E0829FB0011124F0
:104E600030E020E0AB01420F531FFA01EE0FFF1FAD
:104E7000E40FF51FE252FB4F408146FD07C02F5F54
:104E80003F4F2C30310571F70E942705E0917205E4
:104E90008E2F90E0FC01EE0FFF1FE80FF91FE2528A
:104EA000FB4F80818064808380916F05803308F0A0
:104EB00042C082E00E947A0280916F05282F30E084
:104EC000F901EE0FFF1FE20FF31FE252FB4F90813B
:104ED000907C9260908310927005109271052CE086
:104EE000622F0E94842890E0829FB001112430E05C
:104EF00020E0AB01420F531FFA01EE0FFF1FE40F3A
:104F0000F51FE252FB4F408146FD07C02F5F3F4F28
:104F10002C30310571F70E942705E0916F058E2F27
:104F200090E0FC01EE0FFF1FE80FF91FE252FB4F6C
:104F300080818064808367ED75E08FE695E00E9454
:104F4000B0048AE590E00E94E70468E873E180E03D
:104F500090E00E944A03C1E0D0E08FE79AE00E940F
:104F60009B127C018BED9DE00E949B128C018DE2D7
:104F70009CE00E949B1285E795E00E949B1283E2D1
:104F800097E00E949B128091220490912304892B28
:104F9000B1F48AE590E00E94E7046CE276E08FE6E7
:104FA00095E00E94B00488EEE81683E0F80620F44D
:104FB000D0932304C09322040E947F04CECF8DE2BD
:104FC00090E00E94E704003D87E0180738F46CE2A7
:104FD00076E08FE695E00E94B004F5CF64EF71E0D3
:104FE00080E090E00E944A038EE690E00E94E70491
:104FF00060ED77E080E090E00E944A0367ED75E0A5
:105000008FE695E00E94B00464E670E080E090E0F6
:105010000E944A0360E070E084E697EA0E944A0337
:10502000CBCF052E97FB1EF400940E94282857FD35
:1050300007D00E94432807FC03D04EF40C94282884
:1050400050954095309521953F4F4F4F5F4F0895B4
:1050500090958095709561957F4F8F4F9F4F0895E4
:105060000E946528A59F900DB49F900DA49F800D70
:10507000911D11240895B7FF0C9430280E94302808
:10508000821B930B0895A1E21A2EAA1BBB1BFD01E4
:105090000DC0AA1FBB1FEE1FFF1FA217B307E40717
:1050A000F50720F0A21BB30BE40BF50B661F771F6F
:1050B000881F991F1A9469F760957095809590954F
:1050C0009B01AC01BD01CF010895A29FB001B39F28
:1050D000C001A39F700D811D1124911DB29F700D01
:1050E000811D1124911D0895DB018F939F930E94D0
:1050F0003028BF91AF91A29F800D911DA39F900D6D
:10510000B29F900D11240895991B79E004C0991F56
:10511000961708F0961B881F7A95C9F78095089511
:10512000AA1BBB1B51E107C0AA1FBB1FA617B707CD
:1051300010F0A61BB70B881F991F5A95A9F78095E9
:105140009095BC01CD010895EE0FFF1F881F8BBF06
:105150000790F691E02D1994FB01DC0101900D926E
:0A5160000020E1F70895F894FFCF56
:10516A0001FF0101000001FF000109000110000117
:10517A0011000124010125FF01750001FF01014E03
:10518A002C01480001302001FF00013009015400C0
:10519A000131040132030140830146250160000107
:1051AA002700015006015100015296015608015785
:1051BA00300161000162000164000165000166A01E
:1051CA0001FF010122320147140149FF014A00018E
:1051DA00FF00017A0A017B0001782101FF01012306
:1051EA00340142000144FF014526014605014040C1
:1051FA00010E0601201A01434001FF000134030198
:10520A00354401FF01013104014B09014C05014DEF
:10521A000401FF0001440001452001470801482814
:10522A000167000170040171010172FE017600013B
:10523A00770001FF01010D0101FF00018001010159
:10524A00F801FF01018E0101000101FF0001800048
:10525A000000000A00000005000000000000000530
:10526A000000000000000012047C03A9035F04DAB6
:10527A0003B803CC0300000000E006B306810989E5
:10528A0006AC0699068A060D0A00564C35334C3090
:10529A00582054533000564C35334C305820545310
:1052AA003100564C35334C30582054533200564C4A
:1052BA0035334C305820455331206F72206C61745D
:0C52CA00657200564C35334C3058000023
:00000001FF
