:100000000C945D000C9485000C9485000C94850084
:100010000C9485000C9485000C9485000C9485004C
:100020000C9485000C9485000C9485000C943E047F
:100030000C9485000C9485000C9485000C9485002C
:100040000C949C030C9485000C940C040C94E60313
:100050000C9485000C9485000C9485000C9485000C
:100060000C9485000C9485000000000024002700FB
:100070002A0000000000250028002B0004040404CE
:100080000404040402020202020203030303030342
:10009000010204081020408001020408102001021F
:1000A00004081020000000080002010000030407FB
:1000B0000000000000000000150511241FBECFEF56
:1000C000D8E0DEBFCDBF11E0A0E0B1E0EAE2F4E1AC
:1000D00002C005900D92AA31B107D9F722E0AAE13A
:1000E000B1E001C01D92A130B207E1F710E0CDE50B
:1000F000D0E004C02197FE010E941B08CC35D10737
:10010000C9F70E945D050C94130A0C94000090E05E
:10011000FC01EC55FF4F2491FC01E057FF4F349157
:10012000FC01E458FF4FE491EE23C9F0222339F09B
:10013000233001F1A8F4213019F1223029F1F0E047
:10014000EE0FFF1FEE58FF4FA591B4918FB7F894B3
:10015000EC91611126C030953E233C938FBF0895EA
:100160002730A9F02830C9F0243049F78091800069
:100170008F7D03C0809180008F7780938000DFCFD8
:1001800084B58F7784BDDBCF84B58F7DFBCF809125
:10019000B0008F778093B000D2CF8091B0008F7D78
:1001A000F9CF3E2BDACF3FB7F8948091410190917F
:1001B0004201A0914301B091440126B5A89B05C01E
:1001C0002F3F19F00196A11DB11D3FBFBA2FA92FD6
:1001D000982F8827BC01CD01620F711D811D911DD3
:1001E00042E0660F771F881F991F4A95D1F708953F
:1001F0008F929F92AF92BF92CF92DF92EF92FF9237
:100200004B015C010E94D3006B017C010E94D30072
:100210006C197D098E099F09683E7340810591051F
:10022000A8F321E0821A9108A108B10888EEC80E4F
:1002300083E0D81EE11CF11C81149104A104B104D7
:1002400029F7FF90EF90DF90CF90BF90AF909F90F5
:100250008F900895AF92BF92CF92DF92EF92FF926C
:100260000F931F93CF93DF936C017B018B01040FDE
:10027000151FEB015E01AE18BF08C017D10759F07A
:100280006991D601ED91FC910190F081E02DC601BC
:100290000995892B79F7C501DF91CF911F910F91B6
:1002A000FF90EF90DF90CF90BF90AF900895FC014A
:1002B000538D448D252F30E0842F90E0821B930BCB
:1002C000541710F0CF96089501970895FC01918D71
:1002D000828D981761F0A28DAE0FBF2FB11D5D9674
:1002E0008C91928D9F5F9F73928F90E008958FEF16
:1002F0009FEF08952FB7F8948091450190914601A2
:10030000A0914701B09148012FBF80935101909374
:100310005201A0935301B093540189E491E00E94EB
:10032000660197FF26C02FB7F89480914501909100
:100330004601A0914701B09148012FBF4091510162
:10034000509152016091530170915401841B950B9F
:10035000A60BB70B40914D0150914E0160914F019A
:100360007091500184179507A607B707B0F28FEF79
:100370009FEF0895FC01918D828D981731F0828D49
:10038000E80FF11D858D90E008958FEF9FEF0895A0
:10039000FC01918D228D892F90E0805C9F4F821B04
:1003A00091098F739927089589E491E00E94C8010B
:1003B00021E0892B09F420E0822F089580E090E06D
:1003C000892B29F00E94D40181110C94000008951A
:1003D000FC01A48DA80FB92FB11DA35ABF4F2C91BA
:1003E000848D90E001968F739927848FA689B789B1
:1003F0002C93A089B1898C91837080648C93938DA8
:10040000848D981306C00288F389E02D80818F7D4A
:1004100080830895EF92FF920F931F93CF93DF9302
:10042000EC0181E0888F9B8D8C8D98131AC0E88930
:10043000F989808185FF15C09FB7F894EE89FF89FF
:100440006083E889F98980818370806480839FBF9D
:1004500081E090E0DF91CF911F910F91FF90EF909D
:100460000895F62E0B8D10E00F5F1F4F0F731127AD
:10047000E02E8C8D8E110CC00FB607FCFACFE889E8
:10048000F989808185FFF5CFCE010E94E801F1CF87
:10049000EB8DEC0FFD2FF11DE35AFF4FF0829FB75C
:1004A000F8940B8FEA89FB8980818062CFCFCF934C
:1004B000DF93EC01888D8823B9F0AA89BB89E8898C
:1004C000F9898C9185FD03C0808186FD0DC00FB632
:1004D00007FCF7CF8C9185FFF2CF808185FFEDCFB0
:1004E000CE010E94E801E9CFDF91CF910895DC01B0
:1004F000EC91EC3090F511968C91119728E830E052
:10050000281B310987FD3395220F331F220F331F1C
:100510006217730784F012968C9128E532E0281B4D
:10052000310987FD3395220F331F220F331F6217C6
:1005300073070CF49B0122503109220F331F4FB770
:10054000F8948E2F90E0FC01EE0FFF1FE80FF91FCB
:10055000E45EFE4F328321834FBF0895CF92DF9236
:10056000EF92FF92CF93DF93EC01603282E0780745
:10057000CCF5653B710514F064EB70E0898128E8E7
:1005800030E0281B310987FD3395220F331F220FDE
:10059000331F6901330FEE08FF088A8128E532E036
:1005A000281B310987FD3395220F331F220F331F7C
:1005B000032E000C440B550B2C193D094E095F0905
:1005C000DB0177FF02C0B0E0A0E00E949F0724EBB0
:1005D00030E040E050E00E947507C20ED31EE41EDA
:1005E000F51EB601CE01DF91CF91FF90EF90DF9025
:1005F000CF900C947702CF93DF93DC018C918C30F9
:1006000008F06EC0CB019927FC01E057FF4F249101
:1006100084589F4FFC018491882399F090E0880FC3
:10062000991FFC01E859FF4FC591D491FC01EE5888
:10063000FF4F859194918FB7F894E881E22BE8837E
:100640008FBF8C91282F30E0F901EE0FFF1FE20FD2
:10065000F31FE45EFE4F962F9F736081607C692BD1
:10066000608311961C92119712961C9212972CE09F
:10067000622F0E940F08829FB001112430E020E019
:10068000AB01420F531FFA01EE0FFF1FE40FF51FDE
:10069000E45EFE4F908196FD16C02F5F3F4F2C30D9
:1006A000310571F781110FC01092800082E08093B4
:1006B00081001092850010928400B19A80916F00A1
:1006C000826080936F00EC918E2F90E0FC01EE0F22
:1006D000FF1FE80FF91FE45EFE4F80818064808376
:1006E0008C91DF91CF9108950F931F93CF93DF9358
:1006F000EC0188819981009759F02A813B81261766
:10070000370730F081E0DF91CF911F910F9108956D
:100710008B016F5F7F4F0E944609009759F09983C4
:1007200088831B830A832C813D81232B59F7FC018D
:100730001082E8CF80E0E7CF1F920F920FB60F92A2
:1007400011242F933F938F939F93AF93BF938091E7
:10075000450190914601A0914701B0914801309127
:10076000400123E0230F2D3758F50196A11DB11D3F
:10077000209340018093450190934601A093470147
:10078000B09348018091410190914201A0914301B1
:10079000B09144010196A11DB11D80934101909338
:1007A0004201A0934301B0934401BF91AF919F9147
:1007B0008F913F912F910F900FBE0F901F90189522
:1007C00026E8230F0296A11DB11DD2CF1F920F92D2
:1007D0000FB60F9211242F933F934F935F936F9314
:1007E0007F938F939F93AF93BF93EF93FF9389E48E
:1007F00091E00E94E801FF91EF91BF91AF919F912D
:100800008F917F916F915F914F913F912F910F90B9
:100810000FBE0F901F9018951F920F920FB60F9258
:1008200011242F938F939F93EF93FF93E09159019E
:10083000F0915A018081E0915F01F091600182FDA9
:100840001BC09081809162018F5F8F732091630143
:10085000821741F0E0916201F0E0E75BFE4F958F77
:1008600080936201FF91EF919F918F912F910F9053
:100870000FBE0F901F9018958081F4CF1F920F929A
:100880000FB60F9211242F933F934F935F936F9363
:100890007F938F939F93AF93BF93CF93DF93EF9308
:1008A000FF9380911A01C0911B01D0E087FF24C003
:1008B000109285001092840080911A018F5F8093BE
:1008C0001A0180911A01082E000C990B8C179D07B4
:1008D00024F480911A018C30C4F1809184009091AD
:1008E0008500049680349C4908F47AC08091840085
:1008F00090918500049676C080911A01082E000C14
:10090000990B8C179D07C4F6E0911A018E2FEE0FFC
:10091000990BFC01EE0FFF1FE80FF91FE45EFE4F7D
:10092000808186FFC9CFE0911A018E2FEE0F990BBF
:10093000FC01EE0FFF1FE80FF91FE45EFE4F808100
:1009400060E08F730E948700B7CF209184003091C0
:100950008500E0911A018E2FEE0F990BFC01EE0F2E
:10096000FF1FE80FF91FE45EFE4F81819281820F25
:10097000931F9093890080938800E0911A018E2F35
:10098000EE0F990BFC01EE0FFF1FE80FF91FE45E5D
:10099000FE4F808186FF11C0E0911A018E2FEE0F6D
:1009A000990BFC01EE0FFF1FE80FF91FE45EFE4FED
:1009B000808161E08F730E948700FF91EF91DF914A
:1009C000CF91BF91AF919F918F917F916F915F91E7
:1009D0004F913F912F910F900FBE0F901F90189540
:1009E00080E49CE990938900809388008FEF809346
:1009F0001A01E3CFFC0190911B019C3098F481E037
:100A0000890F80931B019083892F90E0FC01EE0FEA
:100A1000FF1FE80FF91FE45EFE4F88EB9BE0928317
:100A2000818308958FEF80830895E9E4F1E01382D4
:100A3000128288EE93E0A0E0B0E084839583A683E1
:100A4000B7838AE091E09183808385EC90E095877D
:100A5000848784EC90E09787868780EC90E0918B88
:100A6000808B81EC90E0938B828B82EC90E0958B75
:100A7000848B86EC90E0978B868B118E128E138E72
:100A8000148E88EF91E00E94FA0485EF91E00E94B5
:100A9000FA0482EF91E00E94FA048FEE91E00E9446
:100AA000FA048CEE91E00E94FA0489EE91E00E9433
:100AB000FA0486EE91E00C94FA04CF93DF93CDB75D
:100AC000DEB76A970FB6F894DEBF0FBECDBF78943D
:100AD00084B5826084BD84B5816084BD85B5826043
:100AE00085BD85B5816085BD80916E0081608093F4
:100AF0006E0010928100809181008260809381005D
:100B0000809181008160809381008091800081606C
:100B1000809380008091B10084608093B1008091C7
:100B2000B00081608093B00080917A0084608093EF
:100B30007A0080917A00826080937A0080917A00B6
:100B4000816080937A0080917A00806880937A0037
:100B50001092C100E0915901F0915A0182E0808326
:100B6000E0915501F09156011082E0915701F0910A
:100B7000580180E1808310926101E0915D01F09164
:100B80005E0186E08083E0915B01F0915C018081F1
:100B900080618083E0915B01F0915C0180818860DD
:100BA0008083E0915B01F0915C01808180688083AB
:100BB000E0915B01F0915C0180818F7D808362E038
:100BC00070E089EE91E00E94FB0269E070E086EE41
:100BD00091E00E94FB026CED75E089EE91E00E94CD
:100BE00077026AE570E086EE91E00E94AE026AE06C
:100BF00070E088EF91E00E94FB026BE070E085EF0F
:100C000091E00E94FB026CE070E082EF91E00E94B4
:100C1000FB026DE070E08FEE91E00E94FB026EE05F
:100C200070E08CEE91E00E94FB0270E060E088EFE3
:100C300091E00E94AE0270E060E085EF91E00E94DA
:100C4000AE0270E060E082EF91E00E94AE0270E0E0
:100C500060E08FEE91E00E94AE0270E060E08CEE0A
:100C600091E00E94AE0264EF71E080E090E00E94AB
:100C7000F80090E0A92E90E0B92E89E491E00E945E
:100C8000C801181619060CF0D2C01E8A1D8A188ECB
:100C90001F8A1A8E198E70E060E0CE0145960E9480
:100CA00074032D893E8981112EC02115310519F05B
:100CB000C9010E94BD081E8A1D8A1A8E198E188EBF
:100CC0001F8A0E947A0197FD26C08A30910519F18A
:100CD00089831A82098D1A8D0F5F1F4FB801CE01CB
:100CE00045960E947403882361F32D893E89898D7E
:100CF0009A8DBE016F5F7F4F820F931F0E940C0A77
:100D00001A8F098FDECF1A8E198E69E171E0C90141
:100D10000E940C0AD6CF68E171E08D899E890E94FD
:100D200041079E012F5F3F4F790110E000E00097DF
:100D300091F00A30110599F00F5F1F4F0E942307B1
:100D4000F701819391937F0168E171E090E080E089
:100D50000E944107ECCF0115110509F462C06981B9
:100D60007A81613DF7E07F0714F060ED77E0683E3F
:100D700023E0720714F468EE73E089EE91E00E94BC
:100D800077026B817C81653B710514F064EB70E048
:100D900077FF02C070E060E086EE91E00E94AE0254
:100DA0006E0135E0C30ED11C82E0E82EF12CE01676
:100DB000F1068CF5F601619171916F01653B71054A
:100DC00014F064EB70E077FF02C070E060E0C701F0
:100DD000029782309105C9F040F4009771F00197B5
:100DE00089F0FFEFEF1AFF0AE2CF8330910581F01F
:100DF0000497B9F78CEE91E002C088EF91E00E9471
:100E0000AE02EFCF85EF91E0FACF82EF91E0F7CF1E
:100E10008FEE91E0F4CF64E670E080E090E00E9415
:100E2000F8008D899E89009711F00E94BD08A114D9
:100E3000B10409F422CF0E94D401882309F41DCF04
:100E40000E9400001ACFFC0188279927E89421917D
:100E50002032E9F3293010F02E30C8F32B3241F064
:100E60002D3239F4689404C00E946D07820F911DE1
:100E7000219120532A30C0F31EF4909581959F4F05
:100E800008954BEF51E00E9446070895FA01A191A1
:100E9000B081009719F41097E1F0CD01DC01CD018C
:100EA0000D90002011F4C00113C0FB0121912223F9
:100EB00019F02015D9F7F3CFFB012191201519F472
:100EC0001E92119606C02223C1F70D900020A1F7B3
:100ED000D001FA01A193B08308957AE0979F902DF5
:100EE000879F802D910D11240895052E97FB1EF4E8
:100EF00000940E948C0757FD07D00E94DE0707FC74
:100F000003D04EF40C948C07509540953095219564
:100F10003F4F4F4F5F4F0895909580957095619525
:100F20007F4F8F4F9F4F08950E940008A59F900DFF
:100F3000B49F900DA49F800D911D11240895B7FFBB
:100F40000C9494070E949407821B930B08952F9290
:100F50003F924F925F926F927F928F929F92AF9249
:100F6000BF92CF92DF92EF92FF920F931F93CF9396
:100F7000DF93CDB7DEB7CA1BDB0B0FB6F894DEBF2D
:100F80000FBECDBF09942A88398848885F846E8453
:100F90007D848C849B84AA84B984C884DF80EE809D
:100FA000FD800C811B81AA81B981CE0FD11D0FB6A6
:100FB000F894DEBF0FBECDBFED010895A1E21A2E59
:100FC000AA1BBB1BFD010DC0AA1FBB1FEE1FFF1FED
:100FD000A217B307E407F50720F0A21BB30BE40B3D
:100FE000F50B661F771F881F991F1A9469F7609584
:100FF0007095809590959B01AC01BD01CF0108953E
:10100000A29FB001B39FC001A39F700D811D112449
:10101000911DB29F700D811D1124911D0895991B82
:1010200079E004C0991F961708F0961B881F7A95DF
:10103000C9F780950895EE0FFF1F0590F491E02DFC
:1010400009940F931F93CF93DF938230910510F48F
:1010500082E090E0E091FF01F091000230E020E0BA
:10106000B0E0A0E0309799F42115310509F44AC0A9
:10107000281B390B24303105D8F58A819B816115F5
:10108000710589F1FB0193838283FE0111C04081C8
:1010900051810281138148175907E0F04817590719
:1010A00099F4109761F012960C93129713961C9373
:1010B0003296CF01DF91CF911F910F910895009348
:1010C000FF0110930002F4CF2115310551F04217B2
:1010D000530738F0A901DB019A01BD01DF01F801D6
:1010E000C1CFEF01F9CF909300028093FF01CDCFE4
:1010F000FE01E20FF31F819391932250310939834E
:101100002883D7CF2091FD013091FE01232B41F49C
:1011100020910201309103013093FE012093FD01E3
:1011200020910001309101012115310541F42DB7C5
:101130003EB74091040150910501241B350BE0910D
:10114000FD01F091FE01E217F307A0F42E1B3F0B07
:101150002817390778F0AC014E5F5F4F2417350729
:1011600048F04E0F5F1F5093FE014093FD018193A5
:1011700091939FCFF0E0E0E09CCFCF93DF93009777
:10118000E9F0FC01329713821282A091FF01B09125
:101190000002ED0130E020E01097A1F420813181C0
:1011A000820F931F2091FD013091FE01281739070E
:1011B00009F061C0F093FE01E093FD01DF91CF9152
:1011C0000895EA01CE17DF07E8F54A815B819E01A9
:1011D00041155105B1F7E901FB83EA834991599122
:1011E000C40FD51FEC17FD0761F480819181029631
:1011F000840F951FE90199838883828193819B8362
:101200008A83F0E0E0E012968D919C91139700970D
:10121000B9F52D913C911197CD010296820F931F44
:101220002091FD013091FE012817390739F63097DA
:1012300051F5109200021092FF01B093FE01A093AD
:10124000FD01BCCFD383C28340815181840F951FA0
:10125000C817D90761F44E5F5F4F88819981480FA5
:10126000591F518340838A819B81938382832115F7
:10127000310509F0B0CFF0930002E093FF019ECF5B
:10128000FD01DC01C0CF13821282D7CFB0E0A0E015
:10129000ECE4F9E00C94A9078C01009751F4CB0120
:1012A0000E9421088C01C801CDB7DEB7E0E10C94A3
:1012B000C507FC01E60FF71F9C0122503109E21718
:1012C000F30708F49DC0D901CD91DC911197C617A1
:1012D000D70798F0C530D10530F3CE0104978617B3
:1012E000970708F3C61BD70B2297C193D1936D9331
:1012F0007C93CF010E94BD08D6CF5B01AC1ABD0A1A
:101300004C018C0E9D1EA091FF01B0910002512C4A
:10131000412CF12CE12C109731F58091FD01909139
:10132000FE018815990509F05CC04616570608F0BD
:1013300058C08091000190910101009741F48DB750
:101340009EB74091040150910501841B950BE8174D
:10135000F90708F055C0F093FE01E093FD01F90193
:1013600071836083A0CF8D919C91119712966C90A0
:10137000129713967C901397A815B90559F56C012F
:1013800042E0C40ED11CCA14DB0420F1AC014A199E
:101390005B09DA011296159780F06282738251839D
:1013A0004083D9016D937C93E114F10471F0D7016E
:1013B0001396FC93EE93129776CF22968C0F9D1F77
:1013C000F90191838083F301EFCFF0930002E09362
:1013D000FF0169CF4816590608F42C017D01D3019D
:1013E0009ACFCB010E9421087C01009749F0AE0101
:1013F000B8010E94030AC8010E94BD08870153CFAB
:1014000010E000E050CFFB01DC0102C001900D9222
:1014100041505040D8F70895FB01DC0101900D9236
:0A1420000020E1F70895F894FFCFD3
:10142A00000001028000000000000A022A015701A0
:0A143A005702C8016601BA01200044
:00000001FF
