:100000000C94A2010C94D3010C94D3010C94D30151
:100010000C94D3010C94D3010C94D3010C94D30110
:100020000C94D3010C94D3010C94D3010C94D30100
:100030000C94D3010C94D3010C94D3010C94D301F0
:100040000C94D3010C9423260C94D3010C94D3016B
:100050000C94D3010C94D3010C94D3010C94EF2491
:100060000C94D3010C9463250C9439250C94D30182
:100070000C94D3010C94D3010C94D3010C94D301B0
:100080000C94F5250C94D3010C94D3010C94D3015A
:100090000C94D3010C94D3010C94D3010C945126ED
:1000A0000C94D3010C94D3010C94C7250C94D30168
:1000B0000C94D3010C94D3010C94D3010C94992586
:1000C0000C94D3010C94D3010C94D3010C94D30160
:1000D0000C94D3010C94D3010C94D3010C94D30150
:1000E0000C94D3010C94770A0C94EA020C94BE0A87
:1000F0000C94D5030C94E6020C9405030C94CF02E7
:100100000C9417030C94FB020C94670A0C94F703ED
:100110000C9499030C94C6030C947F020C94ED0A82
:100120000C9475270C94F2020C94EE020C947E024F
:100130000C94F5020C94D4020C947C040C941303DC
:100140000C940D030C942F040C941B030C940903C2
:100150000C94FF020C94E9030C9425030C942103E6
:100160000C948A0A0C94910A0C94680A4661696C92
:10017000656420746F20626F6F74203620564C3592
:10018000334C3058004661696C656420746F20629E
:100190006F6F74203520564C35334C305800466113
:1001A000696C656420746F20626F6F742033205611
:1001B0004C35334C3058004661696C656420746F6F
:1001C00020626F6F74203220564C35334C3058000B
:1001D0004661696C656420746F20626F6F742031B2
:1001E00020564C35334C3058005374617274696E2C
:1001F000672E2E2E00416C6C20696E20726573652F
:1002000074206D6F64652E2E2E2870696E732061C8
:100210007265206C6F77290053687574646F776E10
:100220002070696E7320696E697465642E2E2E00CD
:100230000A0B0C0D0E0F00010203040500000A0B4F
:1002400002090C0D0E080703040100000000000065
:10025000000000000000000000000000000000009E
:10026000000000000000000012111000000000005B
:10027000000000000000000000000000000000007E
:10028000000000002200250028002B002E00310075
:10029000340002010000050108010B0100002100EB
:1002A000240027002A002D00300033000101000047
:1002B000040107010A0105050505070508080808E6
:1002C000020202020A0A08080404040401010101EE
:1002D00001010101030303030303030304070707E9
:1002E0000C0C0C0C0C0C0C0C02020202060606068E
:1002F000060606060B0B0B0B0B0B0B0B010210205B
:10030000200808102040102040800201020108044B
:1003100002010102040810204080804020100804DF
:100320000201800402018040201008040201080438
:10033000020101020408102040800102040810207C
:100340004080752711241FBECFEFD1E2DEBFCDBFA5
:1003500000E00CBF13E0A0E0B2E0E2EDF4E600E064
:100360000BBF02C007900D92AE37B107D9F72FE04F
:10037000AEE7B3E001C01D92AF3DB207E1F711E077
:10038000C2EAD1E000E006C021970109802FFE01FA
:100390000E94ED2EC13AD10780E00807A9F70E941C
:1003A000A4280C9467320C940000CF93DF9300D004
:1003B0001F92CDB7DEB719821A821B821C828981F7
:1003C0009A81AB81BC818A3F9105A105B10568F492
:1003D000000089819A81AB81BC810196A11DB11D6C
:1003E00089839A83AB83BC83EACF80E00F900F9020
:1003F0000F900F90DF91CF9108954F925F926F927F
:100400007F928F929F92AF92BF92CF92DF92EF92A4
:10041000FF920F931F93CF93F9010FEF1FEF9801F6
:1004200000831183228333834A015B01B3E0B694D6
:10043000A79497948794BA95D1F76A017B0127E036
:10044000C222DD24EE24FF2495018401C0E00630A1
:1004500011052105310508F041C0C1113FC0DC0183
:10046000A00FB11F6C91412C512C320180169106C6
:10047000A206B30649F470E00C2C02C0759567958E
:100480000A94E2F726013701462F50E060FF17C0BB
:10049000B901A801A3E0440F551F661F771FAA9555
:1004A000D1F7440E551E661E771E4082518262822D
:1004B0007382C1E00F5F1F4F2F4F3F4FC8CFBA016C
:1004C000759567954FEF441A540A640A740A48E018
:1004D0004416510461047104B9F6ECCFCF911F9119
:1004E0000F91FF90EF90DF90CF90BF90AF909F90D3
:1004F0008F907F906F905F904F900895089508952A
:1005000090E0FC01E450FD4F24918A549D4FFC0182
:100510008491882399F090E0880F991FFC01E4569C
:10052000FD4FA591B491FC01EE57FD4F859194913B
:100530008FB7F894EC91E22BEC938FBF0895282F9E
:1005400030E0F901E45CFD4F9491F901E450FD4F76
:1005500044912A543D4FF9012491222309F435C0D6
:10056000992311F191509231F8F4E92FF0E08827A6
:10057000E354FD4F8F4F0C94ED2EEE02F202CF02AA
:10058000E602EA02D402F502FB02FF0205030903B8
:100590000D0313031703D4021B03210325038091CA
:1005A00080008F7780938000E22FF0E0EE0FFF1F36
:1005B000EE57FD4FA591B4918FB7F894EC9161116E
:1005C00048C040954E234C938FBF08958091800082
:1005D0008F7DE8CF80918000877FE4CF84B58F77CF
:1005E00084BDE2CF84B58F7DFBCF8091B0008F7743
:1005F0008093B000D9CF8091B0008F7DF9CF8091EA
:1006000090008F7780939000CFCF809190008F7D66
:10061000F9CF80919000877FF5CF8091A0008F77F0
:100620008093A000C1CF8091A0008F7DF9CF8091F1
:10063000A000877FF5CF809120018F7780932001E4
:10064000B3CF809120018F7DF9CF80912001877FEA
:10065000F5CF4E2BB8CF682F809199050E949F024D
:100660008091B0059091B1058230910538F0880FE6
:10067000991F880F991F05970197F1F7089581E059
:100680000C942B033FB7F8948091E1039091E2031F
:10069000A091E303B091E40326B5A89B05C02F3FCA
:1006A00019F00196A11DB11D3FBFBA2FA92F982F98
:1006B0008827BC01CD01620F711D811D911D42E093
:1006C000660F771F881F991F4A95D1F708958F925B
:1006D0009F92AF92BF92CF92DF92EF92FF924B0127
:1006E0005C010E9442036B017C010E9442036C1971
:1006F0007D098E099F09683E734081059105A8F325
:1007000021E0821A9108A108B10888EEC80E83E0A2
:10071000D81EE11CF11C81149104A104B10429F735
:10072000FF90EF90DF90CF90BF90AF909F908F9011
:100730000895AF92BF92CF92DF92EF92FF920F9304
:100740001F93CF93DF936C017B018B01040F151F67
:10075000EB015E01AE18BF08C017D10759F06991CF
:10076000D601ED91FC910190F081E02DC601199523
:10077000892B79F7C501DF91CF911F910F91FF90E0
:10078000EF90DF90CF90BF90AF900895FC01538D14
:10079000448D252F30E0842F90E0821B930B54175B
:1007A00010F0CF96089501970895FC01918D828DE8
:1007B000981761F0A28DAE0FBF2FB11D5D968C9181
:1007C000928D9F5F9F73928F90E008958FEF9FEFC0
:1007D0000895FC01918D828D981731F0828DE80F7C
:1007E000F11D858D90E008958FEF9FEF0895FC0136
:1007F000918D228D892F90E0805C9F4F821B910903
:100800008F73992708958BE594E00E94F70321E008
:10081000892B09F420E0822F0895FC01A48DA80FF4
:10082000B92FB11DA35ABF4F2C91848D90E0019632
:100830008F739927848FA689B7892C93A089B18952
:100840008C91837080648C93938D848D981306C0F3
:100850000288F389E02D80818F7D80830895EF9257
:10086000FF920F931F93CF93DF93EC0181E0888F6A
:100870009B8D8C8D98131AC0E889F989808185FF3A
:1008800015C09FB7F894EE89FF896083E889F989DC
:1008900080818370806480839FBF81E090E0DF91DE
:1008A000CF911F910F91FF90EF900895F62E0B8D31
:1008B00010E00F5F1F4F0F731127E02E8C8D8E11EC
:1008C0000CC00FB607FCFACFE889F989808185FF53
:1008D000F5CFCE010E940D04F1CFEB8DEC0FFD2F73
:1008E000F11DE35AFF4FF0829FB7F8940B8FEA890E
:1008F000FB8980818062CFCFCF93DF93EC01888D1D
:100900008823B9F0AA89BB89E889F9898C9185FD8A
:1009100003C0808186FD0DC00FB607FCF7CF8C9118
:1009200085FFF2CF808185FFEDCFCE010E940D04BF
:10093000E9CFDF91CF91089580E090E0892B29F0F5
:100940000E94030481110E94000080E090E0892B46
:1009500049F080E090E0892B29F00E94000081118D
:100960000E94000080E090E0892B49F080E090E058
:10097000892B29F00E94000081110E94000080E074
:1009800090E0892B49F080E090E0892B29F00E94CB
:10099000000081110C94000008958EBD00000DB47C
:1009A00007FEFDCF8EB50895DC01EC91E03390F5A4
:1009B00011968C91119728E830E0281B310987FDAA
:1009C0003395220F331F220F331F6217730784F0F2
:1009D00012968C9128E532E0281B310987FD33956A
:1009E000220F331F220F331F621773070CF49B0172
:1009F00022503109220F331F4FB7F8948E2F90E009
:100A0000FC01EE0FFF1FE80FF91FEB5FFA4F328377
:100A100021834FBF0895CF92DF92EF92FF928032F1
:100A200022E09207E4F5853B910514F084EB90E019
:100A30004091C50528E830E0241B310947FD339576
:100A4000220F331F220F331F6901330FEE08FF08F7
:100A50004091C60528E532E0241B310947FD339556
:100A6000220F331F220F331F032E000C440B550B94
:100A70002C193D094E095F09DC0197FF02C0B0E067
:100A8000A0E00E94702E24EB30E040E050E00E9495
:100A9000462EDA01C9018C0D9D1DAE1DBF1DBC0186
:100AA00084EC95E0FF90EF90DF90CF900C94D4040D
:100AB0008130910581F41092800082E08093810062
:100AC0001092850010928400B19A80916F0082602C
:100AD00080936F0008958230910569F41092900020
:100AE00082E080939100109295001092940088BB50
:100AF0008093710008958330910569F41092A000ED
:100B000082E08093A1001092A5001092A40089BBFE
:100B1000809372000895892B61F41092200182E085
:100B20008093210110922501109224018ABB8093A9
:100B300073000895AF92BF92CF92DF92EF92FF922F
:100B40000F931F93CF93DF936B017A01EC01CE5388
:100B5000DC4F28813CE0389F8001399F100D112423
:100B6000A0909505B12C27FF1FC0FB0111821082B8
:100B700088818F5F888388819801280F311D87FDC8
:100B80003A95F6012A153B051CF488818C30C4F196
:100B900080819181049680349C4908F473C0F601E9
:100BA00080819181049670C088819801280F311D41
:100BB00087FD3A952A153B05DCF68881A801480F88
:100BC000511D87FD5A95FA01EE0FFF1FE40FF51F27
:100BD000EB5FFA4F808186FFCBCF8881F801E80F69
:100BE000F11D87FDFA95CF01EE0FFF1FE80FF91FEA
:100BF000EB5FFA4F808160E08F730E949F02B8CF55
:100C0000808191812881A801420F511D27FD5A95AD
:100C10009A01FA01EE0FFF1FE20FF31FEB5FFA4F8D
:100C200021813281820F931FF70191838083888114
:100C30009801280F311D87FD3A95F901EE0FFF1F2E
:100C4000E20FF31FEB5FFA4F808186FF22C088819D
:100C5000080F111D87FD1A95F801EE0FFF1FE00F19
:100C6000F11FEB5FFA4F808161E08F73DF91CF91CD
:100C70001F910F91FF90EF90DF90CF90BF90AF90BA
:100C80000C949F0280E49CE9F701918380838FEFAD
:100C90008883DF91CF911F910F91FF90EF90DF90AC
:100CA000CF90BF90AF90089520919F03260F3327D8
:100CB000331F21323105ECF420913104FC0190E026
:100CC00080E0243069F082E00895A0919F03219193
:100CD000AC0141585C4FA40FB52FB11D2C93019668
:100CE000861798F380919F03680F60939F0380E0BD
:100CF000089581E008951092310481E080933004DA
:100D000010920B0461E084E10E949F0261E085E1A2
:100D10000E949F02E9EBF0E080818E7F80838081DA
:100D20008D7F808388E48093B80085E48093BC0045
:100D300008951092EA031092E90310923804109279
:100D40005A040E947B068EE792E09093E80380931A
:100D5000E7038FE792E09093E6038093E50308951D
:100D6000CF93DF9391E090937E038823B9F0C091F5
:100D7000B800D091BA008091BC008A7B8093BC00FF
:100D800060E084E10E949F0260E085E10E949F0292
:100D90000E947B06D093BA00C093B800DF91CF9138
:100DA00008958F929F92AF92BF92CF92DF92EF926F
:100DB000FF920F931F93CF93DF93D0915A04D132B8
:100DC00008F0D7C0182FC09159040E9442036B014C
:100DD0007C018091310481116BC082E080933104E9
:100DE000109330048FEF80932F0410922E04D09331
:100DF0002D04A9E3B4E0EDE0F4E080E0D81391C065
:100E000010920C0480910C04CC0FC82BC0930C04DE
:100E100080910B04813009F088C010920B040E946D
:100E200042036B017C0180910C048093BB00809194
:100E3000330490913404A0913504B0913604892B89
:100E40008A2B8B2BA1F00E94420300913304109156
:100E5000340420913504309136046C197D098E09D3
:100E60009F09061717072807390708F442C0809121
:100E7000BC0083FDD8CF85EC8093BC000E94420368
:100E80006B017C0180913104823009F450C0809163
:100E90002F048F3F09F46FC080912F04803209F432
:100EA0006CC080912F04803309F469C084E026C0AF
:100EB0008091330490913404A0913504B0913604AC
:100EC000892B8A2B8B2B09F484CF0E9442038090BC
:100ED000330490903404A0903504B09036046C191B
:100EE0007D098E099F0986169706A806B90608F09F
:100EF00070CF809132040E94B00685E010923804D1
:100F000010925A0410923704DF91CF911F910F91E4
:100F1000FF90EF90DF90CF90BF90AF909F908F9019
:100F200008959D9191938F5F69CF85EEA5CF8091B4
:100F3000330490913404A0913504B0913604892B88
:100F40008A2B8B2B09F49ECF0E944203009133041D
:100F50001091340420913504309136046C197D09C8
:100F60008E099F09061717072807390708F08ACF47
:100F7000C0CF81E0C3CF80E0C1CF82E0BFCF83E0AC
:100F8000BDCF1F93CF93DF93EA01122FDC0111969F
:100F90008D919C91DC01ED91FC910280F381E02D1B
:100FA0001995C817D90729F4812F0E94D10691E01D
:100FB000811190E0892FDF91CF911F910895CF93F8
:100FC000DF93EC018B818823A1F0888191E09093DD
:100FD0003704809359041092380410925A0481E027
:100FE0000E94D10691E0811190E0892FDF91CF918D
:100FF00008950E94990681E08B83CE010E94DF074D
:10100000982F8111E2CFF1CF8F929F92AF92BF9232
:10101000CF92DF92EF92FF920F931F93CF93DF93C4
:101020006A014801E70191E09093370480935904E5
:101030001092380410925A04E881F9810190F081ED
:10104000E02DC70119958C0C9D1CC814D90459F0CA
:10105000E881F9810190F081E02DD6016D916D015B
:10106000CE011995F2CF81E00E94D10690E080E098
:10107000DF91CF911F910F91FF90EF90DF90CF9074
:10108000BF90AF909F908F900895EF92FF920F9333
:101090001F93CF93DF931F921F92CDB7DEB7FC0152
:1010A000EF5BFE4F70813496E080F1804A83598374
:1010B00002E010E020E030E0AE014F5F5F4F872F8D
:1010C0000E940408892B51F08CEE0F900F90DF9155
:1010D000CF911F910F91FF90EF90089580E0F5CF91
:1010E000EF92FF920F931F93CF93DF931F92CDB791
:1010F000DEB7FC01EF5BFE4F70813496E080F1803B
:10110000498301E010E020E030E0AE014F5F5F4F27
:10111000872F0E940408892B49F08CEE0F90DF91F5
:10112000CF911F910F91FF90EF90089580E0F6CF3F
:101130003F924F925F926F927F928F929F92AF9267
:10114000BF92CF92DF92EF92FF920F931F93CF93B4
:10115000DF93CDB7DEB72C970FB6F894DEBF0FBE86
:10116000CDBF4B0130E020E0312CAE014F5F5F4F2F
:101170003A01FC01EB5BFE4FFE83ED83AC014F5B5C
:101180005E4F58874F83B297FA87E98740525109DB
:101190005C874B872C015BED451A5EEF550A5C01BD
:1011A000E8EDAE1AEEEFBE0AF401E20FF31F008184
:1011B000002309F47CC031107AC069014FEFC41AD2
:1011C000D40AD401AC0DBD1D6C910F3F09F047C08E
:1011D000690152E0C50ED11CD401AC0DBD1D8C912E
:1011E0006130C1F040F0623011F1633061F1ECEF39
:1011F0003E2E9601D9CF690194E0C90ED11C2381FE
:1012000090E0982F8827820F911DEB85FC859183B4
:101210008083EFCF690144E0C40ED11C238190E0AC
:10122000982F8827820F911DE985FA85F0CF6901F3
:1012300044E0C40ED11C238190E0982F8827820FB0
:10124000911DF201E4CF690144E0C40ED11C238159
:1012500090E0982F8827820F911DF501D8CF053097
:1012600030F62E5F3F4FD401A20FB31FF301C02E03
:10127000D12CCF01861997098C159D051CF48D91F1
:101280008193F7CFC20ED31EED81FE81E080F18005
:1012900010E030E020E0A301EF81F88580810E941A
:1012A0000408892B09F4A5CF7CEE372EA2CF832D1D
:1012B0002C960FB6F894DEBF0FBECDBFDF91CF9155
:1012C0001F910F91FF90EF90DF90CF90BF90AF9064
:1012D0009F908F907F906F905F904F903F90089578
:1012E000EF92FF920F931F93AB01FC01EB5BFE4F5C
:1012F000E080F1808F5B9E4F06E010E020E030E060
:1013000060EBFC0180810E940408892B31F08CEE97
:101310001F910F91FF90EF90089580E0F9CF8F9289
:101320009F92AF92BF92CF92DF92EF92FF920F9374
:101330001F93CF93DF93D82FC62F142F613208F05D
:101340009CC00E9442036B017C0180913104811199
:101350006FC081E080933104109330049FEF90932D
:101360002F0410922E049C0F90932D0480930C0454
:1013700080910C04DD0FD82BD0930C0480910B04CA
:10138000813009F07CC010920B040E9442036B0173
:101390007C0180910C048093BB0080913304909178
:1013A0003404A0913504B0913604892B8A2B8B2B01
:1013B000A1F00E9442030091330410913404209163
:1013C0003504309136046C197D098E099F09061782
:1013D00017072807390708F44CC08091BC0083FD2B
:1013E000D8CF85EC8093BC000E9442036B017C0146
:1013F00080913104813009F444C080912E048C170F
:1014000010F4C0912E04EDE0F4E0ABEEB3E080E028
:101410008C1359C08C2FDF91CF911F910F91FF90AA
:10142000EF90DF90CF90BF90AF909F908F900895F6
:101430008091330490913404A0913504B091360426
:10144000892B8A2B8B2B09F480CF0E94420380903A
:10145000330490903404A0903504B09036046C1995
:101460007D098E099F0986169706A806B90608F019
:101470006CCF809132040E94B006C0E0CBCF85EEE5
:10148000B1CF8091330490913404A0913504B09190
:101490003604892B8A2B8B2B09F4AACF0E94420396
:1014A00000913304109134042091350430913604B6
:1014B0006C197D098E099F09061717072807390738
:1014C00008F096CFD6CF91919D938F5FA1CF0895CD
:1014D000E091EA038091E903E81730F4F0E0E55188
:1014E000FC4F808190E008958FEF9FEF08959091D9
:1014F000EA038091E9032FEF3FEF981748F4E92FB3
:10150000F0E0E551FC4F208130E09F5F9093EA03CB
:10151000C90108958091E9039091EA03891B990B11
:101520000895CF92DF92EF92FF920F931F93CF9384
:10153000DF937C01CB018A0120913704222389F0BB
:10154000EB016B01C40ED51ECC15DD0569F0699168
:10155000D701ED91FC910190F081E02DC701199523
:10156000F3CF642F0E945406C801DF91CF911F91E1
:101570000F91FF90EF90DF90CF900895CF93DF937E
:101580001F92CDB7DEB76983209137042223F9F08B
:1015900020915A04203258F021E030E0FC013383DE
:1015A000228390E080E00F90DF91CF9108958091A9
:1015B0003804E82FF0E0E75CFB4F998190838F5F60
:1015C0008093380480935A0481E090E0ECCF61E08E
:1015D000CE0101960E945406F7CF90E080E0089576
:1015E00067ED75E081EC95E00E94D40464E670E05C
:1015F00080E090E00C94670342E050E06DE273E01D
:101600008BE594E00C9499030F931F93CF93DF9392
:101610008C01D0E0C0E0F801EC0FFD1F649166235F
:1016200041F08BE594E00E942F04892B11F0219664
:10163000F2CF0E94FC0A8C0F9D1FDF91CF911F916A
:101640000F9108951F93CF93DF9300D01F921F92A5
:10165000CDB7DEB7880F880F8A5F89831A821B8215
:101660006C837D838091BB059091BC05FC01248136
:10167000358125303105E0F0208111E010933704E9
:10168000209359041092380410925A0421E045E046
:1016900050E0BE016F5F7F4F0E94C10781270F900E
:1016A0000F900F900F900F90DF91CF911F910895A1
:1016B00081E0F5CFCF93C0E070E060E08C2F0E9416
:1016C000220BCF5FC430C1F7CF910895CF93C82FBD
:1016D000653B710514F064EB70E077FF02C070E0C9
:1016E00060E022EC31E0DB010E94FD2E24EB30E0D3
:1016F00040E050E00E94462ECA01B9016A567F4F71
:101700008F4F9F4F8C2FCF910C94220BCF93DF9351
:101710001F921F92CDB7DEB789836A838091BB0584
:101720009091BC05FC01248135812230310590F077
:10173000208131E03093370420935904109238040B
:1017400010925A0421E042E050E0BE016F5F7F4FEB
:101750000E94C1070F900F90DF91CF9108958F9253
:101760009F92AF92BF92DF92EF92FF920F931F93DF
:10177000CF93DF93D82EEA01480181E080933704AC
:10178000D09259041092380410925A04D701ED9166
:10179000FC910190F081E02DC701199581E00E9434
:1017A000D10641E0602F8D2D0E948F091092EA032F
:1017B0008093E9038C0E9D1EC815D90551F0D70101
:1017C000ED91FC910284F385E02DC7011995899371
:1017D000F3CF90E080E0DF91CF911F910F91FF90C8
:1017E000EF90DF90BF90AF909F908F9008952F92D1
:1017F0003F924F925F926F927F928F929F92AF92A1
:10180000BF92CF92DF92EF92FF920F931F93CF93ED
:10181000DF93CDB7DEB72F970FB6F894DEBF0FBEBC
:10182000CDBF9C878B876D875F874E8739011701F6
:1018300028012F82388649865A8610E000E0EE247F
:10184000E394F12C0A151B0509F461C09E01295F80
:101850003F4FB201A1018E859F850E94FD014F81FE
:10186000588569857A854F3F2FEF520762077207C7
:1018700009F49CC0DB01CA018C549F4FAF4FBF4F8E
:10188000E6E0B695A79597958795EA95D1F7880FE5
:10189000991F880F991F87509D4F21E0FC0180817F
:1018A0009181A281B381892B8A2B8B2B09F420E0B3
:1018B000FD85F2137BC01A012B0133E05694479447
:1018C000379427943A95D1F7DB01CA01877099279D
:1018D000AA27BB2726E0221631044104510468F4EC
:1018E000F301E20DF31D970102C0220F331F8A9509
:1018F000E2F7C9019081892B80831A012B013FEF08
:10190000231A330A430A530A0F5F1F4F9BCFB12C90
:10191000F4012082318242825382B1102DC0B30182
:101920008B859C850E947009B82E811125C0EB859E
:10193000FC85EB5BFE4FE080F180EB85FC85EF5B87
:10194000FE4F06E010E020E030E0AE014F5F5F4F59
:1019500060EB80810E94AF0B892B11F09CEEB92EB9
:10196000F301DE011196C301069631912D913213D8
:1019700020C0E817F907C9F78B2D2F960FB6F894FA
:10198000DEBF0FBECDBFDF91CF911F910F91FF90B2
:10199000EF90DF90CF90BF90AF909F908F907F900F
:1019A0006F905F904F903F902F9008952EECB22E45
:1019B000AFCF8EECB82EE0CFCF92DF92EF92FF92B6
:1019C0000F931F93CF93DF9300D01F92CDB7DEB755
:1019D0006A01FC01EB5BFE4FE080F1808F5B9E4F64
:1019E00004E010E020E030E0AE014F5F5F4FFC010B
:1019F00080810E94AF0B49815A8154274527542783
:101A000070E060E0762F652F542F44272B81422B06
:101A1000762F652F542F44272C81422BF6014083CB
:101A2000518362837383892B71F480E00F900F9050
:101A30000F900F90DF91CF911F910F91FF90EF903A
:101A4000DF90CF9008958CEEF1CFCF92DF92EF929E
:101A5000FF920F931F93CF93DF931F921F92CDB7E7
:101A6000DEB76A01FC01EB5BFE4FE080F1808F5B2B
:101A70009E4F02E010E020E030E0AE014F5F5F4F8C
:101A8000FC0180810E94AF0B29813A8132272327F4
:101A90003227F60131832083892B61F480E00F9097
:101AA0000F90DF91CF911F910F91FF90EF90DF90FA
:101AB000CF9008958CEEF3CF0F931F93CF93DF93C6
:101AC0001F921F92CDB7DEB7FC01E253FF4F20817A
:101AD00021502330B8F48C01AE014F5F5F4F6EE0B0
:101AE0000E94250D811107C0AE014F5F5F4F6CE072
:101AF000C8010E94250D0F900F90DF91CF911F918B
:101B00000F91089580E0F7CFEF92FF920F931F930C
:101B1000CF93DF931F921F92CDB7DEB78C017A016E
:101B20006330710509F449C090F46130710509F121
:101B300062307105E1F1F80181A992A9A3A9B4A9C4
:101B4000F70180839183A283B38380E049C066302C
:101B5000710588F7AE014F5F5F4F64E60E94250D67
:101B600081113EC0298180E0922F990FB0E0A0E062
:101B7000E7CFAE014F5F5F4F64E40E94250D8111F6
:101B80002FC0998120E0392F330FA90170E060E068
:101B9000232BD1F0F7014083518362837383F801D3
:101BA00045AB56AB67AB70AF91E096A319C0FC0193
:101BB00081AD92ADA3ADB4ADC3CFFC01FD968081E4
:101BC0009181A281B381BCCFF80145A956A967A92B
:101BD00070ADF7014083518362837383F80116A2CD
:101BE0000F900F90DF91CF911F910F91FF90EF9089
:101BF00008958F929F92AF92BF92CF92DF92EF9211
:101C0000FF920F931F93CF93DF931F921F92CDB735
:101C1000DEB7962ED42E822EFC01EF5BFE4FC080E5
:101C20005C012BEBA21A2EEFB20AF501E080F180E5
:101C300001E010E020E030E0AE014E5F5F4F8C2D00
:101C40000E94AF0B892BA9F42A812D2128292A83F0
:101C5000F501E080F180298301E010E020E030E030
:101C6000AE014F5F5F4F692D8C2D0E940408892BB8
:101C700081F08CEE0F900F90DF91CF911F910F911B
:101C8000FF90EF90DF90CF90BF90AF909F908F909C
:101C9000089580E0EFCFEF92FF920F931F93FC0126
:101CA000EB5BFE4FE080F1808F5B9E4F01E010E028
:101CB00020E030E0FC0180810E94AF0B892B31F0E5
:101CC0008CEE1F910F91FF90EF90089580E0F9CF77
:101CD0009F92AF92BF92CF92DF92EF92FF920F93BB
:101CE0001F93CF93DF931F92CDB7DEB77C015B01CB
:101CF0006A01922E198241E06FEF0E947008182F3E
:101D000040E060E0C7010E947008182B40E06FEFD0
:101D1000C7010E947008182B992031F0A5016BECC7
:101D2000C7010E944B0E182B002341F0AE014F5FFC
:101D30005F4F6EEEC7010E944B0E182B41E06FEF14
:101D4000C7010E947008182B41E060E0C7010E94A3
:101D50007008182B40E06FEFC7010E94700899814E
:101D60009F7EF6019083812B0F90DF91CF911F9181
:101D70000F91FF90EF90DF90CF90BF90AF909F902A
:101D80000895EF92FF920F931F93CF93DF931F92CB
:101D9000CDB7DEB77C0100E041E06BE0C7010E94F7
:101DA0007008182F40E06BE0C7010E947008182BE4
:101DB000AE014F5F5F4F63E1C7010E944B0E812B65
:101DC0000F5F9981977061F0033061F0882321F3F0
:101DD0000F90DF91CF911F910F91FF90EF90089599
:101DE0000330B1F784EFF4CF0F931F93CF93DF93BA
:101DF0001F92CDB7DEB78A01AE014F5F5F4F6130F2
:101E000081F060E50E944B0E811105C099819F5FB2
:101E1000990FF80190830F90DF91CF911F910F914F
:101E2000089560E7EFCFCF92DF92EF92FF921F937A
:101E3000CF93DF931F92CDB7DEB77C0140E063E81C
:101E40000E947008182F811117C0D12CC12CAE012F
:101E50004F5F5F4F63E8C7010E944B0E182F8981C7
:101E600081110AC0111108C08FEFC81AD80A88EC76
:101E7000C816D10461F719EF41E063E8C7010E9479
:101E80007008812B0F90DF91CF911F91FF90EF9001
:101E9000DF90CF900895CF92DF92EF92FF920F9351
:101EA0001F93CF93DF931F92CDB7DEB77C0110E075
:101EB00000E06C018EECC80ED11CF6018081AE01F1
:101EC0004F5F5F4F8430A9F463E1C7010E944B0E5E
:101ED0009981292F2770987111F58823D9F00F90D7
:101EE000DF91CF911F910F91FF90EF90DF90CF90F6
:101EF000089564E1C7010E944B0E8111F0CF9981D2
:101F000090FDEDCF0F5F1F4F083C110531F00E948F
:101F1000D501D3CF2430B1F7E2CF89EFE0CF8AEFFC
:101F2000DECFCF93DF93EC01462F416060E00E944B
:101F30007008811111C0CE010E944B0F81110CC09D
:101F4000CE010E94C10E811107C040E060E0CE01C9
:101F5000DF91CF910C947008DF91CF910895CF92CB
:101F6000DF92EF92FF920F931F93CF93DF931F9215
:101F7000CDB7DEB78C01FC01F08841E060E80E943B
:101F8000700841E06FEFC8010E94700840E060E017
:101F9000C8010E947008F801E95DFE4F408161E9C7
:101FA000C8010E94700841E060E0C8010E9470080A
:101FB00040E06FEFC8010E94700840E060E8C8018F
:101FC0000E947008F1E0FF16F1F1FF1630F093E087
:101FD000F91609F44AC088EF0CC041E060E0C8017E
:101FE0000E94700891E09983C12CD12C760188233E
:101FF00089F00F90DF91CF911F910F91FF90EF909B
:10200000DF90CF900895AE014F5F5F4F60E0C80151
:102010000E944B0EEFEFCE1ADE0AEE0AFE0A9981FD
:1020200090FF0AC0811108C0F8ECCF16D104E1047A
:10203000F10449F789EFDDCF98ECC916D104E1042A
:10204000F104B9F6F7CF811103C0C8010E945C0DFD
:1020500042E060E0C8010E9470088111CACFF80117
:10206000E15EFE4F94E09083C4CF811103C0C801AC
:102070000E945C0D44E0EDCF8F929F92AF92BF9291
:10208000CF92DF92EF92FF920F931F93CF93DF9344
:1020900000D000D0CDB7DEB76C014C0188EB881AB8
:1020A0008EEF980AD401ED91FC91119783E0808B1B
:1020B000F6011082AD90BC90AE014B5F5F4F68EFB0
:1020C000C5010E94250D811134C02D813E8162E33E
:1020D00070E080E02115310521F0A2E3B0E00E941C
:1020E0009A2EF501EF5BFE4F90813496E080F180EF
:1020F0006C837B838A83198204E010E020E030E067
:10210000AE014F5F5F4F64E0892F0E940408892B66
:1021100099F482E390E0A0E0B0E0F501868B978B24
:10212000A08FB18FD6011C92F401808191810E9411
:10213000AF0FD6018C9303C08CEEF601808381E053
:10214000F6019081911180E026960FB6F894DEBFDB
:102150000FBECDBFDF91CF911F910F91FF90EF90F8
:10216000DF90CF90BF90AF909F908F9008952F9267
:102170003F924F925F926F927F928F929F92AF9217
:10218000BF92CF92DF92EF92FF920F931F93CF9364
:10219000DF93CDB7DEB7EC970FB6F894DEBF0FBE76
:1021A000CDBF6C015B01DC0150961C920E94AF0F09
:1021B00081111CC0C6010E944B0F811117C083E022
:1021C000F601E15EFE4F8083B696E080F1800CE080
:1021D00010E020E030E0AE01465E5F4F64E13497EE
:1021E00080810E94AF0B892BD1F08CEEEC960FB65C
:1021F000F894DEBF0FBECDBFDF91CF911F910F913D
:10220000FF90EF90DF90CF90BF90AF909F908F9016
:102210007F906F905F904F903F902F900895F501C1
:10222000168AD50110821182128213826CA170E08D
:10223000762F66272DA1620F711D148215821682DA
:102240001782E9A1F0E0FE2FEE27FF0F2F01712C7E
:10225000612C1C964D925D926D927C921F978BA182
:1022600090E0982F8827990F8C0130E020E050965D
:102270000D931D932D933C9353970C8D10E0102FCD
:1022800000272D8D7801E20EF11CFCAEEBAE5596C9
:10229000FC92EE9254979A8CD601A75CBE4F2D917A
:1022A0003C9111975B978C90283E03E03007E9F151
:1022B000629FC001639F900D729F900D11248C50FE
:1022C0009E4F68EE73E00E94C52ED6015D96ED909C
:1022D000FD900D911C9190975A962C91222329F1F3
:1022E0002BAD3CAD2E9DA0012F9D500D3E9D500D60
:1022F0001124452F5527E417F50741F460EE7AE8DD
:10230000882009F4E3C068EB72E212C09F01DB0190
:102310000E949A2E83017F01E41AF50A010911092E
:10232000A80197010E94782EB901882009F4CEC037
:10233000CB019695879596958795D50119969C938F
:102340008E9318976295660F660F607C57966C9314
:102350001FA61EA6892D90E07C0173E0F594E794FA
:102360007A95E1F7FAAEE9AE09AD0F70902E09F457
:10237000B2C089AD8D7011E018AB853029F084EFC3
:10238000800F843008F018AA41E06FEFC6010E9468
:102390007008811107C0AE01425D5F4F66EBC60158
:1023A0000E94250D9EA520E0392F330F790110E002
:1023B00000E0E9AAFAAA0BAB1CAB811105C040E012
:1023C0006FEFC6010E947008F601EE5CFE4FE9A8AF
:1023D000FAA80BA91CA9E082F18202831383811160
:1023E00078C1D60195968C909597882009F47FC086
:1023F000F501E484F584068517855A968C9120E0D2
:1024000030E0A901882399F0A489B589F601258DCA
:10241000368D478D50A10E94652E9B01AC0120583E
:102420003F4F4F4F5F4F232F342F452F55272E0DF2
:102430003F1D401F511FA8EEB3E00E94652E70584B
:102440008F4F9F4FBC0188279927F601E65DFE4F0D
:10245000672B682B692B09F041C08EEA97E8AFE83B
:10246000B2E080839183A283B3831EEAE12E17E852
:10247000F12E0FE812E0EDAAFEAA0FAB18AFD501BE
:102480001B961C921E921A97AE01465D5F4F70E03C
:1024900060E0C6010E94840D4AA55BA56CA57DA5E0
:1024A000411551056105710559F0FF24F3940DA9FB
:1024B0001EA92FA938AD401751076207730708F00E
:1024C000F12C8823A9F0312C212C07C1F50171874B
:1024D0006087178A3DCF01E008AB56CF108211828A
:1024E000128213821DAA1EAA1FAA18AEC8CFF12CF1
:1024F000D60197963C90332009F4C5C0AE014A5DE1
:102500005F4F62E070E0C6010E94840D4EA15FA1A2
:1025100068A579A5411551056105710559F0EE24AD
:10252000E39409A91AA92BA93CA9401751076207EE
:10253000730708F0E12C212C90E0811132C0D60104
:1025400098962C90222009F4A4C00BAD1CAD011567
:10255000110509F49AC0962D852D742D66279801D2
:1025600050E040E00E94782E29013A01AE014F5F11
:102570005F4F63E070E0C6010E94840D49815A817B
:102580006B817C81411551056105710531F091E048
:10259000441655066606770608F090E0882309F48D
:1025A00079C0D5011B961C921E921A9780E081106B
:1025B00002C0FF24F394F60136A1F3A6F4E09F16BF
:1025C00009F4A8C021E0311120E0D6019C962C939B
:1025D000311002C0EE24E394F601E5A6211001C0FB
:1025E00091E0D6019E969C93F501808F9601265B23
:1025F0003F4F99E1F901DE01119601900D929A95F4
:10260000E1F7D5011896ED91FC91199757969C9199
:1026100057971A966D917C911B971C96ED90FD90A3
:102620000D911C911F9750964D905D906D907C90F0
:10263000539754964D915C91559714968D909D901B
:10264000AD90BC9017978D829E82AF82B886FA8734
:10265000E9877C876B87ED86FE860F87188B498A12
:102660005A8A6B8A7C8A5E8B4D8B988F898F89E121
:10267000FE013196D90101900D928A95E1F7C601CC
:102680000E94C10EB3CDE12C5ACF412C512C320106
:102690006DCF90E018A98FEF113009F488CF890D24
:1026A0008330F0F026E09216F9F039E09316E1F06D
:1026B00089AD8D708830B1F041E0E41699F054E0B6
:1026C0009516F9F09130C1F0F416C1F09F2DEF2C62
:1026D00068CF312C812C212CF12C90E0E12C61CFA2
:1026E00085E065CF83E063CF84E0811064CFF6019D
:1026F00036A121E023A766CF82E0F7CFE92E81E063
:10270000F4CF82E0811057CF81E0D6019B968C9365
:10271000E12C82E021E059CFAF92BF92DF92EF929D
:10272000FF920F931F93CF93DF93CDB7DEB76997D7
:102730000FB6F894DEBF0FBECDBF8C015B017C01EC
:1027400083EEE81A8EEFF80AF701D08040EC61E0E2
:10275000C8010E947008811126C0BE016F5F7F4FC3
:10276000C8010E94B71081111EC041E06FEFC8017F
:102770000E947008811117C0A50166EBC8010E9474
:10278000250D811110C040E06FEFC8010E94700854
:10279000811109C04D2D61E0C8010E9470088111AE
:1027A00002C0F701D08269960FB6F894DEBF0FBE63
:1027B000CDBFDF91CF911F910F91FF90EF90DF90F0
:1027C000BF90AF9008950F931F93CF93DF93CDB732
:1027D000DEB769970FB6F894DEBF0FBECDBF8C0190
:1027E000FC01E85BFE4FBE016F5F7F4F80819181EE
:1027F0000E94B710F8018083E355FE4F998D9083B6
:1028000081110DC089859A8569960FB6F894DEBF4F
:102810000FBECDBFDF91CF911F910F9108958FEF24
:102820009FEFF2CF0F931F93CF93DF931F92CDB7FC
:10283000DEB78B011982AE014F5F5F4F61E00E94EE
:102840004B0E811116C0998194FB332730F9F801A2
:10285000308393FB332730F9328392FB332730F9EF
:10286000318396FB222720F92383991F9927991FEB
:1028700094830F90DF91CF911F910F9108952F9224
:102880003F924F925F926F927F928F929F92AF9200
:10289000BF92CF92DF92EF92FF921F93CF93DF937D
:1028A00000D000D000D01F921F92CDB7DEB76C01D0
:1028B0001A011B861F821E82623009F06EC0AE01B3
:1028C000465F5F4F60E00E94F40E182F811108C030
:1028D000AE01455F5F4F66E4C6010E944B0E182FA4
:1028E000AA85B0E020E03FE24AE350E00E94652E76
:1028F0002B013C0124EF420E21E0521E611C711C91
:10290000CB84D12CF12CE12C8FEFC81AD80AE80A1D
:10291000F80A98EE892E93E0992EA12CB12CC301D0
:10292000B201A50194010E94782ECA01B901A70144
:1029300096010E94A92E6B017C01C301B20120ED1A
:1029400037E040E050E00E94782EC701B601620FE8
:10295000731F841F951FA50194010E94782EF10119
:102960002083318342835383812F2B960FB6F894B3
:10297000DEBF0FBECDBFDF91CF911F91FF90EF90D3
:10298000DF90CF90BF90AF909F908F907F906F908F
:102990005F904F903F902F900895633009F043C0AF
:1029A000AE01465F5F4F60E00E94F40E182F20E0FA
:1029B00030E0A9018111D3CFAE01465F5F4F60E0E7
:1029C000C6010E94F40E182F811108C0AE014A5FA3
:1029D0005F4F61E5C6010E94250D182FEE81FF8132
:1029E000AA85B0E020E03FE24AE350E00E94652E75
:1029F0002B013C0124EF420E21E0521E611C711C90
:102A00006F01DD24F12CE12C04C0CC0CDD1CEE1C8C
:102A1000FF1CFA95D2F78FEFC81AD80AE80AF80A0D
:102A2000EE24FF2476CFBE016F5F7F4F0E94121409
:102A30008C81882351F1AE01465F5F4F60E0C60193
:102A40000E94F40E182FF12CE12C81111BC0AE0155
:102A50004A5F5F4F61E5C6010E94250D182F2E8148
:102A60003F81C9019927B0E0A0E004C0880F991FF9
:102A7000AA1FBB1F3A95D2F70196A11DB11D7C017B
:102A8000112329F0D12CC12C25C0F12CE12CAE0151
:102A9000465F5F4F61E0C6010E94F40E182F81115E
:102AA000F1CFAE01485F5F4F61E7C6010E94250D7F
:102AB000182F28853985C9019927B0E0A0E004C006
:102AC000880F991FAA1FBB1F3A95D2F70196A11D27
:102AD000B11D6C01AA85B0E020E03FE24AE350E07E
:102AE0000E94652E2B013C01E4EF4E0EE1E05E1EDC
:102AF000611C711C88EE882E83E0982EA12CB12CCD
:102B0000C301B201A50194010E94782ED601AE192D
:102B1000BF090E94652E0FCF4F925F926F927F92F6
:102B2000BF92CF92DF92EF92FF920F931F93CF93BA
:102B3000DF9300D01F92CDB7DEB78A01AE014F5FA1
:102B40005F4F0E943F14B82E81112AC069817A819B
:102B50008B819C8128EE422E23E0522E612C712C19
:102B6000A30192010E94782E69017A019B01AC01B8
:102B7000AFEFBFEF0E94652E6C507E4F8F4F9F4F7F
:102B8000A30192010E94782E7601DD24CC24C20E8E
:102B9000D31EE41EF51EF801C082D182E282F382C8
:102BA0008B2D0F900F900F900F90DF91CF911F9171
:102BB0000F91FF90EF90DF90CF90BF907F906F903C
:102BC0005F904F9008955F926F927F928F929F9245
:102BD000AF92BF92CF92DF92EF92FF920F931F932B
:102BE000CF93DF93CDB7DEB761970FB6F894DEBF12
:102BF0000FBECDBF7C018B01FC018089FB0180836E
:102C0000AE014A5F5F4F68EFC7010E94250D582E45
:102C100081113AC1AE014F5F5F4F64E0C7010E946E
:102C2000DC0C582E811130C12E813F8121153105D8
:102C300069F050E040E069817A818B819C810E943B
:102C4000782EF8012683378340875187F8018681E3
:102C50009781A085B185F701868B978BA08FB18F67
:102C6000F8011286AE014F5F5F4F60E2C7010E941C
:102C7000250D582E811108C189819A81009709F08C
:102C80001AC1F701858D968DA78DB0A1F8018587B2
:102C90009687A787B08BF701128EAE014F5F5F4F0B
:102CA00068E2C7010E94250D582E8111EDC089816F
:102CB0009A819F708115F8E09F0708F090514AEFC4
:102CC000489F9001499F300D1124C901330FAA0B71
:102CD000BB0BF801818B928BA38BB48B5801F1E273
:102CE000AF0EB11C470125E2820E911C380185E12F
:102CF000680E711CD12CC12CA501B601C7010E9420
:102D0000840D582E8111C0C0F40181914F01F3014F
:102D100081933F01FFEFCF1ADF0A24E0A20EB11C1E
:102D200086E0C816D10441F7AE014F5F5F4F61E006
:102D3000C7010E944B0E582E8111A6C08981F70150
:102D4000E35EFE4F808387FFCAC081E0F80181AF58
:102D5000F80181ADF701E75BFF4F808380ED97E0DD
:102D6000A0E0B0E08A879B87AC87BD871E821F8268
:102D70001886198686E39BE0A0E0B0E0F801828324
:102D80009383A483B583BE016F5F7F4FC7010E9409
:102D90001214582E811178C08981811107C08A814F
:102DA000811104C08B81882309F43EC0AE01465FC7
:102DB0005F4F62E0C7010E943F148111C1C0898149
:102DC0008823A9F08A859B85AC85BD85825B9D4F54
:102DD000AF4FBF4FF8014281538164817581840FE9
:102DE000951FA61FB71F82839383A483B5838B810E
:102DF000882309F477C08A859B85AC85BD858E5470
:102E00009D4FAF4FBF4F880F991FAA1FBB1FF801DF
:102E10004281538164817581840F951FA61FB71F5E
:102E200082839383A483B5838C81811168C08D8153
:102E3000882301F1AE01425F5F4F64E0C7010E9449
:102E40003F148E849F84A888B988F6E28F0EF2E042
:102E50009F1EA11CB11CF8014281538164817581C0
:102E6000480D591D6A1D7B1D4283538364837583FE
:102E7000811166C0F80182819381A481B581F70137
:102E8000828B938BA48BB58B852D61960FB6F894AE
:102E9000DEBF0FBECDBFDF91CF911F910F91FF908D
:102EA000EF90DF90CF90BF90AF909F908F907F90EA
:102EB0006F905F90089533E0880F991F3A95E1F77E
:102EC000B0E0A0E0F80185879687A787B08BF7016F
:102ED000858F968FA78FB0A381E0828FDECEF80119
:102EE00011AE36CF8A81882309F49ECF8A859B85CF
:102EF000AC85BD858C569D4FAF4FBF4F88CFAE017F
:102F00004A5F5F4F63E0C7010E943F148E809F803D
:102F1000A884B984F4E98F0EF2E09F1EA11CB11CB5
:102F2000F8014281538164817581480D591D6A1DE4
:102F30007B1D4283538364837583882309F477CF91
:102F4000582EA2CF8F929F92AF92BF92CF92DF92D4
:102F5000EF92FF920F931F93CF93DF931F92CDB702
:102F6000DEB76B017C0120E030E040E85FE30E94C7
:102F7000712F87FD97C020E030EC4AE555E4C7018A
:102F8000B6010E94C93018160CF493C06091BD05BB
:102F90007091BE058091BF059091C0050E941730C9
:102FA0004B015C0120E030E040E855E4C701B60188
:102FB0000E94CE309B01AC01C501B4010E94762F66
:102FC00020E030E040E05FE30E94052F20E030E0A9
:102FD00040E85FE30E94042F6B017C0120E030E0B9
:102FE00040E450E40E94712F87FD6BC020E030E088
:102FF0004FE753E4C701B6010E94C93018160CF41C
:1030000066C0C701B6010E94E82FB62E1982009152
:10301000BB051091BC05D80114968D919C91159714
:10302000892B09F45EC08C9191E0909337048093D2
:1030300059041092380410925A0420E041E050E004
:10304000BE016F5F7F4FC8010E94C107882309F44A
:1030500048C0F801E480F58061E0E114F10409F46E
:1030600060E0C62ED12C462FD8018C910E948F098A
:103070001092EA038093E9038C151D0491F590E00A
:1030800080E08C159D0550F5F80181819281DC016D
:10309000ED91FC910284F385E02D1995898381E0FF
:1030A00090E0EFCFC12CD12C30E8E32E3FE3F32E9C
:1030B0006DCFC12C20ECD22E2AE5E22E25E4F22E93
:1030C00065CFC12CD12C90E4E92EFE2C9ACFC12CD7
:1030D000D12C8FE7E82E83E4F82E93CFEF2809F464
:1030E000B8CF1981612F6F76606180E00E94860BF6
:1030F0006B2D8EEF0E94860B612F80E00E94860B65
:1031000065E070E080E090E00E946703612F606AF4
:1031100080E00E94860B0F90DF91CF911F910F915D
:10312000FF90EF90DF90CF90BF90AF909F908F90E7
:1031300008952F923F924F925F926F927F928F925B
:103140009F92AF92BF92CF92DF92EF92FF920F9336
:103150001F93CF93DF93CDB7DEB769970FB6F8947F
:10316000DEBF0FBECDBF00ED17E020E030E00B87E3
:103170001C872D873E871F86188A198A1A8A403233
:103180002EE4520761057105E0F45CEFB52E8B2D3E
:1031900069960FB6F894DEBF0FBECDBFDF91CF9119
:1031A0001F910F91FF90EF90DF90CF90BF90AF9065
:1031B0009F908F907F906F905F904F903F902F9057
:1031C00008954E8B5F8B688F798F8C01BE016A5F8B
:1031D0007F4F0E941214B82E8111D9CFCE88DF887C
:1031E000E88CF98C88EEC81A88E0D80AE108F10862
:1031F0008E81811106C08F81811103C0888588234B
:10320000C1F1AE01455F5F4F62E0C8010E943F140B
:1032100081110AC18E81882391F08B859C85AD85B3
:10322000BE85825B9D4FAF4FBF4F8C159D05AE0590
:10323000BF0508F0AACFC81AD90AEA0AFB0A88858E
:10324000882309F471C08B859C85AD85BE858E541D
:103250009D4FAF4FBF4F880F991FAA1FBB1F8C15E3
:103260009D05AE05BF0508F090CFC81AD90AEA0A35
:10327000FB0A89858823D9F0AE01415F5F4F63E087
:10328000C8010E943F144F85588969897A894C5634
:103290005D4F6F4F7F4F4C155D056E057F0508F044
:1032A00074CF8111C1C0C41AD50AE60AF70A8A850B
:1032B000882309F46CCFBE016F5F7F4FC8010E9465
:1032C00012148C818823E9F1AE014B5E5F4F60E000
:1032D000C8010E94F40EB82E81111CC0AE014D5ED3
:1032E0005F4F61E5C8010E94250DB82E8B899C892E
:1032F0001C013324512C412C04C0220C331C441CCF
:10330000551C9A95D2F79FEF291A390A490A590A8A
:10331000BB20C9F08E899F89A88DB98DF801828B59
:10332000938BA48BB58B33CF8F81882309F4A1CFE6
:103330008B859C85AD85BE858C569D4FAF4FBF4F0D
:103340008ECF312C212CAE014B5E5F4F61E0C80166
:103350000E94F40EB82E8111DDCFA6E2CA1AA2E0B7
:10336000DA0AE108F108AD89B0E020E03FE24AE383
:1033700050E00E94652E4B015C01B4EF8B0EB1E072
:103380009B1EA11CB11CA8EEB3E0A70196010E94F0
:10339000652E2B013C01C501B40120ED37E040E072
:1033A00050E00E94782E420E531E641E751EC50109
:1033B000B40128EE33E040E050E00E94782EC301D3
:1033C000B2010E94782E220E331E21143104E1F046
:1033D0004101B12CA12CE1E08E1A9108A108B1089D
:1033E00090E080E0B501A4014427452B462B472BF4
:1033F00031F0B694A794979487940196F3CF982FC1
:1034000088271C01280C391CA10161E7C8010E9412
:103410004508B82E81117ECFF801E153FF4FC082DD
:10342000D182E282F38276CFB82EB1CE7F928F9294
:103430009F92AF92BF92CF92DF92EF92FF920F9343
:103440001F93CF93DF931F92CDB7DEB77C015B0153
:103450006A01722E4C0183EE881A8EEF980AF401ED
:103460001081198241E061E0C7010E94700881115A
:103470004AC060E4C7010E94910F811144C0F1E08D
:103480007F121AC000E021E0AE014F5F5F4FB5012F
:10349000C7010E94680E882389F00F90DF91CF91B9
:1034A0001F910F91FF90EF90DF90CF90BF90AF9062
:1034B0009F908F907F900895F501108242E061E027
:1034C000C7010E947008811124C060E0C7010E94FA
:1034D000910F81111EC0F1E07F1218C001E020E0C1
:1034E000A601BE016F5F7F4FC7010E94680E811168
:1034F000D4CF412F61E0C7010E9470088111CDCF68
:10350000F4011083CACFF5011082C7CFF6011082F3
:10351000F0CFF601F9CF2F923F924F925F926F92C8
:103520007F928F929F92AF92BF92CF92DF92EF9253
:10353000FF920F931F93CF93DF93CDB7DEB7AC9776
:103540000FB6F894DEBF0FBECDBF1C017FA36EA3E4
:1035500059A748A71F82188619861A861B861C86BB
:103560001D861E86198A1A8AFC01E85DFE4F20819D
:103570003181398F288FAC014F5E5E4F5B8F4A8F50
:10358000DA011C922C01BEEE4B1ABEEF5B0AF2016F
:1035900010823C01FDEE6F1AFEEF7F0AD3011C92F0
:1035A000FC01EC5EFE4F1082319610823196108243
:1035B00041E06FEF0E9470088B8B81111DC140E0CC
:1035C0006FE4C1010E9470088B8B811115C14CE220
:1035D0006EE4C1010E9470088B8B81110DC140E027
:1035E0006FEFC1010E9470088B8B811105C144EB04
:1035F00066EBC1010E9470088B8B8111FDC040E019
:1036000060E8C1010E9470088B8B8111F5C020E039
:10361000AE014E5E5F4FBE016F5E7F4FC1010E94E3
:10362000161A8B8B8111E8C01F82188619861A869C
:10363000F101E95EFE4FFD8FEC8F9E01295F3F4F48
:103640004901A3E0AA2EB12CC12CD12CE12CF12CE4
:1036500087012A8D3B8DAF0160E0C1010E94F70B0D
:103660008B8B8111C9C04F81588569857A854C8BB8
:103670005D8B6E8B7F8BBE01615F7F4FC1010E94AE
:103680008C138B8B8111B8C08F859889688D798D4B
:103690006817790708F0D3C0AA8DBB8D1C92F20180
:1036A0001082D3011C92329610823196108231968C
:1036B00010828C899D89AE89BF898C549F4FAF4FF2
:1036C000BF4FE6E0B695A79597958795EA95D1F710
:1036D000880F991F880F991F87509D4FFC0180818B
:1036E0009181A281B381892B8A2B8B2B91F42C8918
:1036F0003D894E895F892C3231054105510548F4D9
:103700002F5F3F4F4F4F5F4F2C8B3D8B4E8B5F8B0F
:10371000D0CFAE01495F5F4F4A0173E0A72EB12CB5
:10372000C12CD12CEC88FD880E891F892A8D3B8DF8
:103730004C8D5D8D61E0C1010E94F70B811159C173
:103740006F81788589859A856C8B7D8B8E8B9F8B1D
:10375000BE01615F7F4FC1010E948C13811149C17D
:103760008F859889A88DB98D11E063E0462E512C84
:10377000612C712CA817B90720F010E0412C512CB6
:103780003201C12CD12C7601C39460C0D501C40193
:103790000196A11DB11D8C8B9D8BAE8BBF8B86E0DE
:1037A000EAA5FBA5ACA5B02F01900D928A95E1F793
:1037B0004E8C5F8C68A079A04AA35BA36CA37DA309
:1037C0006FC04E8C5F8C68A079A0AEA1BFA14D9256
:1037D0005D926D927C921397E8A5F9A51083F10193
:1037E000EC5FFE4F81E0808332978C918083A8A5A7
:1037F000B9A58C91319680838B89AC960FB6F894DD
:10380000DEBF0FBECDBFDF91CF911F910F91FF9013
:10381000EF90DF90CF90BF90AF909F908F907F9070
:103820006F905F904F903F902F900895BEECBB8BB0
:10383000E3CFEEECEB8BE0CFFEECFB8BDDCF10E0CB
:10384000412C512C3201C12CD12C76018F859889C5
:10385000288D398D8217930708F0B7CF46E0EA8D9F
:10386000FB8D9E012F5F3F4FD90101900D924A952C
:10387000E1F7E88DF98D8E1B9F0BAC0170E060E0E5
:103880004AA35BA36CA37DA353E0452E512C612C6E
:10389000712CB1016F5E7E4F7BA76AA72CA7032F07
:1038A0009E01255F3F4F4C895D896E897F898C8D94
:1038B0009D8D0E94FD018B849C84AD84BE847FEF2E
:1038C00087169706A706B70609F4B0CFD301C20141
:1038D0000196A11DB11D8E8F9F8FA8A3B9A3D501FD
:1038E000C4018C549F4FAF4FBF4F36E0B695A7959C
:1038F000979587953A95D1F7880F991F880F991F4B
:1039000087509D4F11E0FC0180819181A281B3819C
:10391000892B8A2B8B2B09F410E0812F90E0B0E0EB
:10392000A0E08C159D05AE05BF0509F082CFD5013D
:10393000C40123E0B695A795979587952A95D1F769
:10394000B501A40147705527662777278630910572
:10395000A105B10508F070CFEA8DFB8DE80FF91FC6
:1039600021E030E001C0220F4A95EAF78081822BE6
:1039700080836A8D7B8DC1010E947009811139C0DD
:10398000BE01615F7F4FC1010E948C13811131C064
:103990008F859889288D398DAC01421B530B821776
:1039A000930711F450E040E070E060E0A88DB98D1D
:1039B000A817B90708F0EACE8AA19BA1ACA1BDA1C6
:1039C00084179507A607B70708F0FBCEBE016F5F07
:1039D0007F4FC1010E94700996E0FE013196D1012E
:1039E000AF5EBE4F01900D929A95E1F7882309F4DE
:1039F000ECCE8B8B01CF9F92AF92BF92CF92DF9292
:103A0000EF92FF920F931F93CF93DF93CDB7DEB763
:103A1000A0970FB6F894DEBF0FBECDBF6C012FED9F
:103A2000C20ED11CF601A080F7E0F12CAF1609F40C
:103A3000EEC0B62E8C0141E060E80E947008F82EBE
:103A400041E06FEFC8010E947008F82A40E060E092
:103A5000C8010E947008F82A46E06FEFC8010E9472
:103A60007008F82AAE01425E5F4F63E8C8010E9409
:103A70004B0EF82A4E8D446063E8C8010E9470081E
:103A8000F82A47E06FEFC8010E947008F82A41E069
:103A900061E8C8010E947008F82A0E94D501F82A3E
:103AA00041E060E8C8010E947008F82A21E0B212E3
:103AB000C1C0A0FC02C24BE664E9C8010E947008C4
:103AC000E82EC8010E94130F8E29F82AAE01465E27
:103AD0005F4F60E9C8010E94DC0CF82A8A8D9B8D3B
:103AE000AC8DBD8D992EE89497F897FBEE24E0F805
:103AF00044E264E9C8010E947008F82AC8010E94E3
:103B0000130FF82AAE01465E5F4F60E9C8010E94BC
:103B1000DC0CF82A8A8D9B8D2C8D3D8D3C8B2D8B5A
:103B20009E8B8F8B45E264E9C8010E947008F82AD9
:103B3000C8010E94130FF82AAE01465E5F4F60E98C
:103B4000C8010E94DC0CF82A8C8D9D8D988F898F7E
:103B500040E061E8C8010E947008F82A46E06FEF73
:103B6000C8010E947008F82AAE01425E5F4F63E808
:103B7000C8010E944B0EF82A4E8D4B7F63E8C801A6
:103B80000E947008F82A41E06FEFC8010E94700897
:103B9000F82A41E060E0C8010E947008F82A40E07D
:103BA0006FEFC8010E947008F82A40E060E8C80181
:103BB0000E947008F82A59F5F1E0BF1699F0A1FCAF
:103BC00023C0F801E052FF4F8F8D8083319688A18A
:103BD0008083BE016F5F7F4FC8018E519F4F0E944F
:103BE000603212C0A0FC10C0F801EE5FFE4F908260
:103BF0003196E082DE0154967496035E1E4F8D91DD
:103C000081930E171F07D9F7BA28F601B0828F2DBE
:103C1000A0960FB6F894DEBF0FBECDBFDF91CF9157
:103C20001F910F91FF90EF90DF90CF90BF90AF90DA
:103C30009F900895A1FC41C142E064E9C8010E943F
:103C40007008E82EC8010E94130F8E29F82AAE01D1
:103C5000415E5F4F60E9C8010E944B0EF82A4BE7B6
:103C600064E9C8010E947008F82AC8010E94130F75
:103C7000F82AAE01405E5F4F60E9C8010E944B0E1A
:103C8000F82A47E764E9C8010E947008F82AC801C9
:103C90000E94130FF82AAE01465E5F4F60E9C8012B
:103CA0000E94DC0CF82A4A8D5B8D6C8D7D8DDB01CA
:103CB000CA0129E1B695A795979587952A95D1F7D9
:103CC0008983DB01CA0132E1B695A795979587955F
:103CD0003A95D1F78F778A83DB01CA01EBE0B6957D
:103CE000A79597958795EA95D1F78F778B83DB0119
:103CF000CA01F4E0B695A79597958795FA95D1F7FF
:103D00008F778C83440F440F440F48774E8F48E7DA
:103D100064E9C8010E947008F82AC8010E94130FC4
:103D2000F82AAE01465E5F4F60E9C8010E94DC0CD4
:103D3000F82A8A8D9B8DAC8DBD8DAC01BD012DE126
:103D400076956795579547952A95D1F72E8D240F2F
:103D50002D83AC01BD0136E1769567955795479562
:103D60003A95D1F74F774E83AC01BD01EFE07695E0
:103D7000679557954795EA95D1F74F774F83292F48
:103D80002F772887AC01BD017695679557954795A4
:103D90004F774987982F9295990F990F90749E8F1E
:103DA00049E764E9C8010E947008F82AC8010E9426
:103DB000130FF82AAE01465E5F4F60E9C8010E940A
:103DC000DC0CF82A8A8D9B8DAC8DBD8DAC01BD01BC
:103DD0002AE176956795579547952A95D1F72E8DC7
:103DE000240F2A87AC01BD0133E17695679557957D
:103DF00047953A95D1F74F774B87AC01BD01ECE081
:103E00007695679557954795EA95D1F74F774C8703
:103E1000AC01BD01F5E07695679557954795FA9504
:103E2000D1F74F774D87982F990F990F9C779E8FD9
:103E30004AE764E9C8010E947008F82AC8010E9494
:103E4000130FF82AAE01465E5F4F60E9C8010E9479
:103E5000DC0CF82A8A8D9B8DAC8DBD8DAC01BD012B
:103E60002EE176956795579547952A95D1F72E8D32
:103E7000240F2E87AC01BD0137E1769567955795E4
:103E800047953A95D1F74F774F872A2F2F77288B71
:103E9000AC01BD01E9E07695679557954795EA95A0
:103EA000D1F74F77498BF2E0B695A795979587950F
:103EB000FA95D1F78F778A8B1B8AE12C912C48CE0B
:103EC0002F923F924F925F926F927F928F929F922A
:103ED000AF92BF92CF92DF92EF92FF920F931F9318
:103EE000CF93DF93CDB7DEB7C954D1090FB6F8949D
:103EF000DEBF0FBECDBF3C01B62E1C0188EB281AD9
:103F00008EEF380AD101ED91FC911197EF5BFE4FD6
:103F100089E28083ED91FC911197EE5BFE4F81E089
:103F20008083ED91FC911197ED5BFE4F80E991E06C
:103F300091838083ED91FC91EB5BFE4F89EF94E0E0
:103F4000918380830E9499062301BFEF4B1A5B0A7D
:103F500021E04EEF69E8C2010E94F90D811105C010
:103F600040E068E8C2010E947008AE01455C5F4F06
:103F700060ECC2010E944B0EF301E052FF4F108231
:103F800088EE93E0E65AFF4F9183808380E991E0C9
:103F900032969183808385E89BE6A1E0B0E032967B
:103FA00080839183A283B38384EA90E7A9E0B0E0A1
:103FB000E557F10980839183A283B383F301168EC1
:103FC000178E10A211A2BE016F5F7F4FC2010E9427
:103FD000E315082F81110BC019821A828AE3FE01B2
:103FE0003196D301519601900D928A95E1F784E6BE
:103FF00090E0F301EE5DFE4F9183808384E893E0CF
:1040000032969183808384EF91E03296918380830E
:1040100080E09AE033969183808381E0709680837C
:1040200041E060E8C2010E947008182F41E06FEF84
:10403000C2010E947008182B102B40E060E0C20102
:104040000E947008182BAE01415C5F4F61E9C2010C
:104050000E944B0E182B8FADF301E85DFE4F80835D
:1040600041E060E0C2010E947008182B40E06FEF51
:10407000C2010E947008182B40E060E8C2010E9453
:104080007008912F982B730110E000E0AA24A394EC
:104090006301F4E0CF0ED11C9111ABC103301105C7
:1040A00009F491C07CF401301105D1F00230110502
:1040B00009F485C0D3019696AC92D7019696AC923E
:1040C00080E020C00430110509F480C020E04FEEEC
:1040D0000530110579F760E6C2010E94F90D10C0A4
:1040E000F60142A953A964A975A9E9E076956795F7
:1040F00057954795EA95D1F764E4C2010E944508B7
:104100008823D9F20F5F1F4FBFEFEB1AFB0A982FDE
:104110000630110509F0C0CF811169C0F30110A666
:1041200011A622E04EEF60E6C2010E94F90D811156
:104130005EC0D3019A961C9220E14FEE60E6C20168
:104140000E94F90D811153C0F30113A686A18111BC
:1041500040C080E090E0A2E1B0E082AB93ABA4ABC2
:10416000B5ABD30197968C91811138C080E090E473
:10417000A0E0B0E0F30186AB97ABA0AFB1AF80E0B9
:1041800090E0A3E2B0E082AF93AFA4AFB5AFFE96EC
:1041900010821182128213828FEFE052FF4F8083D0
:1041A0004FEF61E0C2010E94700891E0F301E05E10
:1041B000FE4F908381111BC07B97108218C0D301E2
:1041C0009896AC927ACFF301A1A677CF20E04EEF7C
:1041D00082CF80E090E0A2E1B0E0BFCF40E250E0CB
:1041E00064E4C2010E944508882309F4BFCFD301CB
:1041F0008C934B2D6AE8F101808191810E947008B7
:10420000D3018C936AE070E080E090E00E94670345
:10421000F3018081811191C1D101ED91FC91EF5B9E
:10422000FE4FB08262E0C2010E94FB1C811135C0CA
:104230008301065B1E4FC30186579E4FF301EF516A
:10424000FF4F20812111D7C06FE273E00E946032DE
:1042500060E373E0C8010E94603269E673E0C80160
:1042600080960E946032A30146555E4F60ECC20109
:104270000E944B0E811111C0AE014F5F5F4F62EC87
:10428000C2010E944B0E91E0F301E555FE4F908371
:104290003196998192959F709083D3018C9381116F
:1042A0000DC0F301E555FE4F8081813021F4319638
:1042B0008081813019F08BEFF3018083D3018C91E1
:1042C0008111CCC0F1014080518025961FAE1EAEF9
:1042D000259728961FAE289727961FAE27972396D7
:1042E0001CAE1DAE1EAE1FAE239761E0C2010E9440
:1042F000FB1CF201ED5FFE4F808129968FAF29975D
:10430000823008F09DC0319790812A969FAF2A97FE
:10431000A92EB12CD12CC12C813009F08AC0A1E288
:10432000AA16B104C104D10408F08AC041E06FEFBD
:10433000C2010E94700881111AC040E06FE4C201FE
:104340000E947008811113C04CE26EE4C2010E9409
:10435000700881110CC040E06FEFC2010E9470082C
:10436000811105C044EB66EBC2010E947008920106
:104370002F5E3E4FF90110823196108231961082E5
:104380003196108231961082319610822996FFADB7
:104390002997E12CF12C8701FF2309F4E9C0D8010A
:1043A000C7018C549F4FAF4FBF4F46E0B695A795BE
:1043B000979587954A95D1F7880F991F880F991F70
:1043C00087509D4FFC0180819181A281B381892B0F
:1043D0008A2B8B2B09F0CCC0FCE2EF16F10401050F
:1043E000110509F4C5C08FEFE81AF80A0F4F1F4FE7
:1043F000D6CF892FFCCEF301EE51FF4FF080B301F1
:104400006D517F4F0E946032FF2009F421CFB2E24C
:10441000BF1540F0E0E26CE373E0FE121BCF68E4EE
:1044200073E018CFF6E264E573E0FF1508F412CFED
:10443000F6CFBDE0AB16B104C104D10408F476CFC9
:10444000AE014A5B5F4FBE01615C7F4FC2010E94BB
:104450008B1A882309F4A9C0F3018083D3018C91BE
:1044600081110DC0AE014D5B5F4FBE016F5F7F4F8D
:10447000F101808191810E948B1AD3018C93F30109
:10448000808181110EC021E0AE01455C5F4FBE010D
:10449000615C7F4FD1018D919C910E94161AF301AE
:1044A0008083D3018C91811106C0D101ED91FC91E3
:1044B000108AF3011082D3018C9181113AC0D1018D
:1044C000ED91FC911197FF24F394F5A2F301108272
:1044D0000D911C91D801D5964D915D916D917C9176
:1044E000D89789E076956795579547958A95D1F73E
:1044F00064E4C8010E944508811102C0F801F6A2D7
:10450000D3018C93811115C0D101ED91FC911197CC
:1045100081E080A7F3011082ED91FC91FD9684ED7E
:1045200098E0A0E0B0E080839183A283B383D301BD
:104530001C9281E0F3019081911180E0C75BDF4F15
:104540000FB6F894DEBF0FBECDBFDF91CF911F91A4
:104550000F91FF90EF90DF90CF90BF90AF909F9022
:104560008F907F906F905F904F903F902F90089525
:10457000DE0111964D01A201495E5E4F29966FAD95
:104580002997C2010E94F70B811163CF81E0F201EC
:10459000EC5FFE4F808332972A96BFAD2A97B08397
:1045A000319629968FAD29978083F201E85CFE4F02
:1045B000808160E072E0811103C032976081718177
:1045C000C2010E949808811147CF44E06AE0C2010D
:1045D0000E947008811140CF20E04FEE64E8C201D4
:1045E0000E94F90D811138CF84E0F201E253FF4FB0
:1045F0008083C2010E94C10E81112ECF41E06FEF76
:10460000C2010E947008182FAE014D5B5F4F64E835
:10461000C2010E94250D182B40E06FEFC2010E94DD
:104620007008812B09F018CFF201E853FF4F25964F
:104630008EAD9FAD259724E0880F991F2A95E1F74D
:10464000B0E0A0E080839183A283B383BE016F5F5B
:104650007F4FC2010E94E3158111FECEAE01495B7E
:104660005F4F69E0C2010E944B0E8111F5CE289682
:104670008FAD2897817028968FAF2897F201E25E60
:10468000FE4F80838AE3FE013196D201509601905D
:104690000D928A95E1F7AE01495B5F4F61E0C2017F
:1046A0000E944B0E8111D8CE8201035E1E4F2896C8
:1046B0008FAD2897D8018C931BAEAE01455C5F4F40
:1046C00061E0C2010E944B0E8111C6CE8BADF82E67
:1046D000E894F4F884FF13C04F2D61E0C2010E94FA
:1046E00070088111B9CEF801F082D20152964D9135
:1046F0005D916D917C915597C2010E9499181BAEF6
:10470000AE01455C5F4F61E0C2010E944B0E81111A
:10471000A3CE8BADF82EE894F2F882FF13C04F2D94
:1047200061E0C2010E947008811196CEF801F0820A
:10473000D20152964D915D916D917C915597C20138
:104740000E94991883E0F201E15EFE4F8083AE0182
:104750004B5B5F4F60E0C2010E94F40E81117CCE82
:1047600026968FAD2697F201E852FF4F8083AE0167
:104770004B5B5F4F61E0C2010E94F40E81116CCE71
:1047800026968FAD2697F201ED52FF4F8083AE0142
:10479000455C5F4F63E0C2010E948C1581115CCEC5
:1047A0008BAD9CADADADBEADF201EC52FF4F808341
:1047B0009183A283B383AE01455C5F4F64E0C20185
:1047C0000E948C15811148CEF201E153FF4F4BAD91
:1047D0005CAD6DAD7EAD40835183628373833CCE0F
:1047E0000F931F9300919A0510919B0520919C05B2
:1047F00030919D0540E052E16AE770E080E00417E7
:1048000015072607370740F476956795579547951E
:104810008F5F8630A1F787E0982F906A96958095F4
:1048200081709CBD8DBD80E01F910F910C942B0376
:10483000CF93DF93D82FC62F0E94F0238D2F806255
:104840000E94CD0480939E058C2F0E94CD04DF91A1
:10485000CF910C943F036091A50561FD0AC0626091
:104860006093A50580E00E9418248BE19EE40197E7
:10487000F1F70895CF93C82F0E94F0238C2F0E9448
:10488000CD0480939E058FEF0E94CD04C82F0E9417
:104890003F038C2FCF910895CF93DF93EC0186E0F7
:1048A0000E943A24877D2297E1F045E550E060E0E0
:1048B00070E04093AC055093AD056093AE057093E6
:1048C000AF05C0E0C82B6C2F86E00E94182486E05C
:1048D0000E943A2491E0C81390E0892FDF91CF9194
:1048E00008954BE950E060E070E04093AC055093D0
:1048F000AD056093AE057093AF05C0E2E3CFFF92C4
:104900000F931F93CF93DF93C82FF62E072F142FEB
:104910000E94F0238C2F80620E94CD0480939E051C
:10492000CF2DD02F115020F089910E94CD04FACFC5
:10493000DF91CF911F910F91FF900C943F03CF9384
:10494000C82F0E94F0238C2F0E94CD0480939E05D7
:10495000CF910C943F030E94F02380E50E94CD0488
:1049600080939E0583E70E94CD040C943F0385ED60
:104970008093BC008091330490913404A09135045D
:10498000B09136040796A11DB11D23E0B695A795F9
:10499000979587952A95D1F72091BC0024FD03C0F7
:1049A0001092310408954091330450913404609181
:1049B000350470913604452B462B472B69F300973D
:1049C000A105B10541F025E32A95F1F70000019713
:1049D000A109B109E1CF809132040C94B0061F9275
:1049E0000F920FB60F9211242F933F938F939F93A3
:1049F000AF93BF938091DD039091DE03A091DF031D
:104A0000B091E0033091DC0323E0230F2D3758F5FC
:104A10000196A11DB11D2093DC038093DD039093CB
:104A2000DE03A093DF03B093E0038091E103909154
:104A3000E203A091E303B091E4030196A11DB11D2F
:104A40008093E1039093E203A093E303B093E40324
:104A5000BF91AF919F918F913F912F910F900FBE7A
:104A60000F901F90189526E8230F0296A11DB11DE7
:104A7000D2CF1F920F920FB60F9211240BB60F9246
:104A80002F933F934F935F936F937F938F939F9356
:104A9000AF93BF93EF93FF938BE594E00E940D04D7
:104AA000FF91EF91BF91AF919F918F917F916F9106
:104AB0005F914F913F912F910F900BBE0F900FBEC2
:104AC0000F901F9018951F920F920FB60F921124FE
:104AD0000BB60F922F938F939F93EF93FF93E091D9
:104AE0006B04F0916C048081E0917104F091720488
:104AF00082FD1DC09081809174048F5F8F7320911F
:104B00007504821741F0E0917404F0E0E55AFB4F20
:104B1000958F80937404FF91EF919F918F912F91C6
:104B20000F900BBE0F900FBE0F901F9018958081B5
:104B3000F2CF1F920F920FB60F9211240BB60F9265
:104B40002F933F934F935F936F937F938F939F9395
:104B5000AF93BF93EF93FF9348E251E064E271E0BB
:104B600090E080E00E949A05FF91EF91BF91AF9194
:104B70009F918F917F916F915F914F913F912F9175
:104B80000F900BBE0F900FBE0F901F9018951F92A5
:104B90000F920FB60F9211240BB60F922F933F93E3
:104BA0004F935F936F937F938F939F93AF93BF9335
:104BB000EF93FF9348EA50E064EA70E083E090E00E
:104BC0000E949A05FF91EF91BF91AF919F918F91B4
:104BD0007F916F915F914F913F912F910F900BBEFD
:104BE0000F900FBE0F901F9018951F920F920FB647
:104BF0000F9211240BB60F922F933F934F935F9315
:104C00006F937F938F939F93AF93BF93EF93FF9394
:104C100048E950E064E970E082E090E00E949A0583
:104C2000FF91EF91BF91AF919F918F917F916F9184
:104C30005F914F913F912F910F900BBE0F900FBE40
:104C40000F901F9018951F920F920FB60F9211247C
:104C50000BB60F922F933F934F935F936F937F9376
:104C60008F939F93AF93BF93EF93FF9348E850E0E8
:104C700064E870E081E090E00E949A05FF91EF9176
:104C8000BF91AF919F918F917F916F915F914F9164
:104C90003F912F910F900BBE0F900FBE0F901F9062
:104CA00018951F920F920FB60F9211240BB60F9208
:104CB0002F933F934F935F936F937F938F939F9324
:104CC000AF93BF93EF93FF938091B900887F8036B5
:104CD00009F44DC008F040C0883209F4A9C028F595
:104CE000803109F49DC0C8F4882309F4FBC08830E2
:104CF00009F496C0FF91EF91BF91AF919F918F9171
:104D00007F916F915F914F913F912F910F900BBECB
:104D10000F900FBE0F901F901895883109F488C02E
:104D2000803241F780932F0414C0803409F49DC071
:104D300040F48033B9F38833E9F680932F0485EC8F
:104D4000B0C0803509F485C0883509F496C0883430
:104D500089F60E94B724CECF883909F48CC038F583
:104D6000883729F050F4883611F0803719F683E03F
:104D7000809331041092C10357C0883809F47BC076
:104D8000803919F0803809F0B5CF8091C1038032A5
:104D900008F071C0E091C10381E08E0F8093C103E0
:104DA0008091BB00F0E0EF55FC4F80833DC0803B1D
:104DB00039F0E0F4803A09F479C0883A09F09ACFE2
:104DC00084E0809331041092A00310929F03E0913D
:104DD000E703F091E803199580919F0381110FC0BB
:104DE00081E080939F0310927F0309C0803C09F407
:104DF000A6CF883C09F4A3CF883B09F07BCFE09194
:104E0000A00381E08E0F8093A003F0E0E158FC4FF7
:104E100080818093BB009091A00380919F0329C063
:104E200080910C048093BB0085EC8093BC0062CF22
:104E300090912E0480912D04981758F5E0912E043E
:104E400081E08E0F80932E04F0E0E35FFB4F8081C2
:104E5000E9CFE0912E0481E08E0F80932E048091A3
:104E6000BB00F0E0E35FFB4F808390912E048091C4
:104E70002D049817C8F285E8D8CFE0912E0481E080
:104E80008E0F80932E048091BB00F0E0E35FFB4F18
:104E900080838091300481115CCF81E080930B048A
:104EA00084EA8093BC001092310424CF85EC809377
:104EB000BC00109231048091C103803230F4E09143
:104EC000C103F0E0EF55FC4F10826091C10370E028
:104ED000E091E503F091E60381EA93E019951092E1
:104EE000C10308CF10922F0434CF10925E041092A9
:104EF0005D0488EE93E0A0E0B0E080935F049093BF
:104F00006004A0936104B09362042DE033E0309319
:104F10005C0420935B0425EC30E03093680420931C
:104F2000670424EC30E030936A042093690420EC99
:104F300030E030936C0420936B0421EC30E030932C
:104F40006E0420936D0422EC30E0309370042093C3
:104F50006F0426EC30E030937204209371041092B9
:104F600074041092750410927604109277041092D3
:104F7000FC041092FB048093FD049093FE04A09324
:104F8000FF04B09300058FE193E09093FA048093BF
:104F9000F9048EEA91E0EDE2FEE0DF019C011D9252
:104FA00021503040E1F72EE23EE03093760F20931F
:104FB000750FEFE7FCE0DF019C011D9221503040AE
:104FC000E1F720E83CE03093C80D2093C70DE1EDF8
:104FD000FAE0DF019C011D9221503040E1F722ED03
:104FE0003AE030931A0C2093190CE3E2F9E0DF0168
:104FF0009C011D9221503040E1F724E239E03093CA
:105000006C0A20936B0AE5E7F7E0DF019C011D9233
:1050100021503040E1F726E737E03093BE08209377
:10502000BD08E7ECF5E0DF019C011D922150304006
:10503000E1F788EC95E09093100780930F0780913B
:105040009505803308F078C091E0980F909395050E
:105050008093C40590E0FC01EE0FFF1FE80FF91FDD
:10506000EB5FFA4F88EB9BE09283818380919505FB
:10507000803308F065C091E0980F90939505809378
:10508000C10590E0FC01EE0FFF1FE80FF91FEB5F79
:10509000FA4F88EB9BE09283818380E48093B8058C
:1050A00089EF94E09093BA058093B9051092BC05FE
:1050B0001092BB058CE390E09093B7058093B60502
:1050C0008AE590E09093B5058093B40580E38093E2
:1050D000980581E38093990580E896E9A8E9B0E016
:1050E00080939A0590939B05A0939C05B0939D0592
:1050F00080E280939F051092A6051092A70585E097
:105100008093A90581E08093AA051092AB0585E004
:1051100090E0A0E0B0E08093B0059093B105A0933B
:10512000B205B093B30588EF94E090939705809310
:1051300096051092A00508958FEF8093C40596CF31
:105140008FEF8093C105A9CFCF93DF9300D000D01C
:105150001F921F92CDB7DEB7789484B5826084BD6C
:1051600084B5816084BD85B5826085BD85B581606B
:1051700085BD80916E00816080936E0010928100E9
:1051800080918100826080938100809181008160A4
:105190008093810080918000816080938000809165
:1051A000B10084608093B1008091B00081608093F1
:1051B000B000809191008260809391008091910075
:1051C0008160809391008091900081608093900035
:1051D0008091A10082608093A1008091A1008160F4
:1051E0008093A1008091A00081608093A0008091B5
:1051F000210182608093210180912101816080934F
:1052000021018091200181608093200180917A00AA
:10521000846080937A0080917A00826080937A0023
:1052200080917A00816080937A0080917A00806812
:1052300080937A001092C100E0916B04F0916C04AD
:1052400082E08083E0916704F09168041082E0912D
:105250006904F0916A0480E1808310927304E09104
:105260006F04F091700486E08083E0916D04F0910A
:105270006E04808180618083E0916D04F0916E0402
:10528000808188608083E0916D04F0916E0480815C
:1052900080688083E0916D04F0916E0480818F7D41
:1052A000808385E20E94800288E20E94800286E27A
:1052B0000E94800287E20E94800284E20E948002B3
:1052C00088E192E00E94040B60E085E20E949F0268
:1052D00060E088E20E949F0260E086E20E949F02F6
:1052E00060E087E20E949F0260E084E20E949F02E9
:1052F00085EF91E00E94040B89EE91E00E94040B7F
:1053000060E085E20E949F0260E088E20E949F02C6
:1053100060E086E20E949F0260E089E20E949F02B4
:1053200060E087E20E949F0260E084E20E949F02A8
:105330006AE070E080E090E00E94670361E085E24F
:105340000E949F0261E088E20E949F0261E086E283
:105350000E949F0261E089E20E949F0261E087E271
:105360000E949F0261E084E20E949F026AE070E076
:1053700080E090E00E94670361E085E20E949F0266
:1053800060E088E20E949F0260E086E20E949F0245
:1053900060E089E20E949F0260E087E20E949F0233
:1053A00060E084E20E949F0262E58DE29EE00E943E
:1053B000601F811104C080ED91E00E94040B6AE03F
:1053C00070E080E090E00E94670361E088E20E9464
:1053D0009F026AE070E080E090E00E94670361E471
:1053E0008FE79CE00E94601F811104C087EB91E071
:1053F0000E94040B61E086E20E949F026AE070E076
:1054000080E090E00E94670362E481ED9AE00E94F0
:10541000601F811104C08EE991E00E94040B61E0DD
:1054200089E20E949F026AE070E080E090E00E94C2
:10543000670361E087E20E949F026AE070E080E01B
:1054400090E00E94670367E287EC95E00E94601F8E
:10545000811104C085E891E00E94040B61E084E2C0
:105460000E949F026AE070E080E090E00E94670383
:1054700064E285E797E00E94601F811104C08CE61A
:1054800091E00E94040B8DE29EE00E943C108FE7A9
:105490009CE00E943C1081ED9AE00E943C1087EC59
:1054A00095E00E943C1085E797E00E943C108091B7
:1054B000C405803308F042C083E00E9480028091DE
:1054C000C405282F30E0F901EE0FFF1FE20FF31F94
:1054D000EB5FFA4F9081907C936090831092C505AA
:1054E0001092C6052CE0622F0E94B92E90E0829F98
:1054F000B001112430E020E0AB01420F531FFA014C
:10550000EE0FFF1FE40FF51FEB5FFA4F408146FDE2
:1055100007C02F5F3F4F2C30310571F70E945805AF
:10552000E091C4058E2F90E0FC01EE0FFF1FE80F05
:10553000F91FEB5FFA4F8081806480838091C10501
:10554000803308F042C082E00E9480028091C10551
:10555000282F30E0F901EE0FFF1FE20FF31FEB5F82
:10556000FA4F9081907C926090831092C2051092C5
:10557000C3052CE0622F0E94B92E90E0829FB001FB
:10558000112430E020E0AB01420F531FFA01EE0F6F
:10559000FF1FE40FF51FEB5FFA4F408146FD07C088
:1055A0002F5F3F4F2C30310571F70E945805E09175
:1055B000C1058E2F90E0FC01EE0FFF1FE80FF91FD1
:1055C000EB5FFA4F80818064808367ED75E081EC4A
:1055D00095E00E94D4048AE590E00E940B0568E8FB
:1055E00073E180E090E00E9467038091BB05909199
:1055F000BC05009711F00E94D73186E090E00E9430
:105600003B318C018091B9059091BA052091B80584
:10561000F801208392838183138280E290E0958356
:1056200084831093BC050093BB050E94990681E01A
:10563000F8018383C8010E94DF078823E1F060E856
:1056400080E00E94860B6AE070E080E090E00E94BB
:10565000670380E498E7ADE7B1E08093BD059093E0
:10566000BE05A093BF05B093C00560E070E08AE777
:1056700094E40E94A21760E070E088E492E40E9443
:10568000A21764EB70E083E00E94660B6CE370E0AD
:1056900080E00E94660B6AE570E081E00E94660B84
:1056A00070E060E082E00E94660B0E945A0B1FB718
:1056B000F8948091C603811124C0EBEEF2E084914E
:1056C000E1E3F3E09491E82FF0E0EE0FFF1FE456E2
:1056D000FD4FA591B491EC91E92321F461E085E3BC
:1056E0000E949F0285E30E9480028CB580618CBD80
:1056F0008CB580648CBD84E30E94800283E30E94A9
:1057000080028091C6038F5F8093C6031FBF809184
:1057100098058F3F09F47AC0909199059F3F09F44D
:1057200075C0891731F00E948002809199050E940E
:1057300080028091980590919905891719F060E091
:105740000E949F0281E00E942B0365E070E080E0F0
:1057500090E00E9467036FE584E00E94182490E0C7
:1057600080E00E944C248DE10E943A24182F0E9470
:10577000AB248DE10E943A2491E0181390E09093BD
:10578000A605882341F0181302C00E94AB2460E0F4
:105790008DE10E9418241092A80560E08CE10E941F
:1057A00018241092AA056FE381E00E94182463E098
:1057B00082E00E94182480E280939F0511E16091AD
:1057C0009F05812F0E9418241F5F1731C1F763E0E6
:1057D00083E00E94182485E08093A9056CE40E9470
:1057E000182460E787E00E94182482EE0E949F241C
:1057F00081EE0E949F246CE080E00E94182480E0EB
:105800000E943A248093A5050E942B2461E385E041
:105810000E94182482E090E00E944C2486E00E94BE
:105820003A24887F682F656086E00E94182489E802
:10583000898387E68A8385E48B8383E28C8381E096
:105840008D831E821F821886E1E3F2E084914091ED
:10585000A905BE016F5F7F4F0E947F2482E00E94F6
:105860003A24E7E3F2E0E49161E070E001C0660F02
:10587000EA95EAF7682B82E00E9418240E942B2404
:105880006091A50561606093A50580E00E941824E1
:1058900060E787E00E94182480919805909199050F
:1058A000891719F061E00E949F028091A705882363
:1058B00009F448C04091A90560EA75E08AE00E94B9
:1058C0007F24CC24CA9433E0D32EE12CF12C4BE07E
:1058D000442E42E0542E612C712C88248394912C08
:1058E00087E10E943A2480FD42C08FEF0E949F24EE
:1058F00080919E0590E09595879587708093DB0356
:105900008091AA0581115DC080919F05A82E8D30E0
:1059100010F09CE0A92EB82EBA180E94F02381E660
:105920000E94CD0480939E050BEC13E0AA942FEF08
:10593000A21609F44AC08FEF0E94CD04F8018193AA
:105940008F01F4CF82E00E943A24E6E3F2E0E49192
:1059500021E030E001C0220FEA95EAF72095622F9E
:10596000682382E00E9418241092A705AACF2FB7BF
:10597000F8948091DD039091DE03A091DF03B09154
:10598000E0032FBF4091D7035091D8036091D90312
:105990007091DA03841B950BA60BB70B893E9340DD
:1059A000A105B10508F444C047E050E066E773E0A4
:1059B0008BE594E00E9499030E94FC0A0E94F00A81
:1059C00037C0B12C8CE0A82EA8CFBA94FFEFBF1639
:1059D00021F08FEF0E94CD04F8CF0E943F0360E4D6
:1059E00087E00E9418240091CF031091D003075F35
:1059F00011408091D5039091D6038130910509F42F
:105A000074C0CCF4892B09F45DC02FB7F894809151
:105A1000DD039091DE03A091DF03B091E0032FBF7F
:105A20008093D7039093D803A093D903B093DA035C
:105A30000E949C0455CF8230910509F49CC00397C5
:105A400021F70E945A0B0D32114024F09092CA03A4
:105A50008092C9038091C9039091CA03892BA9F24E
:105A600081ED9AE00E94E3135C018DE29EE00E94CA
:105A7000E3138C018FE79CE00E94E31387EC95E031
:105A80000E94E31385E797E00E94E3138091C70328
:105A90009091C803892B09F0DBC08AE590E00E9451
:105AA0000B0566E376E081EC95E00E94D40480EB80
:105AB000A81684E0B80608F0A8CF9092C803809298
:105AC000C703A3CF0E945A0B44E050E061E773E0A4
:105AD0008BE594E00E9499030E94FC0A0E94F00A60
