:100000000C94E6010C9417020C9417020C9417023E
:100010000C9417020C9417020C9417020C941702FC
:100020000C9417020C9417020C9417020C941702EC
:100030000C9417020C9417020C9417020C941702DC
:100040000C9417020C9417020C9417020C941702CC
:100050000C9417020C9417020C9417020C940421B0
:100060000C9417020C9478210C944E210C941702D6
:100070000C9417020C9417020C9417020C9417029C
:100080000C9417020C9417020C9417020C9417028C
:100090000C9417020C9417020C9417020C94AE21C6
:1000A0000C9417020C9417020C9417020C9417026C
:1000B0000C9417020C9417020C9417020C9417025C
:1000C0000C9417020C9417020C9417020C9417024C
:1000D0000C9417020C9417020C9417020C9417023C
:1000E0000C9417020C94F3030C9465030C946903AD
:1000F0000C942E030C947B050C942A030C9451034E
:100100000C9424040C9413030C945F030C94C40407
:100110000C94D2220C945B030C947C050C94320357
:100120000C9473080C9443030C949E050C94C60322
:100130000C94C2020C9457030C948B050C94D205BA
:100140000C9439030C94C3020C9418030C94A50569
:100150000C9416040C944D030C943F030C945C0413
:100160000C9402040C9449030C9436034661696CA8
:10017000656420746F20626F6F74203620564C3592
:10018000334C3058004661696C656420746F20629E
:100190006F6F74203520564C35334C305800466113
:1001A000696C656420746F20626F6F742033205611
:1001B0004C35334C3058004661696C656420746F6F
:1001C00020626F6F74203220564C35334C3058000B
:1001D0004661696C656420746F20626F6F742031B2
:1001E00020564C35334C3058005374617274696E2C
:1001F000672E2E2E00416C6C20696E20726573652F
:1002000074206D6F64652E2E2E2870696E732061C8
:100210007265206C6F77290053687574646F776E10
:100220002070696E7320696E697465642E2E2E00CD
:100230004F7574206F662072616E67650073696424
:1002400065206C6566743A200020004F7574206F3D
:10025000662072616E676500736964652072696704
:1002600068743A200020006261636B776172643ABF
:10027000200020004F7574206F662072616E6765E4
:1002800000666F72776172643A200020004F7574C7
:10029000206F662072616E6765006C6566743A2037
:1002A0000020004F7574206F662072616E676500D4
:1002B00072696768743A2000203D3E200054696DE1
:1002C000653A200000000A0B02090C0D0E08070316
:1002D0000401000000000000000000000000000019
:1002E000000000000000000000000000000000000E
:1002F00012111000000000000000000000000000CB
:1003000000000000000000000000000022002500A6
:1003100028002B002E0031003400020100000501EE
:1003200008010B0100002100240027002A002D00F5
:100330003000330001010000040107010A01050536
:100340000505070508080808020202020A0A08084B
:100350000404040401010101010101010303030379
:1003600003030303040707070C0C0C0C0C0C0C0C08
:100370000202020206060606060606060B0B0B0B19
:100380000B0B0B0B0102102020080810204010203E
:100390004080020102010804020101020408102049
:1003A0004080804020100804020180040201804047
:1003B00020100804020108040201010204081020B0
:1003C00040800102040810204080D22211241FBE68
:1003D000CFEFD1E2DEBFCDBF00E00CBF13E0A0E065
:1003E000B2E0E4E9FCE400E00BBF02C007900D922C
:1003F000AC36B107D9F72FE0ACE6B3E001C01D92EF
:10040000A936B207E1F711E0C6EED1E000E006C080
:1004100021970109802FFE010E941F26C53ED107AA
:1004200080E00807A9F70E9461230C9448260C94E9
:100430000000CF93DF9300D01F92CDB7DEB71982B3
:100440001A821B821C8289819A81AB81BC818A3F7E
:100450009105A105B10568F4000089819A81AB81FD
:10046000BC810196A11DB11D89839A83AB83BC8396
:10047000EACF80E00F900F900F900F90DF91CF9117
:1004800008954F925F926F927F928F929F92AF9258
:10049000BF92CF92DF92EF92FF920F931F93CF9371
:1004A000F9010FEF1FEF980100831183228333833B
:1004B0004A015B01B3E0B694A79497948794BA95E8
:1004C000D1F76A017B0127E0C222DD24EE24FF245C
:1004D00095018401C0E0063011052105310508F0C1
:1004E00041C0C1113FC0DC01A00FB11F6C91412C74
:1004F000512C320180169106A206B30649F470E031
:100500000C2C02C0759567950A94E2F72601370115
:10051000462F50E060FF17C0B901A801A3E0440FC7
:10052000551F661F771FAA95D1F7440E551E661EEC
:10053000771E4082518262827382C1E00F5F1F4F3B
:100540002F4F3F4FC8CFBA01759567954FEF441AAB
:10055000540A640A740A48E04416510461047104A0
:10056000B9F6ECCFCF911F910F91FF90EF90DF90F4
:10057000CF90BF90AF909F908F907F906F905F9043
:100580004F9008950895089590E0FC01EC57FC4FBA
:100590002491825C9C4FFC018491882399F090E027
:1005A000880F991FFC01EC5DFC4FA591B491FC01F3
:1005B000E65FFC4F859194918FB7F894EC91E22B14
:1005C000EC938FBF0895282F30E0F901EC53FD4FD5
:1005D0009491F901EC57FC4F4491225C3C4FF90196
:1005E0002491222309F435C0992311F191509231BD
:1005F000F8F4E92FF0E08827EF5FFC4F8F4F0C9461
:100600001F263203360313032A032E03180339036C
:100610003F03430349034D03510357035B0318038F
:100620005F0365036903809180008F77809380006A
:10063000E22FF0E0EE0FFF1FE65FFC4FA591B491B3
:100640008FB7F894EC91611148C040954E234C93BC
:100650008FBF0895809180008F7DE8CF80918000CA
:10066000877FE4CF84B58F7784BDE2CF84B58F7D5B
:10067000FBCF8091B0008F778093B000D9CF80916D
:10068000B0008F7DF9CF809190008F77809390009C
:10069000CFCF809190008F7DF9CF80919000877FA0
:1006A000F5CF8091A0008F778093A000C1CF80917B
:1006B000A0008F7DF9CF8091A000877FF5CF80913A
:1006C00020018F7780932001B3CF809120018F7D0F
:1006D000F9CF80912001877FF5CF4E2BB8CF3FB760
:1006E000F8948091A0049091A104A091A204B091EB
:1006F000A30426B5A89B05C02F3F19F00196A11DA4
:10070000B11D3FBFBA2FA92F982F8827BC01CD015B
:10071000620F711D811D911D42E0660F771F881FBA
:10072000991F4A95D1F708958F929F92AF92BF92E9
:10073000CF92DF92EF92FF924B015C010E946F0318
:100740006B017C010E946F036C197D098E099F0962
:10075000683E734081059105A8F321E0821A910853
:10076000A108B10888EEC80E83E0D81EE11CF11C78
:1007700081149104A104B10429F7FF90EF90DF9058
:10078000CF90BF90AF909F908F900895AF92BF92FF
:10079000CF92DF92EF92FF920F931F93CF93DF934D
:1007A0006C017B018B01040F151FEB015E01AE187C
:1007B000BF08C017D10759F06991D601ED91FC919E
:1007C0000190F081E02DC6011995892B79F7C501BB
:1007D000DF91CF911F910F91FF90EF90DF90CF901D
:1007E000BF90AF900895FC01538D448D252F30E0CC
:1007F000842F90E0821B930B541710F0CF9608952E
:1008000001970895FC01918D828D981761F0A28D5A
:10081000AE0FBF2FB11D5D968C91928D9F5F9F7320
:10082000928F90E008958FEF9FEF0895FC01918DD6
:10083000828D981731F0828DE80FF11D858D90E043
:1008400008958FEF9FEF0895FC01918D228D892FE0
:1008500090E0805C9F4F821B91098F7399270895C8
:100860008CEA94E00E94240421E0892B09F420E022
:10087000822F0895FC01A48DA80FB92FB11DA35A92
:10088000BF4F2C91848D90E001968F739927848FB0
:10089000A689B7892C93A089B1898C9183708064D3
:1008A0008C93938D848D981306C00288F389E02D74
:1008B00080818F7D80830895EF92FF920F931F9325
:1008C000CF93DF93EC0181E0888F9B8D8C8D981303
:1008D0001AC0E889F989808185FF15C09FB7F8940F
:1008E000EE89FF896083E889F9898081837080645B
:1008F00080839FBF81E090E0DF91CF911F910F91A6
:10090000FF90EF900895F62E0B8D10E00F5F1F4FB4
:100910000F731127E02E8C8D8E110CC00FB607FCC3
:10092000FACFE889F989808185FFF5CFCE010E9451
:100930003A04F1CFEB8DEC0FFD2FF11DE35AFF4F81
:10094000F0829FB7F8940B8FEA89FB8980818062DF
:10095000CFCF0F931F93CF93DF938C01D0E0C0E0F4
:10096000F801EC0FFD1F6491662341F08CEA94E0DE
:100970000E945C04892B11F02196F2CFCE01DF9109
:10098000CF911F910F910895CF93DF93EC01888D44
:100990008823B9F0AA89BB89E889F9898C9185FDFA
:1009A00003C0808186FD0DC00FB607FCF7CF8C9188
:1009B00085FFF2CF808185FFEDCFCE010E943A0402
:1009C000E9CFDF91CF91089580E090E0892B29F065
:1009D0000E94300481110E94000080E090E0892B89
:1009E00049F080E090E0892B29F00E9400008111FD
:1009F0000E94000080E090E0892B49F080E090E0C8
:100A0000892B29F00E94000081110E94000080E0E3
:100A100090E0892B49F080E090E0892B29F00E943A
:100A2000000081110C94000008952091AD03260F61
:100A30003327331F21323105ECF42091F803FC01F8
:100A400090E080E0243069F082E00895A091AD0349
:100A50002191AC0143575C4FA40FB52FB11D2C93CE
:100A60000196861798F38091AD03680F6093AD03EC
:100A700080E0089581E008951092F80381E080936A
:100A8000F7031092F20361E084E10E94E30261E067
:100A900085E10E94E302E9EBF0E080818E7F8083B4
:100AA00080818D7F808388E48093B80085E4809383
:100AB000BC000895CF93DF9391E090938C0388233B
:100AC000B9F0C091B800D091BA008091BC008A7B87
:100AD0008093BC0060E084E10E94E30260E085E175
:100AE0000E94E3020E943C05D093BA00C093B80074
:100AF000DF91CF9108950895E091AB048091AA040D
:100B0000E81730F4F0E0E250FC4F808190E0089567
:100B10008FEF9FEF08959091AB048091AA042FEF7F
:100B20003FEF981748F4E92FF0E0E250FC4F2081A6
:100B300030E09F5F9093AB04C90108958091AA04AF
:100B40009091AB04891B990B0895CF92DF92EF929D
:100B5000FF920F931F93CF93DF937C01CB018A0108
:100B60002091D103222389F0EB016B01C40ED51E25
:100B7000CC15DD0569F06991D701ED91FC910190EB
:100B8000F081E02DC7011995F3CF642F0E94150560
:100B9000C801DF91CF911F910F91FF90EF90DF90EF
:100BA000CF900895CF93DF931F92CDB7DEB76983BF
:100BB0002091D1032223F9F02091A804203258F08B
:100BC00021E030E0FC013383228390E080E00F904D
:100BD000DF91CF9108958091A904E82FF0E0E459C6
:100BE000FC4F998190838F5F8093A9048093A80420
:100BF00081E090E0ECCF61E0CE0101960E94150506
:100C0000F7CFCF92DF92EF92FF920F931F93CF9384
:100C1000DF93D091A80481E0D13208F09CC0C0914C
:100C2000D0030E946F036B017C018091F803811156
:100C30006CC082E08093F80381E08093F7038FEF2C
:100C40008093F6031092F503D093F403ACE6B3E07F
:100C5000E2EDF3E080E0D8138DC01092F3038091B1
:100C6000F303CC0FC82BC093F3038091F2038130C0
:100C700009F084C01092F2030E946F036B017C01A3
:100C80008091F3038093BB008091FA039091FB0362
:100C9000A091FC03B091FD03892B8A2B8B2BA1F033
:100CA0000E946F030091FA031091FB032091FC0353
:100CB0003091FD036C197D098E099F0906171707EE
:100CC0002807390708F442C08091BC0083FDD8CFC3
:100CD00085EC8093BC000E946F036B017C018091C6
:100CE000F803823009F44CC08091F6038F3F09F479
:100CF00069C08091F603803209F466C08091F603E2
:100D0000803309F463C084E026C08091FA03909197
:100D1000FB03A091FC03B091FD03892B8A2B8B2B45
:100D200009F483CF0E946F030091FA031091FB0333
:100D30002091FC033091FD036C197D098E099F09F8
:100D4000061717072807390708F06FCF8091F903B6
:100D50000E945A0585E01092A9041092A8041092EE
:100D6000D103DF91CF911F910F91FF90EF90DF9012
:100D7000CF9008959D9191938F5F6DCF85EEA9CF10
:100D80008091FA039091FB03A091FC03B091FD03C5
:100D9000892B8A2B8B2B09F4A2CF0E946F03009121
:100DA000FA031091FB032091FC033091FD036C19B1
:100DB0007D098E099F09061717072807390708F0CC
:100DC0008ECFC4CF80E0C7CF82E0C5CF83E0C3CF52
:100DD0008F929F92AF92BF92CF92DF92EF92FF924B
:100DE0000F931F93CF93DF936A014801E70191E0CE
:100DF0009093D1038093D0031092A9041092A80479
:100E0000E881F9810190F081E02DC70119958C0CE2
:100E10009D1CC814D90459F0E881F9810190F08132
:100E2000E02DD6016D916D01CE011995F2CFCE0165
:100E30000E94010690E080E0DF91CF911F910F9119
:100E4000FF90EF90DF90CF90BF90AF909F908F90EA
:100E50000895EF92FF920F931F93CF93DF931F920A
:100E60001F92CDB7DEB7FC01EF5BFE4F7081349669
:100E7000E080F1804A83598302E010E020E030E016
:100E8000AE014F5F5F4F872F0E94E806892B51F01C
:100E90008CEE0F900F90DF91CF911F910F91FF90EB
:100EA000EF90089580E0F5CFEF92FF920F931F939C
:100EB000CF93DF931F92CDB7DEB7FC01EF5BFE4F00
:100EC00070813496E080F180498301E010E020E0F9
:100ED00030E0AE014F5F5F4F872F0E94E806892BFD
:100EE00049F08CEE0F90DF91CF911F910F91FF9001
:100EF000EF90089580E0F6CF3F924F925F926F920D
:100F00007F928F929F92AF92BF92CF92DF92EF9299
:100F1000FF920F931F93CF93DF93CDB7DEB72C973C
:100F20000FB6F894DEBF0FBECDBF4B0130E020E01E
:100F3000312CAE014F5F5F4F3A01FC01EB5BFE4F7E
:100F4000FE83ED83AC014F5B5E4F58874F83B297B2
:100F5000FA87E987405251095C874B872C015BED8A
:100F6000451A5EEF550A5C01E8EDAE1AEEEFBE0AD7
:100F7000F401E20FF31F0081002309F47CC031105B
:100F80007AC069014FEFC41AD40AD401AC0DBD1D5B
:100F90006C910F3F09F047C0690152E0C50ED11CAA
:100FA000D401AC0DBD1D8C916130C1F040F06230B8
:100FB00011F1633061F1ECEF3E2E9601D9CF69015A
:100FC00094E0C90ED11C238190E0982F8827820FCE
:100FD000911DEB85FC8591838083EFCF690144E00F
:100FE000C40ED11C238190E0982F8827820F911D79
:100FF000E985FA85F0CF690144E0C40ED11C238154
:1010000090E0982F8827820F911DF201E4CF6901AB
:1010100044E0C40ED11C238190E0982F8827820FD2
:10102000911DF501D8CF053030F62E5F3F4FD4012A
:10103000A20FB31FF301C02ED12CCF01861997093F
:101040008C159D051CF48D918193F7CFC20ED31E94
:10105000ED81FE81E080F18010E030E020E0A3012E
:10106000EF81F88580810E94E806892B09F4A5CFDD
:101070007CEE372EA2CF832D2C960FB6F894DEBFD0
:101080000FBECDBFDF91CF911F910F91FF90EF90D9
:10109000DF90CF90BF90AF909F908F907F906F9098
:1010A0005F904F903F900895EF92FF920F931F93A0
:1010B000AB01FC01EB5BFE4FE080F1808F5B9E4F4C
:1010C00006E010E020E030E060EBFC0180810E944F
:1010D000E806892B31F08CEE1F910F91FF90EF9075
:1010E000089580E0F9CF90E080E008958F929F927C
:1010F000AF92BF920F931F93CF93DF93CDB7DEB71D
:10110000A1970FB6F894DEBF0FBECDBF19A2423033
:1011100008F44AE08E010F5D1F4F842E912CB12CF4
:10112000A12CA50194010E94FD25E62FB901CA0159
:10113000EA3044F5E05DD801EE938D01232B242B9A
:10114000252B79F790E080E0109769F0FD01019080
:101150000020E9F73197AF014A1B5B0BBD018CEA18
:1011600094E00E94C603A1960FB6F894DEBF0FBEAE
:10117000CDBFDF91CF911F910F91BF90AF909F9006
:101180008F900895E95CD7CF42E050E067E273E0CA
:101190008CEA94E00C94C603CF93DF930E94A904D9
:1011A000EC010E94C4088C0F9D1FDF91CF91089520
:1011B000BC0190E080E04AE00C9476084F925F9288
:1011C0006F927F928F929F92AF92BF92CF92DF9257
:1011D000EF92FF920F931F93CF93DF93D82F6A0163
:1011E000480181E08093D103D093D0031092A904E9
:1011F0001092A804D701ED91FC910190F081E02DAF
:10120000C7011995C7010E9401060E946F032B01B7
:101210003C018091F803811166C0C82D81E0809364
:10122000F8038093F7039FEF9093F6031092F50372
:10123000980D9093F4038093F3038091F303DD0FF3
:10124000D82BD093F3038091F203813009F086C04C
:101250001092F2030E946F032B013C018091F30373
:101260008093BB008091FA039091FB03A091FC0353
:10127000B091FD03892B8A2B8B2BA1F00E946F0369
:101280000091FA031091FB032091FC033091FD03C0
:10129000641975098609970906171707280739077A
:1012A00008F442C08091BC0083FDD8CF85EC8093C8
:1012B000BC000E946F032B013C018091F803813038
:1012C00009F44EC08091F5038C1710F4C091F5031A
:1012D000E2EDF3E0AEEFB3E080E08C1751F19191D5
:1012E0009D938F5FFACF8091FA039091FB03A091B9
:1012F000FC03B091FD03892B8A2B8B2B09F489CF3A
:101300000E946F030091FA031091FB032091FC03EC
:101310003091FD03641975098609970906171707A7
:101320002807390708F075CF8091F9030E945A0504
:10133000C0E01092AB04C093AA048C0C9D1CC8148E
:10134000D90481F1D701ED91FC910284F385E02D60
:10135000C7011995F60181936F01F1CF85EEA7CFF3
:101360008091FA039091FB03A091FC03B091FD03DF
:10137000892B8A2B8B2B09F4A0CF0E946F0300913D
:10138000FA031091FB032091FC033091FD036419D3
:10139000750986099709061717072807390708F0FE
:1013A0008CCFC2CF90E080E0DF91CF911F910F9161
:1013B000FF90EF90DF90CF90BF90AF909F908F9075
:1013C0007F906F905F904F9008952F923F924F9231
:1013D0005F926F927F928F929F92AF92BF92CF92C5
:1013E000DF92EF92FF920F931F93CF93DF93CDB7CE
:1013F000DEB72F970FB6F894DEBF0FBECDBF9C8728
:101400008B876D875F874E873901170128012F82EF
:10141000388649865A8610E000E0EE24E394F12CE9
:101420000A151B0509F461C09E01295F3F4FB201F7
:10143000A1018E859F850E9441024F815885698553
:101440007A854F3F2FEF52076207720709F49CC05D
:10145000DB01CA018C549F4FAF4FBF4FE6E0B695FA
:10146000A79597958795EA95D1F7880F991F880FCB
:10147000991F8D509D4F21E0FC0180819181A281B7
:10148000B381892B8A2B8B2B09F420E0FD85F21385
:101490007BC01A012B0133E056944794379427946C
:1014A0003A95D1F7DB01CA0187709927AA27BB2794
:1014B00026E0221631044104510468F4F301E20DE0
:1014C000F31D970102C0220F331F8A95E2F7C9016D
:1014D0009081892B80831A012B013FEF231A330A55
:1014E000430A530A0F5F1F4F9BCFB12CF401208298
:1014F000318242825382B1102DC0B3018B859C850D
:101500000E945408B82E811125C0EB85FC85EB5B49
:10151000FE4FE080F180EB85FC85EF5BFE4F06E03F
:1015200010E020E030E0AE014F5F5F4F60EB808164
:101530000E94DE08892B11F09CEEB92EF301DE012A
:101540001196C301069631912D91321320C0E817F0
:10155000F907C9F78B2D2F960FB6F894DEBF0FBE93
:10156000CDBFDF91CF911F910F91FF90EF90DF9052
:10157000CF90BF90AF909F908F907F906F905F9033
:101580004F903F902F9008952EECB22EAFCF8EEC5F
:10159000B82EE0CFCF92DF92EF92FF920F931F937E
:1015A000CF93DF9300D01F92CDB7DEB76A01FC0165
:1015B000EB5BFE4FE080F1808F5B9E4F04E010E01C
:1015C00020E030E0AE014F5F5F4FFC0180810E9460
:1015D000DE0849815A8154274527542770E060E08E
:1015E000762F652F542F44272B81422B762F652F82
:1015F000542F44272C81422BF60140835183628370
:101600007383892B71F480E00F900F900F900F90EF
:10161000DF91CF911F910F91FF90EF90DF90CF90CE
:1016200008958CEEF1CFCF92DF92EF92FF920F935D
:101630001F93CF93DF931F921F92CDB7DEB76A013E
:10164000FC01EB5BFE4FE080F1808F5B9E4F02E080
:1016500010E020E030E0AE014F5F5F4FFC01808181
:101660000E94DE0829813A81322723273227F6019A
:1016700031832083892B61F480E00F900F90DF91FC
:10168000CF911F910F91FF90EF90DF90CF90089531
:101690008CEEF3CF0F931F93CF93DF931F921F9284
:1016A000CDB7DEB7FC01E253FF4F2081215023303C
:1016B000B8F48C01AE014F5F5F4F6EE00E94130BD8
:1016C000811107C0AE014F5F5F4F6CE0C8010E94FF
:1016D000130B0F900F90DF91CF911F910F910895F1
:1016E00080E0F7CFEF92FF920F931F93CF93DF939A
:1016F0001F921F92CDB7DEB78C017A01633071055E
:1017000009F449C090F46130710509F16230710546
:10171000E1F1F80181A992A9A3A9B4A9F7018083F5
:101720009183A283B38380E049C06630710588F756
:10173000AE014F5F5F4F64E60E94130B81113EC004
:10174000298180E0922F990FB0E0A0E0E7CFAE01B1
:101750004F5F5F4F64E40E94130B81112FC099818A
:1017600020E0392F330FA90170E060E0232BD1F086
:10177000F7014083518362837383F80145AB56AB15
:1017800067AB70AF91E096A319C0FC0181AD92AD3B
:10179000A3ADB4ADC3CFFC01FD9680819181A28140
:1017A000B381BCCFF80145A956A967A970ADF7016F
:1017B0004083518362837383F80116A20F900F90C8
:1017C000DF91CF911F910F91FF90EF9008958F922D
:1017D0009F92AF92BF92CF92DF92EF92FF920F93C0
:1017E0001F93CF93DF931F921F92CDB7DEB7962E34
:1017F000D42E822EFC01EF5BFE4FC0805C012BEBF0
:10180000A21A2EEFB20AF501E080F18001E010E0AB
:1018100020E030E0AE014E5F5F4F8C2D0E94DE086D
:10182000892BA9F42A812D2128292A83F501E0801A
:10183000F180298301E010E020E030E0AE014F5F4D
:101840005F4F692D8C2D0E94E806892B81F08CEE6C
:101850000F900F90DF91CF911F910F91FF90EF901C
:10186000DF90CF90BF90AF909F908F90089580E0D1
:10187000EFCFEF92FF920F931F93FC01EB5BFE4FB4
:10188000E080F1808F5B9E4F01E010E020E030E0CF
:10189000FC0180810E94DE08892B31F08CEE1F91C3
:1018A0000F91FF90EF90089580E0F9CFEF92FF92B3
:1018B0000F931F93CF93DF931F92CDB7DEB77C01B9
:1018C00000E041E06BE0C7010E945407182F40E0A0
:1018D0006BE0C7010E945407182BAE014F5F5F4FAA
:1018E00063E1C7010E94390C812B0F5F99819770CA
:1018F00061F0033061F0882321F30F90DF91CF91E5
:101900001F910F91FF90EF9008950330B1F784EF8E
:10191000F4CF9F92AF92BF92CF92DF92EF92FF925D
:101920000F931F93CF93DF931F92CDB7DEB77C0148
:101930005B016A01922E198241E06FEF0E94540709
:10194000182F40E060E0C7010E945407182B40E0C8
:101950006FEFC7010E945407182B992031F0A501A1
:101960006BECC7010E94390C182B002341F0AE012B
:101970004F5F5F4F6EEEC7010E94390C182B41E09C
:101980006FEFC7010E945407182B41E060E0C701C8
:101990000E945407182B40E06FEFC7010E945407C4
:1019A00099819F7EF6019083812B0F90DF91CF91DB
:1019B0001F910F91FF90EF90DF90CF90BF90AF906D
:1019C0009F9008950F931F93CF93DF931F92CDB7EE
:1019D000DEB78A01AE014F5F5F4F613081F060E595
:1019E0000E94390C811105C099819F5F990FF80100
:1019F00090830F90DF91CF911F910F91089560E731
:101A0000EFCFCF92DF92EF92FF921F93CF93DF93AE
:101A10001F92CDB7DEB77C0140E063E80E94540717
:101A2000182F811117C0D12CC12CAE014F5F5F4F11
:101A300063E8C7010E94390C182F898181110AC0FF
:101A4000111108C08FEFC81AD80A88ECC816D10443
:101A500061F719EF41E063E8C7010E945407812B49
:101A60000F90DF91CF911F91FF90EF90DF90CF907B
:101A70000895CF92DF92EF92FF920F931F93CF932F
:101A8000DF931F92CDB7DEB77C0110E000E06C0160
:101A90008EECC80ED11CF6018081AE014F5F5F4F06
:101AA0008430A9F463E1C7010E94390C9981292F80
:101AB0002770987111F58823D9F00F90DF91CF919D
:101AC0001F910F91FF90EF90DF90CF90089564E108
:101AD000C7010E94390C8111F0CF998190FDEDCFA3
:101AE0000F5F1F4F083C110531F00E941902D3CF40
:101AF0002430B1F7E2CF89EFE0CF8AEFDECFCF938A
:101B0000DF93EC01462F416060E00E945407811191
:101B100011C0CE010E94390D81110CC0CE010E946E
:101B2000560C811107C040E060E0CE01DF91CF91FB
:101B30000C945407DF91CF910895CF92DF92EF92EA
:101B4000FF920F931F93CF93DF931F92CDB7DEB712
:101B50008C01FC01F08841E060E80E94540741E0FC
:101B60006FEFC8010E94540740E060E0C8010E9486
:101B70005407F801E95DFE4F408161E9C8010E9408
:101B8000540741E060E0C8010E94540740E06FEF55
:101B9000C8010E94540740E060E8C8010E94540751
:101BA000F1E0FF16F1F1FF1630F093E0F91609F4B9
:101BB0004AC088EF0CC041E060E0C8010E945407B1
:101BC00091E09983C12CD12C7601882389F00F9064
:101BD000DF91CF911F910F91FF90EF90DF90CF9009
:101BE0000895AE014F5F5F4F60E0C8010E94390C5D
:101BF000EFEFCE1ADE0AEE0AFE0A998190FF0AC0C4
:101C0000811108C0F8ECCF16D104E104F10449F7C2
:101C100089EFDDCF98ECC916D104E104F104B9F6DF
:101C2000F7CF811103C0C8010E944A0B42E060E077
:101C3000C8010E9454078111CACFF801E15EFE4F2E
:101C400094E09083C4CF811103C0C8010E944A0B65
:101C500044E0EDCF8F929F92AF92BF92CF92DF92EE
:101C6000EF92FF920F931F93CF93DF9300D000D09A
:101C7000CDB7DEB76C014C0188EB881A8EEF980A5D
:101C8000D401ED91FC91119783E0808BF6011082D5
:101C9000AD90BC90AE014B5F5F4F68EFC5010E94F5
:101CA000130B811134C02D813E8162E370E080E02E
:101CB0002115310521F0A2E3B0E00E942726F501AD
:101CC000EF5BFE4F90813496E080F1806C837B83E4
:101CD0008A83198204E010E020E030E0AE014F5F1B
:101CE0005F4F64E0892F0E94E806892B99F482E314
:101CF00090E0A0E0B0E0F501868B978BA08FB18FCC
:101D0000D6011C92F401808191810E949D0DD60123
:101D10008C9303C08CEEF601808381E0F601908104
:101D2000911180E026960FB6F894DEBF0FBECDBFAE
:101D3000DF91CF911F910F91FF90EF90DF90CF90A7
:101D4000BF90AF909F908F9008952F923F924F92A7
:101D50005F926F927F928F929F92AF92BF92CF923B
:101D6000DF92EF92FF920F931F93CF93DF93CDB744
:101D7000DEB7EC970FB6F894DEBF0FBECDBF6C0197
:101D80005B01DC0150961C920E949D0D81111CC0CC
:101D9000C6010E94390D811117C083E0F601E15E92
:101DA000FE4F8083B696E080F1800CE010E020E0EA
:101DB00030E0AE01465E5F4F64E1349780810E945F
:101DC000DE08892BD1F08CEEEC960FB6F894DEBFCE
:101DD0000FBECDBFDF91CF911F910F91FF90EF907C
:101DE000DF90CF90BF90AF909F908F907F906F903B
:101DF0005F904F903F902F900895F501168AD5017E
:101E000010821182128213826CA170E0762F6627F5
:101E10002DA1620F711D1482158216821782E9A10D
:101E2000F0E0FE2FEE27FF0F2F01712C612C1C9686
:101E30004D925D926D927C921F978BA190E0982FAE
:101E40008827990F8C0130E020E050960D931D9368
:101E50002D933C9353970C8D10E0102F00272D8D60
:101E60007801E20EF11CFCAEEBAE5596FC92EE92C0
:101E700054979A8CD601A75CBE4F2D913C91119737
:101E80005B978C90283E03E03007E9F1629FC00128
:101E9000639F900D729F900D11248C509E4F68EEA1
:101EA00073E00E94E925D6015D96ED90FD900D91BD
:101EB0001C9190975A962C91222329F12BAD3CAD81
:101EC0002E9DA0012F9D500D3E9D500D1124452F9C
:101ED0005527E417F50741F460EE7AE8882009F405
:101EE000E3C068EB72E212C09F01DB010E9427266B
:101EF00083017F01E41AF50A01091109A80197017C
:101F00000E94FD25B901882009F4CEC0CB01969529
:101F1000879596958795D50119969C938E931897DA
:101F20006295660F660F607C57966C931FA61EA67F
:101F3000892D90E07C0173E0F594E7947A95E1F7C0
:101F4000FAAEE9AE09AD0F70902E09F4B2C089ADBA
:101F50008D7011E018AB853029F084EF800F84304C
:101F600008F018AA41E06FEFC6010E9454078111E2
:101F700007C0AE01425D5F4F66EBC6010E94130BC6
:101F80009EA520E0392F330F790110E000E0E9AA87
:101F9000FAAA0BAB1CAB811105C040E06FEFC60184
:101FA0000E945407F601EE5CFE4FE9A8FAA80BA9BF
:101FB0001CA9E082F18202831383811178C1D601CA
:101FC00095968C909597882009F47FC0F501E4845C
:101FD000F584068517855A968C9120E030E0A9019A
:101FE000882399F0A489B589F601258D368D478D12
:101FF00050A10E9436269B01AC0120583F4F4F4F05
:102000005F4F232F342F452F55272E0D3F1D401F87
:10201000511FA8EEB3E00E94362670588F4F9F4F95
:10202000BC0188279927F601E65DFE4F672B682BD8
:10203000692B09F041C08EEA97E8AFE8B2E08083EF
:102040009183A283B3831EEAE12E17E8F12E0FE8F5
:1020500012E0EDAAFEAA0FAB18AFD5011B961C9299
:102060001E921A97AE01465D5F4F70E060E0C601B8
:102070000E94720B4AA55BA56CA57DA54115510573
:102080006105710559F0FF24F3940DA91EA92FA92C
:1020900038AD401751076207730708F0F12C882309
:1020A000A9F0312C212C07C1F50171876087178AAF
:1020B0003DCF01E008AB56CF10821182128213820D
:1020C0001DAA1EAA1FAA18AEC8CFF12CD60197963A
:1020D0003C90332009F4C5C0AE014A5D5F4F62E019
:1020E00070E0C6010E94720B4EA15FA168A579A5A0
:1020F000411551056105710559F0EE24E39409A9D4
:102100001AA92BA93CA9401751076207730708F0C9
:10211000E12C212C90E0811132C0D60198962C90B0
:10212000222009F4A4C00BAD1CAD0115110509F462
:102130009AC0962D852D742D6627980150E040E0B9
:102140000E94FD2529013A01AE014F5F5F4F63E018
:1021500070E0C6010E94720B49815A816B817C81BB
:10216000411551056105710531F091E044165506A0
:102170006606770608F090E0882309F479C0D50157
:102180001B961C921E921A9780E0811002C0FF24B9
:10219000F394F60136A1F3A6F4E09F1609F4A8C063
:1021A00021E0311120E0D6019C962C93311002C021
:1021B000EE24E394F601E5A6211001C091E0D601DA
:1021C0009E969C93F501808F9601265B3F4F99E187
:1021D000F901DE01119601900D929A95E1F7D50172
:1021E0001896ED91FC91199757969C9157971A96CE
:1021F0006D917C911B971C96ED90FD900D911C911B
:102200001F9750964D905D906D907C90539754968B
:102210004D915C91559714968D909D90AD90BC908A
:1022200017978D829E82AF82B886FA87E9877C876E
:102230006B87ED86FE860F87188B498A5A8A6B8AD0
:102240007C8A5E8B4D8B988F898F89E1FE01319658
:10225000D90101900D928A95E1F7C6010E94560CB2
:10226000B3CDE12C5ACF412C512C32016DCF90E0EF
:1022700018A98FEF113009F488CF890D8330F0F061
:1022800026E09216F9F039E09316E1F089AD8D70F1
:102290008830B1F041E0E41699F054E09516F9F079
:1022A0009130C1F0F416C1F09F2DEF2C68CF312C86
:1022B000812C212CF12C90E0E12C61CF85E065CFC1
:1022C00083E063CF84E0811064CFF60136A121E082
:1022D00023A766CF82E0F7CFE92E81E0F4CF82E03A
:1022E000811057CF81E0D6019B968C93E12C82E040
:1022F00021E059CFAF92BF92DF92EF92FF920F93FE
:102300001F93CF93DF93CDB7DEB769970FB6F894DD
:10231000DEBF0FBECDBF8C015B017C0183EEE81AEE
:102320008EEFF80AF701D08040EC61E0C8010E940E
:102330005407811126C0BE016F5F7F4FC8010E9404
:10234000A50E81111EC041E06FEFC8010E94540725
:10235000811117C0A50166EBC8010E94130B811102
:1023600010C040E06FEFC8010E945407811109C0FE
:102370004D2D61E0C8010E945407811102C0F70190
:10238000D08269960FB6F894DEBF0FBECDBFDF9145
:10239000CF911F910F91FF90EF90DF90BF90AF9082
:1023A00008950F931F93CF93DF931F92CDB7DEB79E
:1023B0008B011982AE014F5F5F4F61E00E94390CC3
:1023C000811116C0998194FB332730F9F8013083CD
:1023D00093FB332730F9328392FB332730F9318373
:1023E00096FB222720F92383991F9927991F94830D
:1023F0000F90DF91CF911F910F9108952F923F92EF
:102400004F925F926F927F928F929F92AF92BF9204
:10241000CF92DF92EF92FF921F93CF93DF9300D082
:1024200000D000D01F921F92CDB7DEB76C011A0109
:102430001B861F821E82623009F06EC0AE01465FAD
:102440005F4F60E00E94E20C182F811108C0AE01BE
:10245000455F5F4F66E4C6010E94390C182FAA85BC
:10246000B0E020E03FE24AE350E00E9436262B0134
:102470003C0124EF420E21E0521E611C711CCB84F2
:10248000D12CF12CE12C8FEFC81AD80AE80AF80AEF
:1024900098EE892E93E0992EA12CB12CC301B201A4
:1024A000A50194010E94FD25CA01B901A701960169
:1024B0000E94D9256B017C01C301B20120ED37E0F8
:1024C00040E050E00E94FD25C701B601620F731F76
:1024D000841F951FA50194010E94FD25F101208311
:1024E000318342835383812F2B960FB6F894DEBF3E
:1024F0000FBECDBFDF91CF911F91FF90EF90DF9086
:10250000CF90BF90AF909F908F907F906F905F9093
:102510004F903F902F900895633009F043C0AE0173
:10252000465F5F4F60E00E94E20C182F20E030E031
:10253000A9018111D3CFAE01465F5F4F60E0C601B4
:102540000E94E20C182F811108C0AE014A5F5F4F54
:1025500061E5C6010E94130B182FEE81FF81AA8549
:10256000B0E020E03FE24AE350E00E9436262B0133
:102570003C0124EF420E21E0521E611C711C6F01D0
:10258000DD24F12CE12C04C0CC0CDD1CEE1CFF1C66
:10259000FA95D2F78FEFC81AD80AE80AF80AEE249B
:1025A000FF2476CFBE016F5F7F4F0E94D1118C81D7
:1025B000882351F1AE01465F5F4F60E0C6010E9483
:1025C000E20C182FF12CE12C81111BC0AE014A5FE7
:1025D0005F4F61E5C6010E94130B182F2E813F81CA
:1025E000C9019927B0E0A0E004C0880F991FAA1F75
:1025F000BB1F3A95D2F70196A11DB11D7C01112395
:1026000029F0D12CC12C25C0F12CE12CAE01465F64
:102610005F4F61E0C6010E94E20C182F8111F1CFDB
:10262000AE01485F5F4F61E7C6010E94130B182F90
:1026300028853985C9019927B0E0A0E004C0880F3A
:10264000991FAA1FBB1F3A95D2F70196A11DB11D74
:102650006C01AA85B0E020E03FE24AE350E00E942E
:1026600036262B013C01E4EF4E0EE1E05E1E611CBC
:10267000711C88EE882E83E0982EA12CB12CC3010A
:10268000B201A50194010E94FD25D601AE19BF0932
:102690000E9436260FCF4F925F926F927F92BF9229
:1026A000CF92DF92EF92FF920F931F93CF93DF931E
:1026B00000D01F92CDB7DEB78A01AE014F5F5F4FEA
:1026C0000E94FE11B82E81112AC069817A818B8106
:1026D0009C8128EE422E23E0522E612C712CA30106
:1026E00092010E94FD2569017A019B01AC01AFEFC7
:1026F000BFEF0E9436266C507E4F8F4F9F4FA30135
:1027000092010E94FD257601DD24CC24C20ED31E49
:10271000E41EF51EF801C082D182E282F3828B2D85
:102720000F900F900F900F90DF91CF911F910F910D
:10273000FF90EF90DF90CF90BF907F906F905F9071
:102740004F9008955F926F927F928F929F92AF9277
:10275000BF92CF92DF92EF92FF920F931F93CF938E
:10276000DF93CDB7DEB761970FB6F894DEBF0FBE2B
:10277000CDBF7C018B01FC018089FB018083AE0110
:102780004A5F5F4F68EFC7010E94130B582E8111FB
:102790003AC1AE014F5F5F4F64E0C7010E94CA0AB1
:1027A000582E811130C12E813F812115310569F0EC
:1027B00050E040E069817A818B819C810E94FD25F7
:1027C000F8012683378340875187F80186819781F6
:1027D000A085B185F701868B978BA08FB18FF8010B
:1027E0001286AE014F5F5F4F60E2C7010E94130B7C
:1027F000582E811108C189819A81009709F01AC168
:10280000F701858D968DA78DB0A1F80185879687F4
:10281000A787B08BF701128EAE014F5F5F4F68E262
:10282000C7010E94130B582E8111EDC089819A8136
:102830009F708115F8E09F0708F090514AEF489F7C
:102840009001499F300D1124C901330FAA0BBB0B16
:10285000F801818B928BA38BB48B5801F1E2AF0E00
:10286000B11C470125E2820E911C380185E1680EFA
:10287000711CD12CC12CA501B601C7010E94720B9D
:10288000582E8111C0C0F40181914F01F301819351
:102890003F01FFEFCF1ADF0A24E0A20EB11C86E051
:1028A000C816D10441F7AE014F5F5F4F61E0C70129
:1028B0000E94390C582E8111A6C08981F701E35E70
:1028C000FE4F808387FFCAC081E0F80181AFF80125
:1028D00081ADF701E75BFF4F808380ED97E0A0E0DB
:1028E000B0E08A879B87AC87BD871E821F821886CF
:1028F000198686E39BE0A0E0B0E0F8018283938331
:10290000A483B583BE016F5F7F4FC7010E94D111C1
:10291000582E811178C08981811107C08A81811167
:1029200004C08B81882309F43EC0AE01465F5F4F2F
:1029300062E0C7010E94FE118111C1C08981882314
:10294000A9F08A859B85AC85BD85825B9D4FAF4F85
:10295000BF4FF8014281538164817581840F951FB7
:10296000A61FB71F82839383A483B5838B8188239B
:1029700009F477C08A859B85AC85BD858E549D4FB3
:10298000AF4FBF4F880F991FAA1FBB1FF80142818D
:10299000538164817581840F951FA61FB71F8283A1
:1029A0009383A483B5838C81811168C08D81882332
:1029B00001F1AE01425F5F4F64E0C7010E94FE116A
:1029C0008E849F84A888B988F6E28F0EF2E09F1E5D
:1029D000A11CB11CF8014281538164817581480DAD
:1029E000591D6A1D7B1D4283538364837583811146
:1029F00066C0F80182819381A481B581F701828B41
:102A0000938BA48BB58B852D61960FB6F894DEBFA2
:102A10000FBECDBFDF91CF911F910F91FF90EF902F
:102A2000DF90CF90BF90AF909F908F907F906F90EE
:102A30005F90089533E0880F991F3A95E1F7B0E071
:102A4000A0E0F80185879687A787B08BF701858F6F
:102A5000968FA78FB0A381E0828FDECEF80111AEF2
:102A600036CF8A81882309F49ECF8A859B85AC85E1
:102A7000BD858C569D4FAF4FBF4F88CFAE014A5F8B
:102A80005F4F63E0C7010E94FE118E809F80A88483
:102A9000B984F4E98F0EF2E09F1EA11CB11CF8016D
:102AA0004281538164817581480D591D6A1D7B1DCA
:102AB0004283538364837583882309F477CF582E28
:102AC000A2CF2F923F924F925F926F927F928F92FE
:102AD0009F92AF92BF92CF92DF92EF92FF920F93AD
:102AE0001F93CF93DF93CDB7DEB769970FB6F894F6
:102AF000DEBF0FBECDBF00ED17E020E030E00B875A
:102B00001C872D873E871F86188A198A1A8A4032A9
:102B10002EE4520761057105E0F45CEFB52E8B2DB4
:102B200069960FB6F894DEBF0FBECDBFDF91CF918F
:102B30001F910F91FF90EF90DF90CF90BF90AF90DB
:102B40009F908F907F906F905F904F903F902F90CD
:102B500008954E8B5F8B688F798F8C01BE016A5F01
:102B60007F4F0E94D111B82E8111D9CFCE88DF8836
:102B7000E88CF98C88EEC81A88E0D80AE108F108D8
:102B80008E81811106C08F81811103C088858823C1
:102B9000C1F1AE01455F5F4F62E0C8010E94FE11C6
:102BA00081110AC18E81882391F08B859C85AD852A
:102BB000BE85825B9D4FAF4FBF4F8C159D05AE0507
:102BC000BF0508F0AACFC81AD90AEA0AFB0A888505
:102BD000882309F471C08B859C85AD85BE858E5494
:102BE0009D4FAF4FBF4F880F991FAA1FBB1F8C155A
:102BF0009D05AE05BF0508F090CFC81AD90AEA0AAC
:102C0000FB0A89858823D9F0AE01415F5F4F63E0FD
:102C1000C8010E94FE114F85588969897A894C56EE
:102C20005D4F6F4F7F4F4C155D056E057F0508F0BA
:102C300074CF8111C1C0C41AD50AE60AF70A8A8581
:102C4000882309F46CCFBE016F5F7F4FC8010E94DB
:102C5000D1118C818823E9F1AE014B5E5F4F60E0BA
:102C6000C8010E94E20CB82E81111CC0AE014D5E5D
:102C70005F4F61E5C8010E94130BB82E8B899C89B8
:102C80001C013324512C412C04C0220C331C441C45
:102C9000551C9A95D2F79FEF291A390A490A590A01
:102CA000BB20C9F08E899F89A88DB98DF801828BD0
:102CB000938BA48BB58B33CF8F81882309F4A1CF5D
:102CC0008B859C85AD85BE858C569D4FAF4FBF4F84
:102CD0008ECF312C212CAE014B5E5F4F61E0C801DD
:102CE0000E94E20CB82E8111DDCFA6E2CA1AA2E042
:102CF000DA0AE108F108AD89B0E020E03FE24AE3FA
:102D000050E00E9436264B015C01B4EF8B0EB1E01F
:102D10009B1EA11CB11CA8EEB3E0A70196010E9466
:102D200036262B013C01C501B40120ED37E040E01F
:102D300050E00E94FD25420E531E641E751EC50103
:102D4000B40128EE33E040E050E00E94FD25C301CD
:102D5000B2010E94FD25220E331E21143104E1F040
:102D60004101B12CA12CE1E08E1A9108A108B10813
:102D700090E080E0B501A4014427452B462B472B6A
:102D800031F0B694A794979487940196F3CF982F37
:102D900088271C01280C391CA10161E7C8010E9489
:102DA0002907B82E81117ECFF801E153FF4FC08271
:102DB000D182E282F38276CFB82EB1CE7F928F920B
:102DC0009F92AF92BF92CF92DF92EF92FF920F93BA
:102DD0001F93CF93DF931F92CDB7DEB77C015B01CA
:102DE0006A01722E4C0183EE881A8EEF980AF40164
:102DF0001081198241E061E0C7010E9454078111EE
:102E00004AC060E4C7010E947F0D811144C0F1E017
:102E10007F121AC000E021E0AE014F5F5F4FB501A5
:102E2000C7010E94890C882389F00F90DF91CF9110
:102E30001F910F91FF90EF90DF90CF90BF90AF90D8
:102E40009F908F907F900895F501108242E061E09D
:102E5000C7010E945407811124C060E0C7010E948D
:102E60007F0D81111EC0F1E07F1218C001E020E04B
:102E7000A601BE016F5F7F4FC7010E94890C8111BF
:102E8000D4CF412F61E0C7010E9454078111CDCFFB
:102E9000F4011083CACFF5011082C7CFF60110826A
:102EA000F0CFF601F9CF2F923F924F925F926F923F
:102EB0007F928F929F92AF92BF92CF92DF92EF92CA
:102EC000FF920F931F93CF93DF93CDB7DEB7AC97ED
:102ED0000FB6F894DEBF0FBECDBF1C017FA36EA35B
:102EE00059A748A71F82188619861A861B861C8632
:102EF0001D861E86198A1A8AFC01E85DFE4F208114
:102F00003181398F288FAC014F5E5E4F5B8F4A8FC6
:102F1000DA011C922C01BEEE4B1ABEEF5B0AF201E5
:102F200010823C01FDEE6F1AFEEF7F0AD3011C9266
:102F3000FC01EC5EFE4F10823196108231961082B9
:102F400041E06FEF0E9454078B8B81111DC140E05F
:102F50006FE4C1010E9454078B8B811115C14CE2B3
:102F60006EE4C1010E9454078B8B81110DC140E0BA
:102F70006FEFC1010E9454078B8B811105C144EB97
:102F800066EBC1010E9454078B8B8111FDC040E0AC
:102F900060E8C1010E9454078B8B8111F5C020E0CD
:102FA000AE014E5E5F4FBE016F5E7F4FC1010E945A
:102FB000DE168B8B8111E8C01F82188619861A864F
:102FC000F101E95EFE4FFD8FEC8F9E01295F3F4FBF
:102FD0004901A3E0AA2EB12CC12CD12CE12CF12C5B
:102FE00087012A8D3B8DAF0160E0C1010E94E50998
:102FF0008B8B8111C9C04F81588569857A854C8B2F
:103000005D8B6E8B7F8BBE01615F7F4FC1010E9424
:103010007A118B8B8111B8C08F859889688D798DD5
:103020006817790708F0D3C0AA8DBB8D1C92F201F6
:103030001082D3011C923296108231961082319602
:1030400010828C899D89AE89BF898C549F4FAF4F68
:10305000BF4FE6E0B695A79597958795EA95D1F786
:10306000880F991F880F991F8D509D4FFC018081FB
:103070009181A281B381892B8A2B8B2B91F42C898E
:103080003D894E895F892C3231054105510548F44F
:103090002F5F3F4F4F4F5F4F2C8B3D8B4E8B5F8B86
:1030A000D0CFAE01495F5F4F4A0173E0A72EB12C2C
:1030B000C12CD12CEC88FD880E891F892A8D3B8D6F
:1030C0004C8D5D8D61E0C1010E94E509811159C1FE
:1030D0006F81788589859A856C8B7D8B8E8B9F8B94
:1030E000BE01615F7F4FC1010E947A11811149C108
:1030F0008F859889A88DB98D11E063E0462E512CFB
:10310000612C712CA817B90720F010E0412C512C2C
:103110003201C12CD12C7601C39460C0D501C40109
:103120000196A11DB11D8C8B9D8BAE8BBF8B86E054
:10313000EAA5FBA5ACA5B02F01900D928A95E1F709
:103140004E8C5F8C68A079A04AA35BA36CA37DA37F
:103150006FC04E8C5F8C68A079A0AEA1BFA14D92CC
:103160005D926D927C921397E8A5F9A51083F10109
:10317000EC5FFE4F81E0808332978C918083A8A51D
:10318000B9A58C91319680838B89AC960FB6F89453
:10319000DEBF0FBECDBFDF91CF911F910F91FF908A
:1031A000EF90DF90CF90BF90AF909F908F907F90E7
:1031B0006F905F904F903F902F900895BEECBB8B27
:1031C000E3CFEEECEB8BE0CFFEECFB8BDDCF10E042
:1031D000412C512C3201C12CD12C76018F8598893C
:1031E000288D398D8217930708F0B7CF46E0EA8D16
:1031F000FB8D9E012F5F3F4FD90101900D924A95A3
:10320000E1F7E88DF98D8E1B9F0BAC0170E060E05B
:103210004AA35BA36CA37DA353E0452E512C612CE4
:10322000712CB1016F5E7E4F7BA76AA72CA7032F7D
:103230009E01255F3F4F4C895D896E897F898C8D0A
:103240009D8D0E9441028B849C84AD84BE847FEF5F
:1032500087169706A706B70609F4B0CFD301C201B7
:103260000196A11DB11D8E8F9F8FA8A3B9A3D50173
:10327000C4018C549F4FAF4FBF4F36E0B695A79512
:10328000979587953A95D1F7880F991F880F991FC1
:103290008D509D4F11E0FC0180819181A281B3810D
:1032A000892B8A2B8B2B09F410E0812F90E0B0E062
:1032B000A0E08C159D05AE05BF0509F082CFD501B4
:1032C000C40123E0B695A795979587952A95D1F7E0
:1032D000B501A401477055276627772786309105E9
:1032E000A105B10508F070CFEA8DFB8DE80FF91F3D
:1032F00021E030E001C0220F4A95EAF78081822B5D
:1033000080836A8D7B8DC1010E945408811139C070
:10331000BE01615F7F4FC1010E947A11811131C0EE
:103320008F859889288D398DAC01421B530B8217EC
:10333000930711F450E040E070E060E0A88DB98D93
:10334000A817B90708F0EACE8AA19BA1ACA1BDA13C
:1033500084179507A607B70708F0FBCEBE016F5F7D
:103360007F4FC1010E94540896E0FE013196D101C1
:10337000AF5EBE4F01900D929A95E1F7882309F454
:10338000ECCE8B8B01CF9F92AF92BF92CF92DF9208
:10339000EF92FF920F931F93CF93DF93CDB7DEB7DA
:1033A000A0970FB6F894DEBF0FBECDBF6C012FED16
:1033B000C20ED11CF601A080F7E0F12CAF1609F483
:1033C000EEC0B62E8C0141E060E80E945407F82E52
:1033D00041E06FEFC8010E945407F82A40E060E026
:1033E000C8010E945407F82A46E06FEFC8010E9406
:1033F0005407F82AAE01425E5F4F63E8C8010E949D
:10340000390CF82A4E8D446063E8C8010E945407C5
:10341000F82A47E06FEFC8010E945407F82A41E0FC
:1034200061E8C8010E945407F82A0E941902F82A8C
:1034300041E060E8C8010E945407F82A21E0B21276
:10344000C1C0A0FC02C24BE664E9C8010E94540757
:10345000E82EC8010E94010D8E29F82AAE01465EB1
:103460005F4F60E9C8010E94CA0AF82A8A8D9B8DC5
:10347000AC8DBD8D992EE89497F897FBEE24E0F87B
:1034800044E264E9C8010E945407F82AC8010E9476
:10349000010DF82AAE01465E5F4F60E9C8010E9447
:1034A000CA0AF82A8A8D9B8D2C8D3D8D3C8B2D8BE5
:1034B0009E8B8F8B45E264E9C8010E945407F82A6D
:1034C000C8010E94010DF82AAE01465E5F4F60E917
:1034D000C8010E94CA0AF82A8C8D9D8D988F898F09
:1034E00040E061E8C8010E945407F82A46E06FEF07
:1034F000C8010E945407F82AAE01425E5F4F63E89C
:10350000C8010E94390CF82A4E8D4B7F63E8C80130
:103510000E945407F82A41E06FEFC8010E94540747
:10352000F82A41E060E0C8010E945407F82A40E010
:103530006FEFC8010E945407F82A40E060E8C80114
:103540000E945407F82A59F5F1E0BF1699F0A1FC42
:1035500023C0F801E052FF4F8F8D8083319688A100
:103560008083BE016F5F7F4FC8018E519F4F0E94C5
:10357000412612C0A0FC10C0F801EE5FFE4F908201
:103580003196E082DE0154967496035E1E4F8D9153
:1035900081930E171F07D9F7BA28F601B0828F2D35
:1035A000A0960FB6F894DEBF0FBECDBFDF91CF91CE
:1035B0001F910F91FF90EF90DF90CF90BF90AF9051
:1035C0009F900895A1FC41C142E064E9C8010E94B6
:1035D0005407E82EC8010E94010D8E29F82AAE0179
:1035E000415E5F4F60E9C8010E94390CF82A4BE741
:1035F00064E9C8010E945407F82AC8010E94010D1D
:10360000F82AAE01405E5F4F60E9C8010E94390CA4
:10361000F82A47E764E9C8010E945407F82AC8015C
:103620000E94010DF82AAE01465E5F4F60E9C801B5
:103630000E94CA0AF82A4A8D5B8D6C8D7D8DDB0154
:10364000CA0129E1B695A795979587952A95D1F74F
:103650008983DB01CA0132E1B695A79597958795D5
:103660003A95D1F78F778A83DB01CA01EBE0B695F3
:10367000A79597958795EA95D1F78F778B83DB018F
:10368000CA01F4E0B695A79597958795FA95D1F775
:103690008F778C83440F440F440F48774E8F48E751
:1036A00064E9C8010E945407F82AC8010E94010D6C
:1036B000F82AAE01465E5F4F60E9C8010E94CA0A5F
:1036C000F82A8A8D9B8DAC8DBD8DAC01BD012DE19D
:1036D00076956795579547952A95D1F72E8D240FA6
:1036E0002D83AC01BD0136E17695679557954795D9
:1036F0003A95D1F74F774E83AC01BD01EFE0769557
:10370000679557954795EA95D1F74F774F83292FBE
:103710002F772887AC01BD0176956795579547951A
:103720004F774987982F9295990F990F90749E8F94
:1037300049E764E9C8010E945407F82AC8010E94B9
:10374000010DF82AAE01465E5F4F60E9C8010E9494
:10375000CA0AF82A8A8D9B8DAC8DBD8DAC01BD0146
:103760002AE176956795579547952A95D1F72E8D3D
:10377000240F2A87AC01BD0133E1769567955795F3
:1037800047953A95D1F74F774B87AC01BD01ECE0F7
:103790007695679557954795EA95D1F74F774C877A
:1037A000AC01BD01F5E07695679557954795FA957B
:1037B000D1F74F774D87982F990F990F9C779E8F50
:1037C0004AE764E9C8010E945407F82AC8010E9428
:1037D000010DF82AAE01465E5F4F60E9C8010E9404
:1037E000CA0AF82A8A8D9B8DAC8DBD8DAC01BD01B6
:1037F0002EE176956795579547952A95D1F72E8DA9
:10380000240F2E87AC01BD0137E17695679557955A
:1038100047953A95D1F74F774F872A2F2F77288BE7
:10382000AC01BD01E9E07695679557954795EA9516
:10383000D1F74F77498BF2E0B695A7959795879585
:10384000FA95D1F78F778A8B1B8AE12C912C48CE81
:103850002F923F924F925F926F927F928F929F92A0
:10386000AF92BF92CF92DF92EF92FF920F931F938E
:10387000CF93DF93CDB7DEB7C954D1090FB6F89413
:10388000DEBF0FBECDBF3C01B62E1C0188EB281A4F
:103890008EEF380AD101ED91FC911197EF5BFE4F4D
:1038A00089E28083ED91FC911197EE5BFE4F81E000
:1038B0008083ED91FC911197ED5BFE4F80E991E0E3
:1038C00091838083ED91FC91EB5BFE4F89E495E061
:1038D000918380831092AB041092AA041092A904E1
:1038E0001092A8040E943C0582EC92E09093A704F9
:1038F0008093A60483EC92E09093A5048093A404A3
:103900002301BFEF4B1A5B0A21E04EEF69E8C201C9
:103910000E94E70B811105C040E068E8C2010E94E7
:103920005407AE01455C5F4F60ECC2010E94390C48
:10393000F301E052FF4F108288EE93E0E65AFF4F0A
:103940009183808380E991E032969183808385E83A
:103950009BE6A1E0B0E0329680839183A283B3839B
:1039600084EA90E7A9E0B0E0E557F109808391830C
:10397000A283B383F301168E178E10A211A2BE018B
:103980006F5F7F4FC2010E94A213082F81110BC0ED
:1039900019821A828AE3FE013196D3015196019071
:1039A0000D928A95E1F784E690E0F301EE5DFE4F1B
:1039B0009183808384E893E032969183808384EFBF
:1039C00091E032969183808380E09AE033969183F0
:1039D000808381E07096808341E060E8C2010E94AC
:1039E0005407182F41E06FEFC2010E945407182BB3
:1039F000102B40E060E0C2010E945407182BAE017A
:103A0000415C5F4F61E9C2010E94390C182B8FADF8
:103A1000F301E85DFE4F808341E060E0C2010E9457
:103A20005407182B40E06FEFC2010E945407182B77
:103A300040E060E8C2010E945407912F982B730167
:103A400010E000E0AA24A3946301F4E0CF0ED11C9F
:103A50009111ABC10330110509F491C07CF4013020
:103A60001105D1F00230110509F485C0D3019696F5
:103A7000AC92D7019696AC9280E020C0043011053C
:103A800009F480C020E04FEE0530110579F760E6BB
:103A9000C2010E94E70B10C0F60142A953A964A914
:103AA00075A9E9E07695679557954795EA95D1F719
:103AB00064E4C2010E9429078823D9F20F5F1F4FD7
:103AC000BFEFEB1AFB0A982F0630110509F0C0CFA3
:103AD000811169C0F30110A611A622E04EEF60E645
:103AE000C2010E94E70B81115EC0D3019A961C921D
:103AF00020E14FEE60E6C2010E94E70B811153C046
:103B0000F30113A686A1811140C080E090E0A2E1FC
:103B1000B0E082AB93ABA4ABB5ABD30197968C91DD
:103B2000811138C080E090E4A0E0B0E0F30186AB02
:103B300097ABA0AFB1AF80E090E0A3E2B0E082AF7E
:103B400093AFA4AFB5AFFE9610821182128213829A
:103B50008FEFE052FF4F80834FEF61E0C2010E9480
:103B6000540791E0F301E05EFE4F908381111BC08A
:103B70007B97108218C0D3019896AC927ACFF3014C
:103B8000A1A677CF20E04EEF82CF80E090E0A2E1C7
:103B9000B0E0BFCF40E250E064E4C2010E942907D8
:103BA000882309F4BFCFD3018C934B2D6AE8F10130
:103BB000808191810E945407D3018C936AE070E068
:103BC00080E090E00E949403F3018081811191C113
:103BD000D101ED91FC91EF5BFE4FB08262E0C2013A
:103BE0000E94C319811135C08301065B1E4FC301BA
:103BF00086579E4FF301EF51FF4F20812111D7C00F
:103C000069E273E00E9441266AE273E0C8010E9403
:103C1000412663E673E0C80180960E944126A30115
:103C200046555E4F60ECC2010E94390C811111C0F3
:103C3000AE014F5F5F4F62ECC2010E94390C91E010
:103C4000F301E555FE4F90833196998192959F70CF
:103C50009083D3018C9381110DC0F301E555FE4F84
:103C60008081813021F431968081813019F08BEF91
:103C7000F3018083D3018C918111CCC0F10140808C
:103C8000518025961FAE1EAE259728961FAE289709
:103C900027961FAE279723961CAE1DAE1EAE1FAEF5
:103CA000239761E0C2010E94C319F201ED5FFE4F4C
:103CB000808129968FAF2997823008F09DC0319777
:103CC00090812A969FAF2A97A92EB12CD12CC12C76
:103CD000813009F08AC0A1E2AA16B104C104D1045E
:103CE00008F08AC041E06FEFC2010E9454078111C1
:103CF0001AC040E06FE4C2010E945407811113C052
:103D00004CE26EE4C2010E94540781110CC040E0F5
:103D10006FEFC2010E945407811105C044EB66EBAE
:103D2000C2010E94540792012F5E3E4FF90110829A
:103D3000319610823196108231961082319610821F
:103D4000319610822996FFAD2997E12CF12C87013D
:103D5000FF2309F4E9C0D801C7018C549F4FAF4F2E
:103D6000BF4F46E0B695A795979587954A95D1F7A9
:103D7000880F991F880F991F8D509D4FFC018081DE
:103D80009181A281B381892B8A2B8B2B09F0CCC026
:103D9000FCE2EF16F1040105110509F4C5C08FEF2F
:103DA000E81AF80A0F4F1F4FD6CF892FFCCEF30128
:103DB000EE51FF4FF080B3016D517F4F0E944126BD
:103DC000FF2009F421CFB2E2BF1540F0E0E266E344
:103DD00073E0FE121BCF62E473E018CFF6E26EE4EC
:103DE00073E0FF1508F412CFF6CFBDE0AB16B104B7
:103DF000C104D10408F476CFAE014A5B5F4FBE0127
:103E0000615C7F4FC2010E945317882309F4A9C047
:103E1000F3018083D3018C9181110DC0AE014D5B04
:103E20005F4FBE016F5F7F4FF101808191810E94E2
:103E30005317D3018C93F301808181110EC021E0CF
:103E4000AE01455C5F4FBE01615C7F4FD1018D913A
:103E50009C910E94DE16F3018083D3018C91811125
:103E600006C0D101ED91FC91108AF3011082D301BB
:103E70008C9181113AC0D101ED91FC911197FF24F1
:103E8000F394F5A2F30110820D911C91D801D596FF
:103E90004D915D916D917C91D89789E0769567956C
:103EA000579547958A95D1F764E4C8010E94290780
:103EB000811102C0F801F6A2D3018C93811115C0C3
:103EC000D101ED91FC91119781E080A7F30110825F
:103ED000ED91FC91FD9684ED98E0A0E0B0E0808348
:103EE0009183A283B383D3011C9281E0F30190817B
:103EF000911180E0C75BDF4F0FB6F894DEBF0FBEB5
:103F0000CDBFDF91CF911F910F91FF90EF90DF9088
:103F1000CF90BF90AF909F908F907F906F905F9069
:103F20004F903F902F900895DE0111964D01A20110
:103F3000495E5E4F29966FAD2997C2010E94E5093F
:103F4000811163CF81E0F201EC5FFE4F80833297F5
:103F50002A96BFAD2A97B083319629968FAD2997BF
:103F60008083F201E85CFE4F808160E072E08111A5
:103F700003C0329760817181C2010E947C07811168
:103F800047CF44E06AE0C2010E945407811140CF4C
:103F900020E04FEE64E8C2010E94E70B811138CFA8
:103FA00084E0F201E253FF4F8083C2010E94560C6D
:103FB00081112ECF41E06FEFC2010E945407182FEC
:103FC000AE014D5B5F4F64E8C2010E94130B182BDA
:103FD00040E06FEFC2010E945407812B09F018CF17
:103FE000F201E853FF4F25968EAD9FAD259724E053
:103FF000880F991F2A95E1F7B0E0A0E080839183B4
:10400000A283B383BE016F5F7F4FC2010E94A213E0
:104010008111FECEAE01495B5F4F69E0C2010E9493
:10402000390C8111F5CE28968FAD2897817028968E
:104030008FAF2897F201E25EFE4F80838AE3FE0194
:104040003196D201509601900D928A95E1F7AE011A
:10405000495B5F4F61E0C2010E94390C8111D8CEEB
:104060008201035E1E4F28968FAD2897D8018C934E
:104070001BAEAE01455C5F4F61E0C2010E94390C8E
:104080008111C6CE8BADF82EE894F4F884FF13C0EE
:104090004F2D61E0C2010E9454078111B9CEF80191
:1040A000F082D20152964D915D916D917C91559720
:1040B000C2010E9461151BAEAE01455C5F4F61E01D
:1040C000C2010E94390C8111A3CE8BADF82EE89469
:1040D000F2F882FF13C04F2D61E0C2010E94540725
:1040E000811196CEF801F082D20152964D915D91E8
:1040F0006D917C915597C2010E94611583E0F20198
:10410000E15EFE4F8083AE014B5B5F4F60E0C2011A
:104110000E94E20C81117CCE26968FAD2697F2018B
:10412000E852FF4F8083AE014B5B5F4F61E0C201FD
:104130000E94E20C81116CCE26968FAD2697F2017B
:10414000ED52FF4F8083AE01455C5F4F63E0C201DB
:104150000E944B1381115CCE8BAD9CADADADBEAD5D
:10416000F201EC52FF4F80839183A283B383AE01AF
:10417000455C5F4F64E0C2010E944B13811148CE41
:10418000F201E153FF4F4BAD5CAD6DAD7EAD4083B1
:104190005183628373833CCE85ED8093BC00809114
:1041A000FA039091FB03A091FC03B091FD030796E5
:1041B000A11DB11D23E0B695A795979587952A95E2
:1041C000D1F72091BC0024FD03C01092F80308959C
:1041D0004091FA035091FB036091FC037091FD0341
:1041E000452B462B472B69F30097A105B10541F0FC
:1041F00025E32A95F1F700000197A109B109E1CF64
:104200008091F9030C945A051F920F920FB60F92EA
:1042100011242F933F938F939F93AF93BF938091DC
:104220009C0490919D04A0919E04B0919F043091B4
:104230009B0423E0230F2D3758F50196A11DB11DD6
:1042400020939B0480939C0490939D04A0939E04D0
:10425000B0939F048091A0049091A104A091A20426
:10426000B091A3040196A11DB11D8093A004909369
:10427000A104A093A204B093A304BF91AF919F9116
:104280008F913F912F910F900FBE0F901F90189517
:1042900026E8230F0296A11DB11DD2CF1F920F92C7
:1042A0000FB60F9211240BB60F922F933F934F939B
:1042B0005F936F937F938F939F93AF93BF93EF938E
:1042C000FF938CEA94E00E943A04FF91EF91BF9132
:1042D000AF919F918F917F916F915F914F913F919E
:1042E0002F910F900BBE0F900FBE0F901F9018953F
:1042F0001F920F920FB60F9211240BB60F922F93AD
:104300008F939F93EF93FF93E091BC04F091BD04D2
:104310008081E091C204F091C30482FD1DC09081B0
:104320008091C5048F5F8F732091C604821741F07E
:10433000E091C504F0E0E455FB4F958F8093C504F0
:10434000FF91EF919F918F912F910F900BBE0F9046
:104350000FBE0F901F9018958081F2CF1F920F9281
:104360000FB60F9211240BB60F922F933F934F93DA
:104370005F936F937F938F939F93AF93BF93EF93CD
:10438000FF938091B900887F803609F44DC008F012
:1043900040C0883209F4A9C028F5803109F49DC0D5
:1043A000C8F4882309F4FBC0883009F496C0FF9153
:1043B000EF91BF91AF919F918F917F916F915F919D
:1043C0004F913F912F910F900BBE0F900FBE0F900A
:1043D0001F901895883109F488C0803241F7809386
:1043E000F60314C0803409F49DC040F48033B9F35F
:1043F0008833E9F68093F60385ECB0C0803509F484
:1044000085C0883509F496C0883489F60E94CC208E
:10441000CECF883909F48CC038F5883729F050F4AC
:10442000883611F0803719F683E08093F8031092F4
:10443000CF0357C0883809F47BC0803919F0803821
:1044400009F0B5CF8091CF03803208F071C0E091C0
:10445000CF0381E08E0F8093CF038091BB00F0E00B
:10446000E155FC4F80833DC0803B39F0E0F4803A59
:1044700009F479C0883A09F09ACF84E08093F80370
:104480001092AE031092AD03E091A604F091A70440
:1044900019958091AD0381110FC081E08093AD0328
:1044A00010928D0309C0803C09F4A6CF883C09F422
:1044B000A3CF883B09F07BCFE091AE0381E08E0F64
:1044C0008093AE03F0E0E357FC4F80818093BB0004
:1044D0009091AE038091AD0329C08091F303809346
:1044E000BB0085EC8093BC0062CF9091F503809176
:1044F000F403981758F5E091F50381E08E0F80934F
:10450000F503F0E0EE52FC4F8081E9CFE091F50336
:1045100081E08E0F8093F5038091BB00F0E0EE52B6
:10452000FC4F80839091F5038091F4039817C8F2B3
:1045300085E8D8CFE091F50381E08E0F8093F503F5
:104540008091BB00F0E0EE52FC4F80838091F70336
:1045500081115CCF81E08093F20384EA8093BC00F8
:104560001092F80324CF85EC8093BC001092F803DE
:104570008091CF03803230F4E091CF03F0E0E15539
:10458000FC4F10826091CF0370E0E091A404F091A1
:10459000A5048FEA93E019951092CF0308CF1092EB
:1045A000F60334CFECEAF4E01382128288EE93E053
:1045B000A0E0B0E084839583A683B78327E033E04F
:1045C0003183208325EC30E03587248724EC30E0EC
:1045D0003787268720EC30E0318B208B21EC30E0D0
:1045E000338B228B22EC30E0358B248B26EC30E0B1
:1045F000378B268B118E128E138E148EE9E4F5E024
:104600001382128284839583A683B78389E193E022
:10461000918380838EEA91E0EBEBFDE0DF019C016A
:104620001D9221503040E1F72CEB3DE03093040F18
:104630002093030FEDE0FCE0DF019C011D9221506F
:104640003040E1F72EE03CE03093560D2093550DBD
:10465000EFE5FAE0DF019C011D9221503040E1F7C7
:1046600020E63AE03093A80B2093A70BE1EBF8E0AB
:10467000DF019C011D9221503040E1F722EB38E030
:104680003093FA092093F909E3E0F7E0DF019C0198
:104690001D9221503040E1F724E037E030934C0880
:1046A00020934B08E5E5F5E0DF019C011D922150C8
:1046B0003040E1F786E595E090939E0680939D0655
:1046C0000895789484B5826084BD84B5816084BD8A
:1046D00085B5826085BD85B5816085BD80916E00A0
:1046E000816080936E0010928100809181008260D1
:1046F000809381008091810081608093810080910E
:1047000080008160809380008091B10084608093FC
:10471000B1008091B00081608093B00080919100E1
:1047200082608093910080919100816080939100DC
:10473000809190008160809390008091A1008260C0
:104740008093A1008091A10081608093A10080915D
:10475000A00081608093A0008091210182608093FD
:1047600021018091210181608093210180912001AC
:1047700081608093200180917A00846080937A0028
:1047800080917A00826080937A0080917A008160C3
:1047900080937A0080917A00806880937A001092EA
:1047A000C100E091BC04F091BD0482E08083E091FF
:1047B000B804F091B9041082E091BA04F091BB04FE
:1047C00080E180831092C404E091C004F091C104A0
:1047D00086E08083E091BE04F091BF048081806117
:1047E0008083E091BE04F091BF0480818860808363
:1047F000E091BE04F091BF04808180688083E091E5
:10480000BE04F091BF0480818F7D808382E30E948B
:10481000C40285E30E94C40283E30E94C40284E3CD
:104820000E94C40281E30E94C40288E192E00E94D7
:10483000CC0860E082E30E94E30260E085E30E942E
:10484000E30260E083E30E94E30260E084E30E940D
:10485000E30260E081E30E94E30285EF91E00E94C1
:10486000CC0889EE91E00E94CC0860E082E30E94CF
:10487000E30260E085E30E94E30260E083E30E94DC
:10488000E30260E089E20E94E30260E084E30E94C8
:10489000E30260E081E30E94E3026AE070E080E00E
:1048A00090E00E94940361E082E30E94E30261E0F1
:1048B00085E30E94E30261E083E30E94E30261E09A
:1048C00089E20E94E30261E084E30E94E30261E086
:1048D00081E30E94E3026AE070E080E090E00E94E1
:1048E000940361E082E30E94E30260E085E30E94BA
:1048F000E30260E083E30E94E30260E089E20E9459
:10490000E30260E084E30E94E30260E081E30E944E
:10491000E30264E58BEB9DE00E94281C811104C03A
:1049200080ED91E00E94CC086AE070E080E090E0C9
:104930000E94940361E085E30E94E3026AE070E074
:1049400080E090E00E94940361E48DE09CE00E948E
:10495000281C811104C087EB91E00E94CC0861E023
:1049600083E30E94E3026AE070E080E090E00E944E
:10497000940362E48FE59AE00E94281C811104C030
:104980008EE991E00E94CC0861E089E20E94E30296
:104990006AE070E080E090E00E94940361E084E3CC
:1049A0000E94E3026AE070E080E090E00E949403DD
:1049B00064E385E595E00E94281C811104C085E828
:1049C00091E00E94CC0861E081E30E94E3026AE08A
:1049D00070E080E090E00E94940361E383E097E060
:1049E0000E94281C811104C08CE691E00E94CC0832
:1049F0008BEB9DE00E942A0E8DE09CE00E942A0E27
:104A00008FE59AE00E942A0E85E595E00E942A0E25
:104A100083E097E00E942A0E62E874E08091030F21
:104A20009091040F0E94A50E69E674E08091550DE7
:104A30009091560D0E94A50E60E574E08091A70B41
:104A40009091A80B0E94A50E67E374E080914B083B
:104A500090914C080E94A50E6EE174E080919D0635
:104A600090919E060E94A50E8DEB92E00E94A904F3
:104A70002FB7F89460919C0470919D0480919E04DE
:104A800090919F042FBF4AE00E94760888EB92E045
:104A90000E94A90480EB92E00E94A90480919A04EC
:104AA000843009F46DC080918A0490918B040E9437
:104AB000D80881EA92E00E94A9048AE992E00E9463
:104AC000A90480918104843009F45FC0809171044D
:104AD000909172040E94D8088BE892E00E94A90489
:104AE00081E892E00E94A90480916804843009F46E
:104AF00051C080915804909159040E94D80882E7CF
:104B000092E00E94A90487E692E00E94A90490E046
:104B100080E00E94D80885E692E00E94A90488E51A
:104B200092E00E94A90480914F048430C1F18091E9
:104B30003F04909140040E94D80889E492E00E94CA
:104B4000A9048DE392E00E94A90480913604843088
:104B500059F180912604909127040E94D8080E9460
:104B6000C40864EF71E080E090E00E94940364E187
:104B700070E080E090E00E9494030E94E4044CCF37
:104B800083EA92E00E94A90494CF8DE892E00E940B
:104B9000A904A2CF84E792E00E94A904B0CF8BE4DD
:104BA00092E00E94A904C9CF80E392E00E94A90488
:104BB000D6CFDB018F939F930E943626BF91AF9192
:104BC000A29F800D911DA39F900DB29F900D112467
:104BD0000895AA1BBB1B51E107C0AA1FBB1FA61744
:104BE000B70710F0A61BB70B881F991F5A95A9F796
:104BF00080959095BC01CD010895A1E21A2EAA1BC3
:104C0000BB1BFD010DC0AA1FBB1FEE1FFF1FA2177C
:104C1000B307E407F50720F0A21BB30BE40BF50B79
:104C2000661F771F881F991F1A9469F76095709502
:104C3000809590959B01AC01BD01CF010895EE0FC9
:104C4000FF1F881F8BBF0790F691E02D1994A29F3C
:104C5000B001B39FC001A39F700D811D1124911D50
:104C6000B29F700D811D1124911D08950E94272669
:104C7000A59F900DB49F900DA49F800D911D1124B0
:104C80000895FB01DC0101900D920020E1F70895E9
:044C9000F894FFCFC6
:104C940001FF0101000001FF0001090001100001F2
:104CA40011000124010125FF01750001FF01014EDE
:104CB4002C01480001302001FF000130090154009B
:104CC40001310401320301408301462501600001E2
:104CD4002700015006015100015296015608015760
:104CE400300161000162000164000165000166A0F9
:104CF40001FF010122320147140149FF014A000169
:104D0400FF00017A0A017B0001782101FF010123E0
:104D1400340142000144FF0145260146050140409B
:104D2400010E0601201A01434001FF000134030172
:104D3400354401FF01013104014B09014C05014DCA
:104D44000401FF00014400014520014708014828EF
:104D54000167000170040171010172FE0176000116
:104D6400770001FF01010D0101FF00018001010134
:104D7400F801FF01018E0101000101FF0001800023
:104D84000000000A0000000500000000000000050B
:104D9400000000000000005C04C603F303C4042404
:104DA400040204160400000000D205A50573087B64
:104DB400059E058B057C050D0A00564C35334C3099
:104DC400582054533000564C35334C3058205453EB
:104DD4003100564C35334C30582054533200564C25
:104DE40035334C305820455331206F72206C617438
:0C4DF400657200564C35334C30580000FE
:00000001FF
