:100000000C941A010C944B010C944B010C944B0171
:100010000C944B010C944B010C944B010C944B0130
:100020000C944B010C944B010C944B010C944B0120
:100030000C944B010C944B010C944B010C944B0110
:100040000C944B010C942C040C944B010C944B011C
:100050000C944B010C944B010C944B010C945803E1
:100060000C944B010C944B010C944B010C944B01E0
:100070000C944B010C944B010C944B010C944B01D0
:100080000C94FE030C944B010C944B010C944B010B
:100090000C944B010C944B010C944B010C944B01B0
:1000A0000C944B010C944B010C94D0030C944B0119
:1000B0000C944B010C944B010C944B010C94A20337
:1000C0000C944B010C944B010C944B010C944B0180
:1000D0000C944B010C944B010C944B010C944B0170
:1000E0000C944B010C9456020C9448020C943A0266
:1000F0000C946D050C943E020C9436020C944C0248
:100100000C9444020C9430020C9400020C941B02D8
:100110000C9417020C9426020C941F020C942C02CF
:100120000C9405020C9452020C94230200000A0B5A
:1001300002090C0D0E080703040100000000000076
:1001400000000000000000000000000000000000AF
:10015000000000000000000012111000000000006C
:10016000000000000000000000000000000000008F
:10017000000000002200250028002B002E00310086
:10018000340002010000050108010B0100002100FC
:10019000240027002A002D00300033000101000058
:1001A000040107010A0105050505070508080808F7
:1001B000020202020A0A08080404040401010101FF
:1001C00001010101030303030303030304070707FA
:1001D0000C0C0C0C0C0C0C0C02020202060606069F
:1001E000060606060B0B0B0B0B0B0B0B010210206C
:1001F000200808102040102040800201020108045D
:1002000002010102040810204080804020100804F0
:100210000201800402018040201008040201080449
:10022000020101020408102040800102040810208D
:1002300040806D0511241FBECFEFD1E2DEBFCDBFE0
:1002400000E00CBF12E0A0E0B2E0E6E2FCE000E07B
:100250000BBF02C007900D92A030B107D9F722E082
:10026000A0E0B2E001C01D92A43AB207E1F711E0AC
:10027000CAE1D1E000E006C021970109802FFE010C
:100280000E940906C931D10780E00807A9F70E943A
:100290005A040C9411060C9400008F929F92AF9216
:1002A000BF92FF920F931F93CF93DF93FC01F080D7
:1002B0008FE28F1508F44BC0828108E512E0081B1D
:1002C000110987FD1395000F111F000F111F818168
:1002D000C8E8D0E0C81BD10987FDD395CC0FDD1F3E
:1002E000CC0FDD1F4E010D2E000CAA08BB08980193
:1002F000012E000C440B550B281939094A095B09DA
:10030000AAE5B0E00E94C10524EB30E040E050E0F7
:100310000E94A205820E931EA41EB51E8C169D0679
:100320002CF0E801801691060CF4E4012297CC0F22
:10033000DD1F2FB7F8948F2D90E0FC01EE0FFF1F0B
:10034000E80FF91FEC5EFD4FD283C1832FBFDF9111
:10035000CF911F910F91FF90BF90AF909F908F9082
:10036000089590E0FC01E451FE4F24918A559E4F80
:10037000FC018491882399F090E0880F991FFC017B
:10038000E457FE4FA591B491FC01EE58FE4F8591C4
:1003900094918FB7F894EC91E22BEC938FBF089572
:1003A000282F30E0F901E45DFE4F9491F901E4510A
:1003B000FE4F44912A553E4FF9012491222309F41E
:1003C00035C0992311F191509231F8F4E92FF0E002
:1003D0008827E251FE4F8F4F0C9409061F0223021B
:1003E000000217021B02050226022C02300236020E
:1003F0003A023E024402480205024C0252025602F0
:10040000809180008F7780938000E22FF0E0EE0FE4
:10041000FF1FEE58FE4FA591B4918FB7F894EC9161
:10042000611148C040954E234C938FBF0895809131
:1004300080008F7DE8CF80918000877FE4CF84B5F6
:100440008F7784BDE2CF84B58F7DFBCF8091B000E4
:100450008F778093B000D9CF8091B0008F7DF9CF96
:10046000809190008F7780939000CFCF8091900003
:100470008F7DF9CF80919000877FF5CF8091A0008C
:100480008F778093A000C1CF8091A0008F7DF9CF9E
:100490008091A000877FF5CF809120018F77809396
:1004A0002001B3CF809120018F7DF9CF8091200171
:1004B000877FF5CF4E2BB8CF8130910581F4109214
:1004C000800082E080938100109285001092840069
:1004D000B19A80916F00826080936F00089582309E
:1004E000910569F41092900082E08093910010923F
:1004F00095001092940088BB80937100089583301A
:10050000910569F41092A00082E08093A1001092FE
:10051000A5001092A40089BB809372000895892BD6
:1005200061F41092200182E0809321011092250154
:10053000109224018ABB809373000895AF92BF92FA
:10054000CF92DF92EF92FF920F931F93CF93DF939F
:100550006B017A01EC01CF5FDD4F28813CE0389FD1
:100560008001399F100D1124A0900002B12C27FFAB
:100570001FC0FB011182108288818F5F8883888170
:100580009801280F311D87FD3A95F6012A153B0584
:100590001CF488818C30C4F1808191810496803470
:1005A0009C4908F473C0F60180819181049670C063
:1005B00088819801280F311D87FD3A952A153B0542
:1005C000DCF68881A801480F511D87FD5A95FA0174
:1005D000EE0FFF1FE40FF51FEC5EFD4F808186FFDD
:1005E000CBCF8881F801E80FF11D87FDFA95CF0187
:1005F000EE0FFF1FE80FF91FEC5EFD4F808160E0FA
:100600008F730E94D001B8CF808191812881A80189
:10061000420F511D27FD5A959A01FA01EE0FFF1F57
:10062000E20FF31FEC5EFD4F21813281820F931F99
:10063000F7019183808388819801280F311D87FD00
:100640003A95F901EE0FFF1FE20FF31FEC5EFD4F2D
:10065000808186FF22C08881080F111D87FD1A95B1
:10066000F801EE0FFF1FE00FF11FEC5EFD4F8081E0
:1006700061E08F73DF91CF911F910F91FF90EF9009
:10068000DF90CF90BF90AF900C94D00180E49CE9B4
:10069000F701918380838FEF8883DF91CF911F9142
:1006A0000F91FF90EF90DF90CF90BF90AF900895A3
:1006B0001F920F920FB60F9211242F933F938F9397
:1006C0009F93AF93BF938091100290911102A091DC
:1006D0001202B091130230910F0223E0230F2D3745
:1006E00058F50196A11DB11D20930F0280931002B1
:1006F00090931102A0931202B093130280910B0207
:1007000090910C02A0910D02B0910E020196A11DD4
:10071000B11D80930B0290930C02A0930D02B09335
:100720000E02BF91AF919F918F913F912F910F90AA
:100730000FBE0F901F90189526E8230F0296A11D5B
:10074000B11DD2CF1F920F920FB60F9211240BB68C
:100750000F922F933F934F935F936F937F938F935A
:100760009F93AF93BF93EF93FF9348E251E064E20E
:1007700071E090E080E00E949E02FF91EF91BF91B6
:10078000AF919F918F917F916F915F914F913F9129
:100790002F910F900BBE0F900FBE0F901F901895CA
:1007A0001F920F920FB60F9211240BB60F922F9338
:1007B0003F934F935F936F937F938F939F93AF93E9
:1007C000BF93EF93FF9348EA50E064EA70E083E060
:1007D00090E00E949E02FF91EF91BF91AF919F9197
:1007E0008F917F916F915F914F913F912F910F90DA
:1007F0000BBE0F900FBE0F901F9018951F920F9277
:100800000FB60F9211240BB60F922F933F934F9375
:100810005F936F937F938F939F93AF93BF93EF9368
:10082000FF9348E950E064E970E082E090E00E94C4
:100830009E02FF91EF91BF91AF919F918F917F9118
:100840006F915F914F913F912F910F900BBE0F9041
:100850000FBE0F901F9018951F920F920FB60F9218
:1008600011240BB60F922F933F934F935F936F9387
:100870007F938F939F93AF93BF93EF93FF9348E83A
:1008800050E064E870E081E090E00E949E02FF91F9
:10089000EF91BF91AF919F918F917F916F915F91F8
:1008A0004F913F912F910F900BBE0F900FBE0F9065
:1008B0001F901895789484B5826084BD84B581605A
:1008C00084BD85B5826085BD85B5816085BD80911B
:1008D0006E00816080936E00109281008091810093
:1008E000826080938100809181008160809381008B
:1008F000809180008160809380008091B10084604D
:100900008093B1008091B00081608093B0008091AD
:10091000910082608093910080919100816080932A
:100920009100809190008160809390008091A1005F
:1009300082608093A1008091A10081608093A100DA
:100940008091A00081608093A0008091210182604D
:100950008093210180912101816080932101809108
:10096000200181608093200180917A0084608093CF
:100970007A0080917A00826080937A0080917A0078
:10098000816080937A0080917A00806880937A00F9
:100990001092C10089E00E94B10189E00E94B1017A
:1009A00080910802803308F042C089E00E94B101C2
:1009B00080910802282F30E0F901EE0FFF1FE20FAF
:1009C000F31FEC5EFD4F9081907C996090831092B4
:1009D000090210920A022CE0622F0E94FD0590E0AD
:1009E000829FB001112430E020E0AB01420F531F81
:1009F000FA01EE0FFF1FE40FF51FEC5EFD4F408183
:100A000046FD07C02F5F3F4F2C30310571F70E9424
:100A10005C02E09108028E2F90E0FC01EE0FFF1FB8
:100A2000E80FF91FEC5EFD4F808180648083809128
:100A30000502803308F042C08AE00E94B101809133
:100A40000502282F30E0F901EE0FFF1FE20FF31F20
:100A5000EC5EFD4F9081907C9A609083109206022C
:100A6000109207022CE0622F0E94FD0590E0829F09
:100A7000B001112430E020E0AB01420F531FFA0116
:100A8000EE0FFF1FE40FF51FEC5EFD4F408146FDAA
:100A900007C02F5F3F4F2C30310571F70E945C0279
:100AA000E09105028E2F90E0FC01EE0FFF1FE80F92
:100AB000F91FEC5EFD4F80818064808388E092E0C6
:100AC0000E944D0185E092E00E944D01C0E0D0E01F
:100AD0002097F1F30E940000FBCF80910002803349
:100AE00048F591E0980F909300028093080290E0FF
:100AF000FC01EE0FFF1FE80FF91FEC5EFD4F88EBC6
:100B00009BE092838183809100028033B8F491E06E
:100B1000980F909300028093050290E0FC01EE0F85
:100B2000FF1FE80FF91FEC5EFD4F88EB9BE09283FF
:100B3000818308958FEF80930802E5CF8FEF809334
:100B400005020895052E97FB1EF400940E94B90536
:100B500057FD07D00E94CC0507FC03D04EF40C943F
:100B6000B90550954095309521953F4F4F4F5F4FB8
:100B7000089590958095709561957F4F8F4F9F4F09
:100B800008950E94EE05A59F900DB49F900DA49F1F
:100B9000800D911D11240895A1E21A2EAA1BBB1BE2
:100BA000FD010DC0AA1FBB1FEE1FFF1FA217B30739
:100BB000E407F50720F0A21BB30BE40BF50B661F4F
:100BC000771F881F991F1A9469F760957095809513
:100BD00090959B01AC01BD01CF010895A29FB0018A
:100BE000B39FC001A39F700D811D1124911DB29F61
:100BF000700D811D1124911D0895991B79E004C089
:100C0000991F961708F0961B881F7A95C9F780954B
:100C10000895EE0FFF1F881F8BBF0790F691E02D00
:060C20001994F894FFCFC7
:00000001FF
